:020000040800F2
:10000000D82500204D0200085502000857020008BC
:10001000590200085B0200085D02000800000000B1
:100020000000000000000000000000005F02000867
:100030006102000800000000630200080554000887
:1000400067020008670200086702000867020008EC
:1000500067020008670200086702000867020008DC
:1000600067020008670200086702000867020008CC
:1000700067020008670200086702000867020008BC
:1000800067020008670200086702000867020008AC
:10009000670200086702000867020008670200089C
:1000A000670200086702000867020008670200088C
:1000B000670200086702000867020008670200087C
:1000C000670200086702000867020008670200086C
:1000D000670200086702000879580008F95800080C
:1000E000670200086702000867020008670200084C
:1000F000670200086702000867020008670200083C
:10010000670200086702000867020008670200082B
:10011000670200086702000867020008670200081B
:10012000670200086702000867020008670200080B
:1001300067020008670200086702000867020008FB
:1001400067020008670200086702000867020008EB
:1001500067020008670200086702000867020008DB
:1001600067020008670200086702000867020008CB
:10017000670200086702000867020008000000002C
:1001800067020008670200086702000867020008AB
:10019000670200086702000867020008000000000C
:1001A00067020008670200086702000800F002F812
:1001B00000F03CF80AA090E8000C82448344AAF1C5
:1001C0000107DA4501D100F031F8AFF2090EBAE8C3
:1001D0000F0013F0010F18BFFB1A43F0010318477B
:1001E000C0760000E0760000103A24BF78C878C1DD
:1001F000FAD8520724BF30C830C144BF04680C602D
:10020000704700000023002400250026103A28BF74
:1002100078C1FBD8520728BF30C148BF0B60704778
:100220001FB507F0F5F91FBD10B510BD00F08AF835
:100230001146FFF7F5FF06F0BDF900F0A8F803B48A
:10024000FFF7F2FF03BC00F0AFF800000948804759
:1002500009480047FEE7FEE7FEE7FEE7FEE7FEE7A8
:10026000FEE7FEE7FEE7FEE704480549054A064BC0
:100270007047000061540008AD010008D81D00203F
:10028000D8250020D8210020D821002010B5203A00
:10029000C0F00B80B1E81850203AA0E81850B1E83F
:1002A0001850A0E81850BFF4F5AF5FEA027C24BFF5
:1002B000B1E81850A0E8185044BF18C918C0BDE8EC
:1002C00010405FEA827C24BF51F8043B40F8043BB5
:1002D00008BF7047D20728BF31F8023B48BF11F86A
:1002E000012B28BF20F8023B48BF00F8012B7047C4
:1002F0004FF0000200B5134694469646203922BFBF
:10030000A0E80C50A0E80C50B1F12001BFF4F7AF09
:10031000090728BFA0E80C5048BF0CC05DF804EBEB
:10032000890028BF40F8042B08BF704748BF20F859
:10033000022B11F0804F18BF00F8012B7047704757
:1003400070477047754600F02BF8AE4605006946C9
:10035000534620F00700854618B020B5FFF784FF0C
:10036000BDE820404FF000064FF000074FF00008B6
:100370004FF0000B21F00701AC46ACE8C009ACE837
:10038000C009ACE8C009ACE8C0098D46704710B59B
:100390000446AFF300802046BDE81040FFF74FBF92
:1003A00000487047781D002001491820ABBEFEE7C9
:1003B000260002007047F0B502460B46002407E213
:1003C0000020FFE100EB400505EBC00552F8256079
:1003D000451C05EB450707EBC50552F82550AE4215
:1003E00019D900EB400505EBC00552F82510451C56
:1003F00005EB450606EBC50552F8255000EB400617
:1004000006EBC00642F82650451C05EB450606EBF8
:10041000C50542F8251000EB400505EBC00502EBD1
:1004200085056E68451C05EB450707EBC50502EB26
:1004300085056D68AE421DD900EB400505EBC00592
:1004400002EB85056968451C05EB450606EBC5050D
:1004500002EB85056D6800EB400606EBC00602EB7B
:1004600086067560451C05EB450606EBC50502EBE7
:100470008505696000EB400505EBC00502EB8505CD
:10048000AE68451C05EB450707EBC50502EB850586
:10049000AD68AE421DD900EB400505EBC00502EB8F
:1004A0008505A968451C05EB450606EBC50502EB6D
:1004B0008505AD6800EB400606EBC00602EB86063C
:1004C000B560451C05EB450606EBC50502EB850549
:1004D000A96000EB400505EBC00502EB8505EE6861
:1004E000451C05EB450707EBC50502EB8505ED68E7
:1004F000AE421DD900EB400505EBC00502EB8505BA
:10050000E968451C05EB450606EBC50502EB8505CC
:10051000ED6800EB400606EBC00602EB8606F560D0
:10052000451C05EB450606EBC50502EB8505E960B4
:1005300000EB400505EBC00502EB85052E69451C67
:1005400005EB450707EBC50502EB85052D69AE42B6
:100550001DD900EB400505EBC00502EB85052969B7
:10056000451C05EB450606EBC50502EB85052D6927
:1005700000EB400606EBC00602EB86063561451C23
:1005800005EB450606EBC50502EB8505296100EB89
:10059000400505EBC00502EB85056E69451C05EBC2
:1005A000450707EBC50502EB85056D69AE421DD910
:1005B00000EB400505EBC00502EB85056969451CAC
:1005C00005EB450606EBC50502EB85056D6900EBFD
:1005D000400606EBC00602EB86067561451C05EB7E
:1005E000450606EBC50502EB8505696100EB400594
:1005F00005EBC00502EB8505AE69451C05EB45071B
:1006000007EBC50502EB8505AD69AE421DD900EBD0
:10061000400505EBC00502EB8505A969451C05EB06
:10062000450606EBC50502EB8505AD6900EB400606
:1006300006EBC00602EB8606B561451C05EB4506D8
:1006400006EBC50502EB8505A96100EB400505EB4E
:10065000C00502EB8505EE69451C05EB450707EB78
:10066000C50502EB8505ED69AE421DD900EB4005DD
:1006700005EBC00502EB8505E969451C05EB450660
:1006800006EBC50502EB8505ED6900EB400606EBC0
:10069000C00602EB8606F561451C05EB450606EB38
:1006A000C50502EB8505E96100EB400505EBC005DA
:1006B00002EB85052E6A451C05EB450707EBC505D2
:1006C00002EB85052D6AAE421DD900EB400505EB16
:1006D000C00502EB8505296A451C05EB450606EBBE
:1006E000C50502EB85052D6A00EB400606EBC0064A
:1006F00002EB86063562451C05EB450606EBC50593
:1007000002EB8505296200EB400505EBC00502EB15
:1007100085056E6A451C05EB450707EBC50502EB31
:1007200085056D6AAE421DD900EB400505EBC0059D
:1007300002EB8505696A451C05EB450606EBC50518
:1007400002EB85056D6A00EB400606EBC00602EB86
:1007500086067562451C05EB450606EBC50502EBF2
:100760008505696200EB400505EBC00502EB8505D8
:10077000AE6A451C05EB450707EBC50502EB850591
:10078000AD6AAE421DD900EB400505EBC00502EB9A
:100790008505A96A451C05EB450606EBC50502EB78
:1007A0008505AD6A00EB400606EBC00602EB860647
:1007B000B562451C05EB450606EBC50502EB850554
:1007C000A962401C5D1E2D1B85423FF7FBAD641CDA
:1007D0005D1EA5423FF7F4ADF0BD00002DE9F041EC
:1007E000ADF5007D04460E464FF48072104940A8D6
:1007F000FFF74CFD4FF480720E496846FFF746FD47
:10080000FF27B84609E014F8010B80EA070540A865
:10081000405D80EA08071DF80580301EA6F101063C
:10082000F1D147EA08200DF5007DBDE8F081000018
:10083000887600088877000810B504F027FD044684
:10084000D4F8800100281BDDD4F88011A06E884206
:1008500009DCD4F88011E06E884204DCD4F8801101
:10086000206F88420CDD0121FE4805F0DAFDD4F846
:100870006C0120F00100C4F86C01042004F0ACFD10
:10088000D4F8880100281BDDD4F88811A06E8842B6
:1008900009DCD4F88811E06E884204DCD4F88811B1
:1008A000206F88420CDD0121EE4805F0BAFDD4F836
:1008B0006C0120F00100C4F86C01062004F08CFDEE
:1008C000D4F8840100281BDDD4F88411606F8842BD
:1008D00009DCD4F88411A06F884204DCD4F88411B8
:1008E000E06F88420CDD0121DE4805F09AFDD4F866
:1008F0006C0120F00100C4F86C01052004F06CFDCF
:10090000D4F88C0100281BDDD4F88C11606F88426C
:1009100009DCD4F88C11A06F884204DCD4F88C1167
:10092000E06F88420CDD0121CE4805F07AFDD4F855
:100930006C0120F00100C4F86C01072004F04CFDAC
:10094000D4F87001002811DDD4F87011A06D884230
:100950000CDD0221C34805F064FDD4F8680120F0E5
:100960000100C4F86801002004F036FDD4F87401D9
:10097000002811DDD4F87411E06D88420CDD0221ED
:10098000B84805F04EFDD4F8680120F00100C4F825
:100990006801012004F020FDD4F87801002811DD61
:1009A000D4F87811206E88420CDD0421AD4805F0A2
:1009B00038FDD4F8680120F00200C4F86801022074
:1009C00004F00AFDD4F87C01002811DDD4F87C1174
:1009D000606E88420CDD0421A24805F022FDD4F8A7
:1009E000680120F00200C4F86801032004F0F4FC60
:1009F000D4F8A00100281EDDD4F8A011D4F890008E
:100A000088420BDCD4F8A011D4F89400884205DCAD
:100A1000D4F8A011D4F8980088420CDD0821914840
:100A200005F0FFFCD4F86C0120F00200C4F86C0162
:100A30000C2004F0D1FCD4F8A80100281EDDD4F865
:100A4000A811D4F8900088420BDCD4F8A811D4F88F
:100A50009400884205DCD4F8A811D4F898008842A4
:100A60000CDD08217F4805F0DCFCD4F86C0120F097
:100A70000200C4F86C010E2004F0AEFCD4F8A4010E
:100A800000281EDDD4F8A411D4F89C0088420BDCA9
:100A9000D4F8A411D4F8A000884205DCD4F8A4113D
:100AA000D4F8A40088420CDD08216E4805F0B9FC9A
:100AB000D4F86C0120F00200C4F86C010D2004F0A1
:100AC0008BFCD4F8AC0100281EDDD4F8AC11D4F8AE
:100AD0009C0088420BDCD4F8AC11D4F8A00088420A
:100AE00005DCD4F8AC11D4F8A40088420CDD082150
:100AF0005C4805F096FCD4F86C0120F00200C4F8C4
:100B00006C010F2004F068FCD4F89001002812DD7D
:100B1000D4F89011D4F8800088420CDD102151489F
:100B200005F07FFCD4F8680120F00400C4F86801E7
:100B3000082004F051FCD4F89401002812DDD4F808
:100B40009411D4F8840088420CDD1021454805F04A
:100B500068FCD4F8680120F00400C4F8680109209A
:100B600004F03AFCD4F89801002812DDD4F898116A
:100B7000D4F8880088420CDD20213A4805F051FC69
:100B8000D4F8680120F00800C4F868010A2004F0D5
:100B900023FCD4F89C01002812DDD4F89C11D4F871
:100BA0008C0088420CDD20212E4805F03AFCD4F858
:100BB000680120F00800C4F868010B2004F00CFC68
:100BC000D4F8C00100281EDDD4F8C011D4F8B80054
:100BD00088420BDCD4F8C011D4F8BC00884205DC94
:100BE000D4F8C011D4F8C00088420CDD40211D4863
:100BF00005F017FCD4F86C0120F00400C4F86C0177
:100C0000142004F0E9FBD4F8C80100281EDDD4F854
:100C1000C811D4F8B80088420BDCD4F8C811D4F855
:100C2000BC00884205DCD4F8C811D4F8C000884262
:100C30000CDD40210B4805F0F4FBD4F86C0120F0EA
:100C40000400C4F86C01162004F0C6FBD4F8C401FB
:100C5000002822DDD4F8C411D4F8C40088420FDC87
:100C600002E0000000180240D4F8C411D4F8C80013
:100C7000884205DCD4F8C411D4F8CC0088420CDDDD
:100C80004021FE4805F0CDFBD4F86C0120F00400B3
:100C9000C4F86C01152004F09FFBD4F8CC010028A7
:100CA0001EDDD4F8CC11D4F8C40088420BDCD4F893
:100CB000CC11D4F8C800884205DCD4F8CC11D4F8A3
:100CC000CC0088420CDD4021EC4805F0AAFBD4F8AA
:100CD0006C0120F00400C4F86C01172004F07CFBC8
:100CE000D4F8B001002812DDD4F8B011D4F8A8006F
:100CF00088420CDD8021E14805F093FBD4F86801BF
:100D000020F01000C4F86801102004F065FBD4F84E
:100D1000B401002812DDD4F8B411D4F8AC00884234
:100D20000CDD8021D54805F07CFBD4F8680120F06B
:100D30001000C4F86801112004F04EFBD4F8B8018B
:100D4000002813DDD4F8B811D4F8B00088420DDDC6
:100D50004FF48071C94805F064FBD4F8680120F0B5
:100D60002000C4F86801122004F036FBD4F8BC015E
:100D7000002813DDD4F8BC11D4F8B40088420DDD8E
:100D80004FF48071BD4805F04CFBD4F8680120F0A9
:100D90002000C4F86801132004F01EFBD4F8E00121
:100DA00000281FDDD4F8E011D4F8E00088420BDC05
:100DB000D4F8E011D4F8E400884205DCD4F8E0115E
:100DC000D4F8E80088420DDD4FF40071AB4805F01F
:100DD00028FBD4F86C0120F00800C4F86C011C203A
:100DE00004F0FAFAD4F8E80100281FDDD4F8E8117D
:100DF000D4F8E00088420BDCD4F8E811D4F8E40021
:100E0000884205DCD4F8E811D4F8E80088420DDD0A
:100E10004FF40071994805F004FBD4F86C0120F000
:100E20000800C4F86C011E2004F0D6FAD4F8E401DE
:100E300000281FDDD4F8E411D4F8EC0088420BDC64
:100E4000D4F8E411D4F8F000884205DCD4F8E411B9
:100E5000D4F8F40088420DDD4FF40071874805F0A6
:100E6000E0FAD4F86C0120F00800C4F86C011D20F1
:100E700004F0B2FAD4F8EC0100281FDDD4F8EC112C
:100E8000D4F8EC0088420BDCD4F8EC11D4F8F00074
:100E9000884205DCD4F8EC11D4F8F40088420DDD6A
:100EA0004FF40071754805F0BCFAD4F86C0120F0DD
:100EB0000800C4F86C011F2004F08EFAD4F8D001A9
:100EC000002813DDD4F8D011D4F8D00088420DDD0D
:100ED0004FF48061694805F0A4FAD4F8680120F065
:100EE0004000C4F86801182004F076FAD4F8D40160
:100EF000002813DDD4F8D411D4F8D40088420DDDD5
:100F00004FF480615D4805F08CFAD4F8680120F058
:100F10004000C4F86801192004F05EFAD4F8D80142
:100F2000002813DDD4F8D811D4F8D80088420DDD9C
:100F30004FF40061514805F074FAD4F8680120F0CC
:100F40008000C4F868011A2004F046FAD4F8DC01E5
:100F5000002813DDD4F8DC11D4F8DC0088420DDD64
:100F60004FF40061454805F05CFAD4F8680120F0C0
:100F70008000C4F868011B2004F02EFAD4F80002A7
:100F800000281FDDD4F80012D4F8080188420BDCD9
:100F9000D4F80012D4F80C01884205DCD4F8001211
:100FA000D4F8100188420DDD4FF48051334805F02C
:100FB00038FAD4F86C0120F01000C4F86C01242039
:100FC00004F00AFAD4F8080200281FDDD4F8081249
:100FD000D4F8080188420BDCD4F80812D4F80C01CC
:100FE000884205DCD4F80812D4F8100188420DDDDF
:100FF0004FF48051214805F014FAD4F86C0120F028
:101000001000C4F86C01262004F0E6F9D4F80402BC
:1010100000281FDDD4F80412D4F8140188420BDC38
:10102000D4F80412D4F81801884205DCD4F804126C
:10103000D4F81C0188420DDD4FF480510F4805F0B3
:10104000F0F9D4F86C0120F01000C4F86C012520F0
:1010500004F0C2F9D4F80C02002823DDD4F80C12F5
:10106000D4F8140188420FDCD4F80C12D4F818011B
:10107000884209DCD4F80C1202E00000001802409B
:10108000D4F81C0188420DDD4FF48051AE4805F0C4
:10109000C8F9D4F86C0120F01000C4F86C012720C6
:1010A00004F09AF9D4F8F001002813DDD4F8F01117
:1010B000D4F8F80088420DDD4FF40051A24805F045
:1010C000B0F9D4F8680120F48070C4F868012020D9
:1010D00004F082F9D4F8F401002813DDD4F8F411F7
:1010E000D4F8FC0088420DDD4FF40051964805F01D
:1010F00098F9D4F8680120F48070C4F868012120C0
:1011000004F06AF9D4F8F801002813DDD4F8F811D6
:10111000D4F8000188420DDD4FF480418A4805F083
:1011200080F9D4F8680120F40070C4F86801222026
:1011300004F052F9D4F8FC01002813DDD4F8FC11B6
:10114000D4F8040188420DDD4FF480417E4805F05B
:1011500068F9D4F8680120F40070C4F8680123200D
:1011600004F03AF9D4F8200200281FDDD4F8201248
:10117000D4F8300188420BDCD4F82012D4F83401C2
:10118000884205DCD4F82012D4F8380188420DDDFD
:101190004FF400416C4805F044F9D4F86C0120F09C
:1011A0002000C4F86C012C2004F016F9D4F82802B1
:1011B00000281FDDD4F82812D4F8300188420BDC57
:1011C000D4F82812D4F83401884205DCD4F8281267
:1011D000D4F8380188420DDD4FF400415A4805F03B
:1011E00020F9D4F86C0120F02000C4F86C012E2006
:1011F00004F0F2F8D4F8240200281FDDD4F82412F9
:10120000D4F83C0188420BDCD4F82412D4F8400115
:10121000884205DCD4F82412D4F8440188420DDD5C
:101220004FF40041484805F0FCF8D4F86C0120F078
:101230002000C4F86C012D2004F0CEF8D4F82C0264
:1012400000281FDDD4F82C12D4F83C0188420BDCB6
:10125000D4F82C12D4F84001884205DCD4F82C12C2
:10126000D4F8440188420DDD4FF40041364805F0C2
:10127000D8F8D4F86C0120F02000C4F86C012F20BD
:1012800004F0AAF8D4F81002002813DDD4F81012E4
:10129000D4F8200188420DDD4FF480512B4805F031
:1012A000C0F8D4F8680120F48060C4F868012820F0
:1012B00004F092F8D4F81402002813DDD4F81412C4
:1012C000D4F8240188420DDD4FF480511F4805F009
:1012D000A8F8D4F8680120F48060C4F868012920D7
:1012E00004F07AF8D4F81802002813DDD4F81812A4
:1012F000D4F8280188420DDD4FF40051134805F061
:1013000090F8D4F8680120F40060C4F868012A203D
:1013100004F062F8D4F81C02002813DDD4F81C1283
:10132000D4F82C0188420DDD4FF40051074805F038
:1013300078F8D4F8680120F40060C4F868012B2024
:1013400004F04AF810BD00000018024000040240FA
:1013500010B50121014804F078FA10BD30000020DA
:101360002DE9F04102460025002600270023002039
:10137000141E01DBA44601E0C4F1000C0FFA8CF04E
:101380000A2490FBF4FC04FB1C0590FBF4F44FF0E2
:101390000A0C94FBFCF80CFB184426B2642490FB66
:1013A000F4F494FBFCF80CFB184427B24FF47A7465
:1013B00090FBF4F423B203B90A230C4C34F8134025
:1013C000DFF82CC0ACF81040084C34F817400C4340
:1013D000ACF81240054C34F81640ACF81440034CFD
:1013E00034F81540ACF81640BDE8F0818878000864
:1013F000CC1C00202DE9F0410246002600270023E6
:1014000000240020151E01DBAC4601E0C5F1000CF4
:101410000FFA8CF00A2590FBF5FC05FB1C0690FBEF
:10142000F5F54FF00A0C95FBFCF80CFB18552FB2A4
:10143000642590FBF5F595FBFCF80CFB18552BB2D9
:101440004FF47A7590FBF5F52CB214B903B90A2361
:101450000A240C4D35F81450DFF82CC0ACF80050BD
:10146000084D35F81350ACF80250064D35F81750BA
:101470000D43ACF80450034D35F81650ACF8065047
:10148000BDE8F08188780008CC1C00202DE9F041EF
:10149000024600250026002700230020141E01DB41
:1014A000A44601E0C4F1000C0FFA8CF00A2490FB72
:1014B000F4FC04FB1C0590FBF4F44FF00A0C94FBC5
:1014C000FCF80CFB184426B2642490FBF4F494FB63
:1014D000FCF80CFB184427B24FF47A7490FBF4F438
:1014E00023B203B90A230C4C34F81340DFF82CC0A4
:1014F000ACF81840084C34F817400C43ACF81A40CC
:10150000054C34F81640ACF81C40034C34F8154038
:10151000ACF81E40BDE8F08188780008CC1C0020A3
:101520002DE9F04102460026002700230024002078
:10153000151E01DBAC4601E0C5F1000C0FFA8CF082
:101540000A2590FBF5FC05FB1C0690FBF5F54FF01A
:101550000A0C95FBFCF80CFB18552FB2642590FB88
:10156000F5F595FBFCF80CFB18552BB24FF47A758A
:1015700090FBF5F52CB214B903B90A230A240C4DDB
:1015800035F81450DFF82CC0ACF80850084D35F889
:101590001350ACF80A50064D35F817500D43ACF80F
:1015A0000C50034D35F81650ACF80E50BDE8F081E4
:1015B00088780008CC1C00202DE9F0410246002567
:1015C0000026002700230020141E01DBA44601E0B2
:1015D000C4F1000C0FFA8CF00A2490FBF4FC04FB1D
:1015E0001C0590FBF4F44FF00A0C94FBFCF80CFB88
:1015F000184426B2642490FBF4F494FBFCF80CFB32
:10160000184427B24FF47A7490FBF4F423B203B970
:101610000A230C4C34F81340DFF82CC0ACF800401F
:10162000084C34F817400C43ACF80240054C34F831
:101630001640ACF80440034C34F81540ACF80640B2
:10164000BDE8F08188780008AC1C00202DE9F0414D
:10165000024600260027002300240020151E01DB7F
:10166000AC4601E0C5F1000C0FFA8CF00A2590FBA6
:10167000F5FC05FB1C0690FBF5F54FF00A0C95FBFD
:10168000FCF80CFB18552FB2642590FBF5F595FB83
:10169000FCF80CFB18552BB24FF47A7590FBF5F55E
:1016A0002CB214B903B90A230A240C4D35F814508E
:1016B000DFF82CC0ACF80050084D35F81350ACF8EA
:1016C0000250064D35F817500D43ACF80450034D49
:1016D00035F81650ACF80650BDE8F081887800085F
:1016E0008C1C00202DE9F041024600250026002731
:1016F00000230020141E01DBA44601E0C4F1000C0D
:101700000FFA8CF00A2490FBF4FC04FB1C0590FB00
:10171000F4F44FF00A0C94FBFCF80CFB184426B2CE
:10172000642490FBF4F494FBFCF80CFB184427B2FF
:101730004FF47A7490FBF4F423B203B90A230C4CEF
:1017400034F81340DFF82CC0ACF80840084C34F8EB
:1017500017400C43ACF80A40054C34F81640ACF87E
:101760000C40034C34F81540ACF80E40BDE8F08155
:1017700088780008AC1C00202DE9F04102460026C4
:101780000027002300240020151E01DBAC4601E0E9
:10179000C5F1000C0FFA8CF00A2590FBF5FC05FB57
:1017A0001C0690FBF5F54FF00A0C95FBFCF80CFBC2
:1017B00018552FB2642590FBF5F595FBFCF80CFB52
:1017C00018552BB24FF47A7590FBF5F52CB214B97D
:1017D00003B90A230A240C4D35F81450DFF82CC045
:1017E000ACF80850084D35F81350ACF80A50064DC7
:1017F00035F817500D43ACF80C50034D35F8165022
:10180000ACF80E50BDE8F081887800088C1C0020F0
:101810002DE9F04102460025002600270023002084
:10182000141E01DBA44601E0C4F1000C0FFA8CF099
:101830000A2490FBF4FC04FB1C0590FBF4F44FF02D
:101840000A0C94FBFCF80CFB184426B2642490FBB1
:10185000F4F494FBFCF80CFB184427B24FF47A74B0
:1018600090FBF4F423B203B90A230C4C34F8134070
:10187000DFF82CC0ACF81040084C34F817400C438B
:10188000ACF81240054C34F81640ACF81440034C48
:1018900034F81540ACF81640BDE8F08188780008AF
:1018A000AC1C00202DE9F041024600260027002351
:1018B00000240020151E01DBAC4601E0C5F1000C40
:1018C0000FFA8CF00A2590FBF5FC05FB1C0690FB3B
:1018D000F5F54FF00A0C95FBFCF80CFB18552FB2F0
:1018E000642590FBF5F595FBFCF80CFB18552BB225
:1018F0004FF47A7590FBF5F52CB214B903B90A23AD
:101900000A240C4D35F81450DFF82CC0ACF81050F8
:10191000084D35F81350ACF81250064D35F81750F5
:101920000D43ACF81450034D35F81650ACF8165072
:10193000BDE8F081887800088C1C002010B50446B2
:1019400014B1012C38D11BE02023022201211C48B4
:1019500004F0DFFD202302220021194804F008FED4
:101960002021174804F05DFD40F2EE2000F092FACD
:101970002021134804F057FD0F2000F08BFA1CE0E3
:101980001023022201210E4804F0C3FD102302227D
:1019900000210B4804F0ECFD1021094804F041FD42
:1019A00040F2EE2000F076FA1021054804F03BFDED
:1019B0000F2000F06FFA00E000BF00BF002010BD54
:1019C0000008024070B50546002415B1012D60D114
:1019D0002FE0202302220021304804F09AFD20232A
:1019E000022200212D4804F0C3FD04E0012000F094
:1019F00051FA601CC4B22021284804F082FD08B1CD
:101A0000C82CF3DBC82C01DB012070BD002404E0EE
:101A1000012000F03FFA601CC4B220211F4804F0EE
:101A200070FD08B9F02CF3DBF02C01DB0120ECE7B2
:101A300030E0102302220021184804F06AFD102330
:101A400002220021154804F093FD04E0012000F07B
:101A500021FA601CC4B21021104804F052FD08B1F4
:101A6000C82CF3DBC82C01DB0120CEE7002404E006
:101A7000012000F00FFA601CC4B21021074804F0E6
:101A800040FD08B9F02CF3DBF02C01DB0120BCE7B2
:101A900000E000BF00BF0020B7E7000000080240E0
:101AA00070B52DED048B00262948007810B101286F
:101AB00012D000BF0020274908700120FFF73EFF29
:101AC0000120FFF77FFFCC21012000F07BF94421AA
:101AD000012000F077F92AE00120FFF72FFF012015
:101AE000FFF770FFCC21012000F06CF9BE2101202E
:101AF00000F068F9012000F0B7F80546012000F079
:101B0000B3F8044645EA042005F06DFC41EC190BDE
:101B10009FED110B53EC102B05F07CFC41EC180BE6
:101B200005F034FC86B201200A49087000BF00BFEE
:101B300007480078401C06490870084600780128CC
:101B400001DD002008703046BDEC048B70BD000044
:101B50006B00002065000020000000000000E43F52
:101B600010B52DED048B00242B48007810B101280E
:101B700011D000BF002029490870FFF7DFFE0020C8
:101B8000FFF720FFCC21002000F01CF944210020A9
:101B900000F018F930E00020FFF7D0FE0020FFF73A
:101BA00011FFCC21002000F00DF9BE21002000F033
:101BB00009F9002000F058F819490870002000F0D9
:101BC00053F81849087016490978164A127841EAFC
:101BD000022005F008FC41EC190B9FED130B53ECB0
:101BE000102B05F017FC41EC180B05F0CFFB84B26D
:101BF00001200A49087000BF00BF07480078401C58
:101C00000549087008460078012801DD00200870A9
:101C10002046BDEC048B10BD68000020640000204D
:101C20006A00002069000020000000000000E43F7E
:101C300010B51023022201210A4804F06AFC102387
:101C400002220021074804F093FC202302220121F4
:101C5000044804F05EFC202302220021014804F025
:101C600087FC10BD0008024070B50646002516B17D
:101C7000012E79D13BE0002436E02023022201210D
:101C80003B4804F046FC202302220021384804F09F
:101C90006FFC2021364804F0C4FB022000F0FAF863
:101CA0002021334804F0BFFB2023022200213048CA
:101CB00004F02FFC2023022200212D4804F058FCC0
:101CC0000C2000F0E7F86D102021294804F019FCE1
:101CD00008B145F08005322000F0DCF820212448CE
:101CE00004F0A1FB601CC4B2082CC6DB3DE000245C
:101CF00036E01023022201211D4804F00AFC1023C3
:101D0000022200211A4804F033FC1021184804F084
:101D100088FB022000F0BEF81021154804F083FB78
:101D2000102302220021124804F0F3FB10230222A8
:101D300000210F4804F01CFC0C2000F0ABF86D10E3
:101D400010210B4804F0DDFB08B145F0800532207E
:101D500000F0A0F81021064804F065FB601CC4B236
:101D6000082CC6DB01E0FFE700BF00BF284670BDBE
:101D70000008024070B50446002514B1012C08D1BA
:101D800003E0FFF7EDFE054604E0FFF789FE054698
:101D900000E000BF00BF284670BD000001460020E3
:101DA00011B1012906D102E0044A107803E0044A87
:101DB000107800E000BF00BF704700006400002002
:101DC0006500002070B506460D4616B1012E5CD1A7
:101DD0002DE02023022201212D4804F09AFB20232C
:101DE000022200212A4804F0C3FB00241CE0202129
:101DF000274804F016FB022000F04CF805F0010023
:101E000020B12021224804F00EFB03E020212048CD
:101E100004F007FB3C2000F03DF820211C4804F0B2
:101E200002FB6D10601CC4B2082CE0DB2EE0102316
:101E300002220121164804F06CFB1023022200212B
:101E4000134804F095FB00241CE01021104804F016
:101E5000E8FA022000F01EF805F0010020B1102180
:101E60000B4804F0E0FA03E01021094804F0D9FA25
:101E70003C2000F00FF81021054804F0D4FA6D1052
:101E8000601CC4B2082CE0DB00E000BF00BF70BDE6
:101E90000008024001B5002005E0002100E0491CD7
:101EA0002429FCDB401C009A9042F6D308BD01B502
:101EB00005E0002001E0411C88B20828FBDB009906
:101EC0004A1E00920029F4D108BD70B504460025D1
:101ED00003F0DCF905462C6070BD000010B58021D0
:101EE00042F2B820FFF7B2FB802142F2B820FFF7A0
:101EF00043FC802142F2B820FFF7D4FC802142F25B
:101F0000B820FFF759FB802142F2B820FFF7EAFB27
:101F1000802142F2B820FFF77BFC802142F2B820FA
:101F2000FFF768FA802142F2B820FFF7F9FA802122
:101F300042F2B820FFF714FA802142F2B820FFF7EE
:101F4000A5FA0649002003F037FB0549012003F0FC
:101F500033FB0449022003F02FFB10BD8C1C002032
:101F6000AC1C0020CC1C002070B5002403F08EF9BE
:101F7000044654F8300F0A2190FBF1F005B280219D
:101F80002846FFF763FB0A21606890FBF1F005B279
:101F900080212846FFF7F0FB0A21A06890FBF1F0B2
:101FA00005B280212846FFF77DFCA18908B2802177
:101FB000FFF702FB218A08B28021FFF793FBA18A79
:101FC00008B28021FFF724FC0A21A06990FBF1F000
:101FD00005B280212846FFF70DFA0A21206A90FBFE
:101FE000F1F005B280212846FFF79AFAA18B08B2DA
:101FF0008021FFF7B5F9A18C303C08B28021FFF7B2
:1020000045FA70BD10B503F095FAFFF7ADFF0C4926
:10201000002003F0D1FA0B49012003F0CDFA0A4960
:10202000022003F0C9FA02F08DFF0446002C03DD04
:102030000420FFF74AFF02E00320FFF746FF10BD30
:102040008C1C0020AC1C0020CC1C002070B5054668
:102050000C4615B1012D23D10FE02246022148077D
:1020600004F0C1FE60220221480704F08FFE002226
:102070000221480704F0CAFE13E0224603214FF074
:10208000804004F0B0FE602203214FF0804004F055
:102090007DFE002203214FF0804004F0B7FE00E0F7
:1020A00000BF00BF70BD0000F0B5A1B0002603F076
:1020B000EDF804462C2116A8FEF71AF92C2116A8D3
:1020C000FEF716F92C21FB48FEF712F92C210BA87C
:1020D000FEF70EF92C216846FEF70AF96421F6484E
:1020E000FEF769F91E267FE1F248006806EB46011B
:1020F00001EBC601F04A52F82110884202D9ED489E
:10210000006806E006EB460000EBC600EA4951F81D
:102110002000E84908600846406806EB460101EBEC
:10212000C601E54A02EB81014968884202D9E148CB
:10213000406807E006EB460000EBC600DE4901EB15
:1021400080004068DB4948600846806806EB46012D
:1021500001EBC601D84A02EB81018968884202D9A5
:10216000D448806807E006EB460000EBC600D24981
:1021700001EB80008068CF4988600846C06806EBA4
:10218000460101EBC601CC4A02EB8101C9688842D5
:1021900002D9C848C06807E006EB460000EBC6005D
:1021A000C54901EB8000C068C249C86008460069A3
:1021B00006EB460101EBC601BF4A02EB810109694A
:1021C000884202D9BB48006907E006EB460000EBF5
:1021D000C600B94901EB80000069B64908610846AC
:1021E000406906EB460101EBC601B34A02EB8101EF
:1021F0004969884202D9AF48406907E006EB4600CA
:1022000000EBC600AC4901EB80004069A949486178
:102210000846806906EB460101EBC601A64A02EBBF
:1022200081018969884202D9A248806907E006EBEA
:10223000460000EBC600A04901EB800080699D4983
:1022400088610846C06906EB460101EBC6019A4A5F
:1022500002EB8101C969884202D99648C06907E04A
:1022600006EB460000EBC600934901EB8000C06915
:102270009049C8610846006A06EB460101EBC601B9
:102280008D4A02EB8101096A884202D98948006AB5
:1022900007E006EB460000EBC600874901EB800033
:1022A000006A844908620846406A06EB460101EB71
:1022B000C601814A02EB8101496A884202D97D4800
:1022C000406A07E006EB460000EBC6007A4901EBE6
:1022D0008000406A774948620846806A06EB4601FA
:1022E00001EBC601744A02EB8101896A884202D976
:1022F0007048806A07E006EB460000EBC6006E49B6
:1023000001EB8000806A6B49886206EB460101EBB5
:10231000C601694A52F8211016980844169006EB37
:10232000460101EBC60102EB810117984968084498
:10233000179006EB460101EBC60102EB81011898EC
:1023400089680844189006EB460101EBC60102EBD0
:1023500081011998C9680844199006EB460101EB00
:10236000C60102EB81011A98096908441A9006EB2C
:10237000460101EBC60102EB81011B984969084443
:102380001B9006EB460101EBC60102EB81011C9894
:10239000896908441C9006EB460101EBC60102EB7B
:1023A00081011D98C96908441D9006EB460101EBA7
:1023B000C60102EB81011E98096A08441E9006EBD3
:1023C000460101EBC60102EB81011F98496A0844EE
:1023D0001F9006EB460101EBC60102EB810120983C
:1023E000896A08442090761C462EFFF67DAE28218F
:1023F0001698B0FBF1F016901798B0FBF1F017901B
:102400001898B0FBF1F018901998B0FBF1F0199002
:102410001A98B0FBF1F01A901B98B0FBF1F01B90EA
:102420001C98B0FBF1F01C901D98B0FBF1F01D90D2
:102430001E98B0FBF1F01E901F98B0FBF1F01F90BA
:102440002098B0FBF1F0209001F080FC05461B487D
:1024500000680A2870DA05EB450000EBC500184952
:1024600051F820001699884207D905EB450000EB8A
:10247000C500134951F8200000E0169805EB45010E
:1024800001EBC5010E4A42F8210005EB450000EBC7
:10249000C500114601EB800040681799884211D9A8
:1024A00005EB450000EBC500114601EB80004068DC
:1024B00009E000009015002060040020400000208A
:1024C000E8150020179805EB450101EBC501FA4A14
:1024D00002EB8101486005EB450000EBC5001146A9
:1024E00001EB800080681899884208D905EB450007
:1024F00000EBC500114601EB8000806800E01898F1
:1025000005EB450101EBC501EB4A02EB8101886057
:1025100005EB450000EBC500114601EB8000C068EB
:102520001999884209D905EB450000EBC500114611
:1025300001EB8000C06801E0D9E0199805EB450186
:1025400001EBC501DC4A02EB8101C86005EB4500E7
:1025500000EBC500114601EB800000691A99884222
:1025600008D905EB450000EBC500114601EB8000E2
:10257000006900E01A9805EB450101EBC501CE4A60
:1025800002EB8101086105EB450000EBC500114637
:1025900001EB800040691B99884208D905EB450092
:1025A00000EBC500114601EB8000406900E01B987C
:1025B00005EB450101EBC501BF4A02EB8101486112
:1025C00005EB450000EBC500114601EB800080697A
:1025D0001C99884208D905EB450000EBC50011465F
:1025E00001EB8000806900E01C9805EB450101EBE0
:1025F000C501B14A02EB8101886105EB450000EBA2
:10260000C500114601EB8000C0691D99884208D9B8
:1026100005EB450000EBC500114601EB8000C069E9
:1026200000E01D9805EB450101EBC501A24A02EB54
:102630008101C86105EB450000EBC500114601EBC7
:102640008000006A1E99884208D905EB450000EB1E
:10265000C500114601EB8000006A00E01E9805EB02
:10266000450101EBC501944A02EB8101086205EBCB
:10267000450000EBC500114601EB8000406A1F9940
:10268000884208D905EB450000EBC500114601EB77
:102690008000406A00E01F9805EB450101EBC50191
:1026A000854A02EB8101486205EB450000EBC5005D
:1026B000114601EB8000806A2099884208D905EB19
:1026C000450000EBC500114601EB8000806A00E088
:1026D000209805EB450101EBC501774A02EB81012A
:1026E000886276480068401C74490860FDE302F087
:1026F000CDFD0746082D6FD2DFE815F0910549079B
:102700006D066A08080067045502820344F25061AE
:10271000D7F86802884247DDD7F86C02884243DD6B
:10272000D7F8700288423FDD1698B0F5FA7F08D2DC
:102730009FED630A8DED0B0A9FED610A8DED000A96
:1027400007E09FED600A8DED0B0A9FED5F0A8DEDAE
:10275000000A1798B0F5FA7F08D29FED590A8DED5F
:102760000C0A9FED570A8DED010A07E09FED570A0D
:102770008DED0C0A9FED560A8DED010A1898B0F503
:10278000FA7F08D29FED4E0A8DED0D0A9FED4C0A9F
:102790008DED020AFEE09FED4F0A8DED0D0A9FEDD3
:1027A0004E0A8DED020AF5E042F22831B8698842FE
:1027B00046DDF869884243DD386A884240DD169874
:1027C000B0F5FA7F09D29FED3E0A8DED0B0A9FED21
:1027D0003C0A8DED000A08E0F6E39FED400A8DED1E
:1027E0000B0A9FED3F0A8DED000A1798B0F5FA7FAE
:1027F00008D29FED330A8DED0C0A9FED310A8DED65
:10280000010A07E09FED370A8DED0C0A9FED360AAD
:102810008DED010A1898B0F5FA7F08D29FED280ACD
:102820008DED0D0A9FED260A8DED020AB2E09FEDB7
:102830002F0A8DED0D0A9FED2E0A8DED020AA9E0FB
:1028400044F620613869884265DD1698B0F5FA7F54
:1028500008D29FED1B0A8DED0B0A9FED190A8DED35
:10286000000A07E09FED230A8DED0B0A9FED220A77
:102870008DED000A1798B0F5FA7F08D29FED100A87
:102880008DED0C0A9FED0E0A8DED010A07E09FED1C
:102890001B0A8DED0C0A9FED1A0A8DED010A18989E
:1028A000B0F5FA7F2ED29FED060A8DED0D0A9FED51
:1028B000040A8DED020A6DE0E815002040000020BA
:1028C000000000008B6C0142009469C6B072FA41AE
:1028D00000205CC66ABCFC41001064C6D1220042E4
:1028E000003C61C60000004200005DC66F12FD4161
:1028F00000705DC69CC4FF4100CC60C654E3F84143
:1029000000DC56C69FEDFE0A8DED0D0A9FEDFD0A17
:102910008DED020A3EE01698B0F5FA7F08D21FED61
:10292000180A8DED0B0A1FED1A0A8DED000A07E05B
:102930001FED100A8DED0B0A1FED110A8DED000A37
:102940001798B0F5FA7F08D21FED230A8DED0C0A17
:102950001FED250A8DED010A07E01FED180A8DED28
:102960000C0A1FED190A8DED010A1898B0F5FA7FCF
:1029700008D21FED2D0A8DED0D0A1FED2F0A8DEDEA
:10298000020A07E09FEDDE0A8DED0D0A9FEDDD0ADC
:102990008DED020A1698B0F5FA7F10D394F86C0109
:1029A00000F03F0058B11998442808D99FEDD60A85
:1029B0008DED0E0A9FEDD50A8DED030A07E01FEDA0
:1029C000400A8DED0E0A1FED420A8DED030A17989D
:1029D000B0F5FA7F10D394F86C0100F03F0058B1C5
:1029E0001A98442808D99FEDCA0A8DED0F0A9FED69
:1029F000C90A8DED040A07E01FED4F0A8DED0F0A9D
:102A00001FED510A8DED040A1898B0F5FA7F10D326
:102A100094F86C0100F03F0058B11B98442808D985
:102A20009FEDBD0A8DED100A9FEDBC0A8DED050AE4
:102A300007E01FED5D0A8DED100A1FED5F0A8DEDB9
:102A4000050A40F2EE211C98884208D21FED640A64
:102A50008DED110A1FED660A8DED060A07E09FED68
:102A6000B00A8DED110A9FEDAF0A8DED060A40F216
:102A7000EE211C9888422AD340F25551D4F86801BF
:102A8000084020B394F8680100F01500B0B1B4F824
:102A9000680100F4A86040B19FEDA30A8DED120A11
:102AA0009FEDA20A8DED070A19E09FEDA10A8DEDB9
:102AB000120A9FEDA00A8DED070A10E09FED9E0A15
:102AC0008DED120A9FED9D0A8DED070A07E01FEDBF
:102AD000840A8DED120A1FED860A8DED070A1E98F5
:102AE000B0F5487F08D21FED8A0A8DED130A1FED5D
:102AF0008C0A8DED080A07E09FED910A8DED130A0F
:102B00009FED900A8DED080A1E98B0F5487F2AD3F4
:102B100040F6AA21D4F86801084020B394F868016F
:102B200000F02A00B0B1B4F8680100F4286040B1A8
:102B30009FED7D0A8DED140A9FED7C0A8DED090A4B
:102B400019E09FED810A8DED140A9FED800A8DED4D
:102B5000090A10E09FED7E0A8DED140A9FED7D0AB3
:102B60008DED090A07E01FEDAA0A8DED140A1FED8D
:102B7000AC0A8DED090A42F22831D4F87802884275
:102B800008DA9FED750A8DED150A9FED740A8DED3B
:102B90000A0A07E01FEDB60A8DED150A1FEDB80A07
:102BA0008DED0A0A0FE21FEDBA0A8DED0B0A1FED3B
:102BB000BC0A8DED0C0A1FEDBE0A8DED0D0A1FED4E
:102BC000C00A8DED000A1FEDC20A8DED010A1FED4E
:102BD000C40A8DED020A206B002810DD94F86C0108
:102BE00000F0010058B11998442808D99FED5C0AFB
:102BF0008DED0E0A9FED5B0A8DED030A07E01FEDD8
:102C0000D00A8DED0E0A1FEDD20A8DED030A606B1E
:102C1000002810DD94F86C0100F0010058B11A98FA
:102C2000442808D99FED500A8DED0F0A9FED4F0AF9
:102C30008DED040A07E01FEDDE0A8DED0F0A1FED92
:102C4000E00A8DED040AA06B002810DD94F86C01F9
:102C500000F0010058B11B98442808D99FED440AA0
:102C60008DED100A9FED430A8DED050A07E01FED7B
:102C7000EC0A8DED100A1FEDEE0A8DED050AA06C31
:102C800000281ADD94F8680100F00100A8B140F2B4
:102C9000EE211C98884210D99FED370A8DED110A5C
:102CA0009FED360A8DED060A9FED350A8DED120A6D
:102CB0009FED340A8DED070A0FE09FED330A8DED8D
:102CC000110A9FED310A8DED060A9FED2F0A8DED59
:102CD000120A9FED2D0A8DED070A206D002864DD94
:102CE00094F8680100F0020040B11E98B0F5487FEA
:102CF0005BD99FED260A8DED130A49E055E00000EF
:102D000046B6F74100C058C6696F303FC1CA41BFDF
:102D100044FA1D3F91ED5CC0DAAC1A3F250661C054
:102D2000A7798F3F00104AC48273663F12141FBFF9
:102D3000857CE83FC5209EC05452D73FC44225C081
:102D4000B68410409A394AC439B4A83FE8D988C03B
:102D5000DBF9C63F257552C0363C1D3FAE372DC44A
:102D60007A362B3FB0723EC123DB293F0456F4C0B4
:102D70007F6A2C3FD712DEC02C65913F714D4FC446
:102D80001B0DE03F682228C0000000002FDD10402E
:102D90009FEDFA0A8DED080A9FEDF90A8DED140AF0
:102DA0009FEDF80A8DED090A0FE01FED090A8DED80
:102DB000130A1FED0B0A8DED080A1FED0D0A8DEDAC
:102DC000140A1FED0F0A8DED090A2098B0F5FA7F5D
:102DD0000DD344F620613869884208DA9FEDEA0A8B
:102DE0008DED150A9FEDE90A8DED0A0A07E01FED4A
:102DF0001A0A8DED150A1FED1C0A8DED0A0AE2E094
:102E00001FED1F0A8DED0B0A1FED210A8DED0C0A37
:102E10001FED230A8DED0D0A1FED250A8DED000A29
:102E20001FED270A8DED010A1FED290A8DED020A1B
:102E3000206B002810DD94F86C0100F0020058B1FE
:102E40001998442808D99FEDD20A8DED0E0A9FEDFE
:102E5000D10A8DED030A07E01FED350A8DED0E0A4C
:102E60001FED370A8DED030A606B002810DD94F822
:102E70006C0100F0020058B11A98442808D99FED5F
:102E8000C60A8DED0F0A9FEDC50A8DED040A07E015
:102E90001FED430A8DED0F0A1FED450A8DED040A63
:102EA000A06B002810DD94F86C0100F0020058B10E
:102EB0001B98442808D99FEDBA0A8DED100A9FEDA2
:102EC000B90A8DED050A07E01FED510A8DED100AD4
:102ED0001FED530A8DED050AA06C00281CDD94F847
:102EE000680100F00400B8B100E0F7E340F2EE2121
:102EF0001C98884210D99FEDAC0A8DED110A9FED08
:102F0000AB0A8DED060A9FEDAA0A8DED120A9FED20
:102F1000A90A8DED070A0FE01FED650A8DED110A74
:102F20001FED670A8DED060A1FED690A8DED120A85
:102F30001FED6B0A8DED070A206D002819DD94F84E
:102F4000680100F00800A0B11E98B0F5487F10D9C4
:102F50001FED850A8DED130A9FED970A8DED080A86
:102F60009FED960A8DED140A9FED950A8DED090AE5
:102F70000FE01FED7B0A8DED130A1FED7D0A8DED2D
:102F8000080A1FED7F0A8DED140A1FED810A8DEDF1
:102F9000090A2098B0F5FA7F0DD344F6206138690C
:102FA000884208DA9FED870A8DED150A9FED860AA3
:102FB0008DED0A0A07E01FED8C0A8DED150A1FED55
:102FC0008E0A8DED0A0A05E2F8E31FED910A8DEDF8
:102FD0000B0A1FED930A8DED0C0A1FED950A8DED7E
:102FE0000D0A1FED970A8DED000A1FED990A8DED70
:102FF000010A1FED9B0A8DED020A206B002810DDEF
:1030000094F86C0100F0040058B11998442808D9CC
:103010009FED6E0A8DED0E0A9FED6D0A8DED030A90
:1030200007E01FEDA70A8DED0E0A1FEDA90A8DED31
:10303000030A606B002810DD94F86C0100F00400B6
:1030400058B11A98442808D99FED620A8DED0F0AED
:103050009FED610A8DED040A07E01FEDB50A8DEDC5
:103060000F0A1FEDB70A8DED040AA06B002810DDD2
:1030700094F86C0100F0040058B11B98442808D95A
:103080009FED560A8DED100A9FED550A8DED050A4C
:1030900007E01FEDC30A8DED100A1FEDC50A8DED87
:1030A000050AA06C00281ADD94F8680100F01000F1
:1030B000A8B140F2EE211C98884210D99FED490A30
:1030C0008DED110A9FED480A8DED060A9FED470A26
:1030D0008DED120A9FED460A8DED070A0FE01FEDF8
:1030E000D60A8DED110A1FEDD80A8DED060A1FEDE7
:1030F000DA0A8DED120A1FEDDC0A8DED070A206D4C
:10310000002819DD94F8680100F02000A0B11E9895
:10311000B0F5487F10D99FED370A8DED130A9FED6A
:10312000360A8DED080A9FED350A8DED140A9FEDE4
:10313000340A8DED090A0FE01FEDED0A8DED130A3B
:103140001FEDEF0A8DED080A1FEDF10A8DED140A4F
:103150001FEDF30A8DED090A2098B0F5FA7F55D3DB
:1031600044F620613869884250DA9FED260A8DEDD9
:10317000150A9FED250A8DED0A0A4FE0AEB74BC444
:103180005B42BE3FCCEE5940B81EE6419AB5F2C54F
:10319000AD692E3FA857F2C0D578293FD49A8AC08E
:1031A000355E2A3F287EE0C0CCEE913F001050C42F
:1031B0009A08DB3F36AB12C09A394BC41DC9B53FE4
:1031C000F8C25C40CFF7DE41CD28EBC5B22E2E3FD2
:1031D000D57871C14ED1313FC1CA9BC14A7B333FC3
:1031E00083C046C1F2B0903F664650C4910FDA3FAB
:1031F000DAAC0ABFEB731140C3454AC43CBDB23FD1
:103200006666AE3F0681DF419AB9EBC59FEDF60ACF
:103210008DED150A9FEDF40A8DED0A0AB4E39FEDDA
:10322000F20A8DED0B0A9FEDF00A8DED0C0A9FED71
:10323000EE0A8DED0D0A9FEDEC0A8DED000A9FED73
:10324000EA0A8DED010A9FEDE80A8DED020A206B76
:10325000002810DD94F86C0100F0080058B11998AE
:10326000442808D99FEDE10A8DED0E0A9FEDE00A92
:103270008DED030A07E09FEDDC0A8DED0E0A9FED50
:10328000DA0A8DED030A606B002810DD94F86C01FA
:1032900000F0080058B11A98442808D99FEDD50AC3
:1032A0008DED0F0A9FEDD40A8DED040A07E09FED26
:1032B000CE0A8DED0F0A9FEDCC0A8DED040AA06BAE
:1032C000002810DD94F86C0100F0080058B11B983C
:1032D000442808D99FEDC90A8DED100A9FEDC80A50
:1032E0008DED050A07E09FEDC00A8DED100A9FEDF8
:1032F000BE0A8DED050AA06C00281ADD94F868015D
:1033000000F04000A8B140F2EE211C98884210D98C
:103310001FED5B0A8DED110A9FEDBA0A8DED060ACD
:103320009FEDB90A8DED120A9FEDB80A8DED070ADF
:103330000FE09FEDAD0A8DED110A9FEDAB0A8DED0B
:10334000060A9FEDA90A8DED120A9FEDA70A8DEDE1
:10335000070A206D002819DD94F8680100F080004C
:10336000A0B11E98B0F5487F10D99FEDA90A8DED48
:10337000130A9FEDA80A8DED080A9FEDA70A8DEDAF
:10338000140A9FEDA60A8DED090A0FE09FED960A3B
:103390008DED130A9FED940A8DED080A9FED920AB8
:1033A0008DED140A9FED900A8DED090AA0690028A1
:1033B00008DD9FED9B0A8DED150A9FED9A0A8DEDB4
:1033C0000A0A07E09FED880A8DED150A9FED860A2F
:1033D0008DED0A0AD8E29FED840A8DED0B0A9FED70
:1033E000820A8DED0C0A9FED800A8DED0D0A9FED8E
:1033F0007E0A8DED000A9FED7C0A8DED010A9FED9E
:103400007A0A8DED020A206B002810DD94F86C0119
:1034100000F0100058B11998442808D99FED820A8D
:103420008DED0E0A9FED810A8DED030A07E09FEDF9
:103430006E0A8DED0E0A9FED6C0A8DED030A606B2E
:10344000002810DD94F86C0100F0100058B11A98B3
:10345000442808D99FED760A8DED0F0A9FED750A75
:103460008DED040A07E09FED600A8DED0F0A9FEDD8
:103470005E0A8DED040AA06B002810DD94F86C0143
:1034800000F0100058B11B98442808D99FED6A0A33
:103490008DED100A9FED690A8DED050A07E09FED9D
:1034A000520A8DED100A9FED500A8DED050AA06CB1
:1034B00000281ADDB4F8680100F48070A8B140F269
:1034C000EE211C98884210D99FED5D0A8DED110AFE
:1034D0009FED5C0A8DED060A9FED5B0A8DED120AE9
:1034E0009FED5A0A8DED070A0FE09FED3F0A8DED23
:1034F000110A9FED3D0A8DED060A9FED3B0A8DED09
:10350000120A9FED390A8DED070A206D002819DD9A
:10351000B4F8680100F40070A0B11E98B0F5487FBF
:1035200010D99FED4B0A8DED130A1FEDDD0A8DEDCD
:10353000080A9FED480A8DED140A9FED470A8DEDAC
:10354000090A0FE09FED280A8DED130A9FED260A68
:103550008DED080A9FED240A8DED140A9FED220AD5
:103560008DED090AE069002808DD9FED3C0A8DED2C
:10357000150A9FED3B0A8DED0A0A07E09FED1A0A36
:103580008DED150A9FED180A8DED0A0AFCE19FEDFD
:10359000160A8DED0B0A9FED140A8DED0C0A9FEDB6
:1035A000120A8DED0D0A9FED100A8DED000A9FEDB8
:1035B0000E0A8DED010A9FED0C0A8DED020A206BBB
:1035C000002853DD94F86C0100F0200058B11998E0
:1035D00044284BD99FED230A8DED0E0A9FED220A58
:1035E0008DED030A4AE041E00000000093A9223F6C
:1035F00032770EC1D26F2F3F5839CAC13789313F58
:1036000033C410C11F354FC4FB3AD83F9D119DBF35
:10361000C7291240E1FA48C46F12B33FD95F56C0C0
:10362000711B054089C15DC219E2183F21B0B2C0CB
:103630009E5E193FE258B1C0A167233F0C0221C131
:103640008AB0913FA4E04CC43EE8D13FF9A014C138
:10365000B68410404013B13F7FD912C1DAACEA3FC3
:103660002DB20CC267D5173F3A2392BF1FED220A35
:103670008DED0E0A1FED240A8DED030A606B002804
:1036800010DD94F86C0100F0200058B11A9844281D
:1036900008D99FEDFE0A8DED0F0A9FEDFD0A8DED15
:1036A000040A07E01FED300A8DED0F0A1FED320A04
:1036B0008DED040AA06B002811DD94F86C0100F078
:1036C000200060B11B98442809D99FEDF20A8DEDC6
:1036D000100A9FEDF10A8DED050A08E023E31FEDC6
:1036E0003E0A8DED100A1FED400A8DED050AA06C13
:1036F00000281ADDB4F8680100F48060A8B140F237
:10370000EE211C98884210D99FEDE40A8DED110A34
:103710009FEDE30A8DED060A9FEDE20A8DED120A98
:103720009FEDE10A8DED070A0FE01FED510A8DEDC7
:10373000110A1FED530A8DED060A1FED550A8DED96
:10374000120A1FED570A8DED070A206D002819DDBA
:10375000B4F8680100F40060A0B11E98B0F5487F8D
:1037600010D99FEDD20A8DED130A9FEDD10A8DED90
:10377000080A9FEDD00A8DED140A9FEDCF0A8DED5A
:10378000090A0FE01FED680A8DED130A1FED6A0AA2
:103790008DED080A1FED6C0A8DED140A1FED6E0AFF
:1037A0008DED090A206A002809DD9FEDC40A8DED20
:1037B000150A9FEDC30A8DED0A0A08E0E3E01FED4C
:1037C000760A8DED150A1FED780A8DED0A0ADBE009
:1037D0001698B0F5FA7F10D21FED7D0A8DED0B0A19
:1037E0001FED7F0A8DED000A1FED810A8DED0E0A97
:1037F0001FED830A8DED030A0FE09FEDB20A8DEDF8
:103800000B0A9FEDB10A8DED000A9FEDB00A8DED18
:103810000E0A9FEDAF0A8DED030A1798B0F5FA7FF7
:1038200010D21FED8F0A8DED0C0A1FED910A8DED60
:10383000010A1FED930A8DED0F0A1FED950A8DED1C
:10384000040A0FE09FED9F0A8DED0C0A9FED9E0A82
:103850008DED010A9FED9D0A8DED0F0A9FED9C0AEB
:103860008DED040A1898B0F5FA7F10D21FEDA20A68
:103870008DED0D0A1FEDA40A8DED020A1FEDA60ABB
:103880008DED100A1FEDA80A8DED050A0FE09FEDE2
:103890008D0A8DED0D0A9FED8C0A8DED020A9FEDCC
:1038A0008D0A8DED100A9FED8C0A8DED050A42F20E
:1038B0002831B869884205DDF869884202DD386A36
:1038C000884203DC1C98B0F5167F10D21FEDBA0AAF
:1038D0008DED110A1FEDBC0A8DED120A1FEDBE0A17
:1038E0008DED060A1FEDC00A8DED070A0FE09FED72
:1038F0007B0A8DED110A9FED7A0A8DED120A9FED7C
:10390000790A8DED060A9FED780A8DED070A1E985B
:10391000B0F5167F10D21FEDCC0A8DED130A1FED06
:10392000CE0A8DED080A1FEDD00A8DED140A1FEDA9
:10393000D20A8DED090A1DE09FED6C0A8DED130A88
:103940009FED6B0A8DED080AB4F8680100F4805011
:1039500040B19FED680A8DED140A9FED670A8DED69
:10396000090A07E01FEDE00A8DED140A1FEDE20AD7
:103970008DED090A1FEDE40A8DED150A1FEDE60A2B
:103980008DED0A0A00E000BF00BF9DED000A5B4814
:10399000006800EE900AF8EE600A9DED0B1A00EE4A
:1039A000810ABCEEC00A554880ED000A9DED010A6F
:1039B000406800EE900AF8EE600A9DED0C1A00EEE9
:1039C000810ABCEEC00A4D4880ED010A9DED020A55
:1039D000806800EE900AF8EE600A9DED0D1A00EE88
:1039E000810ABCEEC00A454880ED020A9DED030A3B
:1039F000C06800EE900AF8EE600A9DED0E1A00EE27
:103A0000810ABCEEC00A3D4880ED030A9DED040A20
:103A1000006900EE900AF8EE600A9DED0F1A00EEC4
:103A2000810ABCEEC00A354880ED040A9DED050A06
:103A3000406900EE900AF8EE600A9DED101A00EE63
:103A4000810ABCEEC00A2D4880ED050A9DED060AEC
:103A5000806900EE900AF8EE600A9DED111A00EE02
:103A6000810ABCEEC00A254880ED060A9DED070AD2
:103A7000C06900EE900AF8EE600A9DED121A00EEA1
:103A8000810ABCEEC00A1D483AE00000E78C183FEE
:103A9000984C95BFC286273F1F85AEC1917E933F4C
:103AA000A47053C4A392D23FC3F598C06D56114081
:103AB0003D5A50C4ACADB03F4772EBC03108FC3F3B
:103AC000D5F823C24E621A42CDDC28C5BDE30840BA
:103AD0002170C6C2295C07401FC59AC2045697418F
:103AE000A301AE4000345CC6A4F0584381262E40AA
:103AF0009A79BEC4CD3B0E3F0A871CC490150020A6
:103B000080ED070A9DED080A006A00EE900AF8EEC3
:103B1000600A9DED131A00EE810ABCEEC00A8448CB
:103B200080ED080A9DED090A406A00EE900AF8EE61
:103B3000600A9DED141A00EE810ABCEEC00A7C48B2
:103B400080ED090A9DED0A0A806A00EE900AF8EEFF
:103B5000600A9DED151A00EE810ABCEEC00A744899
:103B600080ED0A0A9DED000A169800EE900AF8EE24
:103B7000600A9DED0B1A00EE810ABCEEC00A6D488A
:103B800080ED000A9DED010A179800EE900AF8EE0C
:103B9000600A9DED0C1A00EE810ABCEEC00A654871
:103BA00080ED010A9DED020A189800EE900AF8EEE9
:103BB000600A9DED0D1A00EE810ABCEEC00A5D4858
:103BC00080ED020A9DED030A199800EE900AF8EEC6
:103BD000600A9DED0E1A00EE810ABCEEC00A55483F
:103BE00080ED030A9DED040A1A9800EE900AF8EEA3
:103BF000600A9DED0F1A00EE810ABCEEC00A4D4826
:103C000080ED040A9DED050A1B9800EE900AF8EE7F
:103C1000600A9DED101A00EE810ABCEEC00A45480C
:103C200080ED050A9DED060A1C9800EE900AF8EE5C
:103C3000600A9DED111A00EE810ABCEEC00A3D48F3
:103C400080ED060A05EB450101EBC5013A4A02EB9E
:103C500081011D98C969884203D200203549C86195
:103C600018E005EB450101EBC501334A02EB810188
:103C70001D98C969401A00EE100AF8EE400A9DED41
:103C8000121A9DED070A00EE810ABCEEC00A29480F
:103C900080ED070A9DED080A1E9800EE900AF8EEE6
:103CA000600A9DED131A00EE810ABCEEC00A21489D
:103CB00080ED080A05EB450101EBC5011E4A02EB48
:103CC00081011F98496A884203D20020194948623D
:103CD00018E005EB450101EBC501174A02EB810134
:103CE0001F98496A401A00EE100AF8EE400A9DED4E
:103CF000141A9DED090A00EE810ABCEEC00A0D48B7
:103D000080ED090A9DED0A0A209800EE900AF8EE6F
:103D1000600A9DED151A00EE810ABCEEC00A054846
:103D200080ED0A0A00BF00200449087021B0F0BDF0
:103D300090150020BC150020E81500203800002058
:103D400001480068704700004C00002004480068EB
:103D500008B90720704702480068401EFAE70000D3
:103D60005C000020014903C970470000700000207A
:103D700001480068704700005000002010B504465C
:103D80002C2202492046FCF781FA10BDBC15002008
:103D90002DE9F04106460024012701F077FA054697
:103DA00007FA04F03040002804DD0121634802F0E6
:103DB0003AFB15E00121614802F033FBD5F86C01B4
:103DC00020F00100C5F86C01042001F0E5FA05209F
:103DD00001F0E2FA062001F0DFFA072001F0DCFA38
:103DE000641C07FA04F03040002804DD0821534821
:103DF00002F019FB15E00821504802F012FBD5F83B
:103E00006C0120F00200C5F86C010C2001F0C4FA2E
:103E10000D2001F0C1FA0E2001F0BEFA0F2001F0D2
:103E2000BBFA641C07FA04F03040002804DD40218E
:103E3000424802F0F8FA15E04021404802F0F1FA59
:103E4000D5F86C0120F00400C5F86C01142001F0D5
:103E5000A3FA152001F0A0FA162001F09DFA172010
:103E600001F09AFA641C07FA04F03040002805DDDE
:103E70004FF40071314802F0D6FA16E04FF40071A9
:103E80002E4802F0CEFAD5F86C0120F00800C5F8F3
:103E90006C011C2001F080FA1D2001F07DFA1E202B
:103EA00001F07AFA1F2001F077FA641C07FA04F097
:103EB0003040002805DD4FF48051204802F0B3FA6D
:103EC00016E04FF480511D4802F0ABFAD5F86C01B2
:103ED00020F01000C5F86C01242001F05DFA2520C7
:103EE00001F05AFA262001F057FA272001F054FA7F
:103EF000641C07FA04F03040002805DD4FF400414F
:103F00000E4802F090FA16E04FF400410B4802F020
:103F100088FAD5F86C0120F02000C5F86C012C203F
:103F200001F03AFA2D2001F037FA2E2001F034FA90
:103F30002F2001F031FA641CBDE8F0810018024026
:103F40002DE9F04106460024012701F09FF90546BE
:103F500007FA04F03040002804DD0221D34802F0C3
:103F600062FA0FE00221D14802F05BFAD5F868014D
:103F700020F00100C5F86801012001F00DFA0020D1
:103F800001F00AFA641C07FA04F03040002804DD4E
:103F90000421C64802F047FA0FE00421C34802F0AA
:103FA00040FAD5F8680120F00200C5F86801032046
:103FB00001F0F2F9022001F0EFF9641C07FA04F0B5
:103FC0003040002804DD1021B84802F02CFA0FE040
:103FD0001021B64802F025FAD5F8680120F0040057
:103FE000C5F86801092001F0D7F9082001F0D4F9DB
:103FF000641C07FA04F03040002804DD2021AB489F
:1040000002F011FA0FE02021A84802F00AFAD5F8D0
:10401000680120F00800C5F868010B2001F0BCF928
:104020000A2001F0B9F9641C07FA04F030400028B6
:1040300004DD80219D4802F0F6F90FE080219B48C5
:1040400002F0EFF9D5F8680120F01000C5F868011A
:10405000112001F0A1F9102001F09EF9641C07FA6B
:1040600004F03040002805DD4FF480718F4802F0E5
:10407000DAF910E04FF480718C4802F0D2F9D5F8EB
:10408000680120F02000C5F86801132001F084F9D0
:10409000122001F081F9641C07FA04F03040002876
:1040A00005DD4FF48061814802F0BDF910E04FF466
:1040B00080617E4802F0B5F9D5F8680120F0400033
:1040C000C5F86801192001F067F9182001F064F9BA
:1040D000641C07FA04F03040002805DD4FF400614D
:1040E000724802F0A0F910E04FF400616F4802F04E
:1040F00098F9D5F8680120F08000C5F868011B2008
:1041000001F04AF91A2001F047F9641C07FA04F09B
:104110003040002805DD4FF40051644802F083F977
:1041200010E04FF40051614802F07BF9D5F86801C6
:1041300020F48070C5F86801212001F02DF92020BD
:1041400001F02AF9641C07FA04F03040002805DD6C
:104150004FF48041554802F066F910E04FF4804179
:10416000524802F05EF9D5F8680120F40070C5F8F5
:104170006801232001F010F9222001F00DF9641CE0
:1041800007FA04F03040002805DD4FF4805148481C
:1041900002F049F910E04FF48051454802F041F92E
:1041A000D5F8680120F48060C5F86801292001F085
:1041B000F3F8282001F0F0F8641C07FA04F030400E
:1041C000002805DD4FF40051394802F02CF910E0C9
:1041D0004FF40051364802F024F9D5F8680120F474
:1041E0000060C5F868012B2001F0D6F82A2001F004
:1041F000D3F8641C07FA04F03040002805DD4FF4C2
:1042000080612C4802F00FF90AE04FF480612948E0
:1042100002F007F9D5F8680120F48050C5F868016C
:10422000641C07FA04F03040002805DD4FF480419B
:10423000214802F0F8F80AE04FF480411E4802F0ED
:10424000F0F8D5F8680120F40050C5F86801641C46
:1042500007FA04F03040002804DD4021144802F041
:10426000E2F809E04021124802F0DBF8D5F86801D5
:1042700020F48040C5F86801641C07FA04F030405F
:10428000002805DD4FF400410B4802F0CCF80AE0AD
:104290004FF40041084802F0C4F8D5F8680120F452
:1042A0000040C5F86801641CBDE8F08100180240B8
:1042B0000004024000080240000C024010B500F06B
:1042C000E5FF0446D4F8640101280ED1D4F8680152
:1042D000FFF736FED4F86C01FFF75AFDD4F86811E9
:1042E000D4F86C0101F06EF807E0FFF729FDC4F87F
:1042F0006C01FFF73DFDC4F8680110BD10B540F634
:10430000044002F0ABFA4FF48053012211461148E9
:1043100002F0FFF84FF48053022200210D4802F012
:1043200027F94FF40053012211460A4802F0F1F830
:104330004FF4005302220021064802F019F94FF40D
:104340008051044802F06FF84FF40051014802F028
:1043500068F810BD0010024010B540480068401CCD
:104360003E49086008460068072801D90020086017
:104370003A480068082805D2DFE800F005121F2C33
:104380003946536000BF0121354802F04AF8022146
:10439000334802F046F80421314802F042F85AE06E
:1043A00001212F4802F03FF802212D4802F039F890
:1043B00004212B4802F035F84DE00121284802F095
:1043C00030F80221264802F02EF80421244802F099
:1043D00028F840E00121224802F025F80221204877
:1043E00002F021F804211E4802F01BF833E00121FD
:1043F0001B4802F016F80221194802F012F80421B5
:10440000174802F010F826E00121154802F00BF8D9
:104410000221134802F005F80421114802F003F8C4
:1044200019E001210E4801F0FCFF02210C4801F0C7
:10443000FAFF04210A4801F0F6FF0CE001210848C8
:1044400001F0F1FF0221064801F0EDFF04210448CC
:1044500001F0E9FF00BF00BF10BD00005C000020BC
:104460000008024010B50446082C05D2DFE804F02D
:1044700005121F2C3946536000BF0121354801F059
:10448000D0FF0221334801F0CCFF0421314801F074
:10449000C8FF5AE001212F4801F0C5FF02212D4835
:1044A00001F0BFFF04212B4801F0BBFF4DE00121CB
:1044B000284801F0B6FF0221264801F0B4FF04218C
:1044C000244801F0AEFF40E00121224801F0ABFF9B
:1044D0000221204801F0A7FF04211E4801F0A1FF9E
:1044E00033E001211B4801F09CFF0221194801F033
:1044F00098FF0421174801F096FF26E00121154896
:1045000001F091FF0221134801F08BFF04211148B3
:1045100001F089FF19E001210E4801F082FF02211C
:104520000C4801F080FF04210A4801F07CFF0CE0F8
:104530000121084801F077FF0221064801F073FFCE
:104540000421044801F06FFF00BF00BF024804606F
:1045500010BD0000000802405C00002010B501F012
:104560004BFD044600F092FEC0F8604100F0A4F854
:10457000FFF7A4FE164801780078401C144A10701A
:10458000042923DD02F00EFAFDF73CFD00F07AFE6F
:10459000007828B100F076FE04460078401E2070B6
:1045A0000C480078C0430B4908700846007820B1D9
:1045B0000221094801F037FF03E00221064801F01B
:1045C00030FF01F007FD00200149087010BD000018
:1045D0004500002044000020000C024010B50421DA
:1045E000014801F020FF10BD0000024010B5042179
:1045F000014801F016FF10BD0000024010B5102167
:10460000014801F010FF10BD0000024010B510215C
:10461000014801F006FF10BD0000024010B5402126
:10462000014801F000FF10BD0000024010B540211C
:10463000014801F0F6FE10BD0000024010B5022155
:10464000014801F0F0FE10BD0000024010B502214B
:10465000014801F0E6FE10BD0000024010B508213F
:10466000014801F0E0FE10BD0000024010B5082135
:10467000014801F0D6FE10BD0000024010B5202117
:10468000014801F0D0FE10BD0000024010B520210D
:10469000014801F0C6FE10BD00000240012005499E
:1046A000C1F864010020C1F874026420C1F85C0103
:1046B00070470000081A002000B58BB04FF4B872A4
:1046C00020492148FBF7E2FD20482149D1E91A237E
:1046D000096FC0E91A2301671D49D1E91E23D1F8EA
:1046E0008010C0E91E23C0F880101A480A900620E6
:1046F0008DF8000000F0D2FD019000F0CBFD089095
:10470000FCF726FE8DF80800134803901348059027
:1047100013480490134807900B480690684600F031
:1047200023F84FF4827209499C3909489C38FBF7F9
:10473000ADFD04480449D1F87412C0F874120BB0EE
:1047400000BD0000081A00205C1700205C19002042
:10475000081C0020004400404800002052170020A0
:1047600048170020E019002070B5FEB0044600266E
:104770004FF4FA7101A8FBF7BBFD207A012870D134
:10478000206A008802286DDD606800782178884200
:1047900068D16068407801281BD0606840780228A2
:1047A00017D060684078032813D0606840780428E8
:1047B0000FD06068407805280BD0606840780628E4
:1047C00007D0606840780F2803D0606840781028D0
:1047D0006ED160684078042802DD0220E16808702C
:1047E0006068C0786168897840EA0120A084226A04
:1047F0001288911E6068FBF7F1FF0646206A008868
:10480000801E6168095C206A0088401E6268105C36
:1048100041EA0025AE4238D160684078052822D0B0
:1048200008DC01280DD002280FD0032811D004285D
:1048300029D112E006281AD00F281CD0102822D126
:104840001DE0204600F0C2FA1EE0204600F05EFCAB
:104850001AE0204600F080FB16E0204600F0E9FB5D
:1048600012E03AE036E0204601F005FD0CE020467B
:1048700001F0BCFC08E0204601F0C8FB04E0204643
:1048800001F041FC00E000BF24E0606800788DF892
:1048900004006068407840F080008DF80500042036
:1048A0008DF80600032201A9A06A01F061FB11E066
:1048B000606800788DF804006068407840F08000FF
:1048C0008DF8050001208DF80600032201A9A06AD9
:1048D00001F04EFB0020216A08807EB070BD10B54B
:1048E00000F092FF00F0DEFC10BD000000B587B0C4
:1048F0004FF0804002F0B8FA40F6014001F0AEFF00
:104900004FF4805001F0AAFF4FF0807001F0DCFFFF
:104910004FF4406300220221374801F0FAFD4FF4C2
:10492000406302220021344801F022FE4FF440622D
:104930000121314801F046FD0920ADF80C000020AE
:10494000ADF80E00ADF8100042F20F700590002097
:10495000ADF812008DF8180003A94FF0804002F066
:104960004BFB0120ADF800000020ADF80200ADF8CF
:104970000400ADF80600ADF80800ADF80A006A467C
:104980000221480702F00CF942F2AC62022148070A
:1049900002F029FA60220221480702F0F7F900220A
:1049A0000221480702F032FA6A4603214FF08040A4
:1049B00002F0F6F842F2AC6203214FF0804002F0C0
:1049C00012FA602203214FF0804002F0DFF900224A
:1049D00003214FF0804002F019FA4FF0804002F0BE
:1049E000D9F80121880702F053FB4FF0804002F014
:1049F000FDFA07B000BD00000004024010B540F60B
:104A0000014001F02BFF40F6024001F027FF40F685
:104A1000034001F023FF40F6064001F01FFFE74886
:104A200001F008FD012302221946E44801F071FD5E
:104A3000012302220021E14801F09AFD02231A46D7
:104A40000121DE4801F065FD02231A460021DB4802
:104A500001F08EFD042302220121D84801F059FD06
:104A6000042302220021D54801F082FD08230222FE
:104A70000121D24801F04DFD082302220021CF4838
:104A800001F076FD102302220121CC4801F041FD06
:104A9000102302220021C94801F06AFD20230222CE
:104AA0000121C64801F035FD202302220021C34820
:104AB00001F05EFD402302220121C04801F029FDE2
:104AC000402302220021BD4801F052FD8023022232
:104AD0000121BA4801F01DFD802302220021B748C0
:104AE00001F046FD4FF4807302220121B34801F02A
:104AF00010FD4FF4807302220021B04801F038FD10
:104B00004FF4007302220121AC4801F002FD4FF482
:104B1000007302220021A94801F02AFD4FF48063AE
:104B200002220121A54801F0F4FC4FF48063022227
:104B30000021A24801F01CFD4FF400630222012174
:104B40009E4801F0E6FC4FF40063022200219B48DE
:104B500001F00EFD4FF4805302220121974801F02D
:104B6000D8FC4FF4805302220021944801F000FD4C
:104B70004FF4005302220121904801F0CAFC4FF487
:104B80000053022200218D4801F0F2FC4FF48043D3
:104B900002220121894801F0BCFC4FF4804302222B
:104BA0000021864801F0E4FC4FF400430222012179
:104BB000824801F0AEFC4FF40043022200217F48FE
:104BC00001F0D6FC7E4801F035FC01230222194693
:104BD0007B4801F09EFC012302220021784801F06D
:104BE000C7FC02231A460121754801F092FC0223FA
:104BF0001A460021724801F0BBFC04230222012165
:104C00006F4801F086FC0423022200216C4801F069
:104C1000AFFC082302220121694801F07AFC082335
:104C200002220021664801F0A3FC10230222012188
:104C3000634801F06EFC102302220021604801F05D
:104C400097FC2023022201215D4801F062FC202311
:104C5000022200215A4801F08BFC4FF4807302229B
:104C60000121574801F055FC4FF4807302220021C6
:104C7000534801F07DFC4FF400730222012150489B
:104C800001F047FC4FF40073022200214C4801F070
:104C90006FFC4FF4806302220121494801F039FC86
:104CA0004FF4806302220021454801F061FC4FF47B
:104CB000006302220121424801F02BFC4FF4006303
:104CC000022200213E4801F053FC20230222012150
:104CD0003C4801F01EFC2023022200213A4801F04A
:104CE00047FC402301221146364801F012FC4023C4
:104CF00002220021344801F03BFC4FF48053022291
:104D00000121304801F005FC4FF4805302220021BC
:104D10002D4801F02DFC4FF4005301221146294883
:104D200001F0F7FB4FF4005302220021264801F066
:104D30001FFC02231A460121234801F0EAFB02234B
:104D40001A460021204801F013FC4FF400630122B1
:104D500011461D4801F0DDFB4FF4006302220021E3
:104D6000194801F005FC4FF4804301221146164812
:104D700001F0CFFB4FF4804302220021124801F0E2
:104D8000F7FB4FF40043012211460F4801F0C1FB2D
:104D90004FF40043022200210B4801F0E9FB4FF4DD
:104DA000807300221146084801F0B3FB4FF4807372
:104DB00002220021044801F0DBFB10BD0018024074
:104DC0000008024000040240000C02402DE9F041BE
:104DD000FEB00646002400270025A0464FF4FA71D5
:104DE00001A8FBF785FA706840797168097940EA93
:104DF0000125B08C2844FF287EDA706800788DF891
:104E00000400706840788DF805002846E91705EB26
:104E10005171C1F3CF07E91705EB5171C910A5EB2B
:104E2000C10109B1781C87B2F8B28DF806000024E0
:104E30005BE0E11704EB5171C910A4EBC10141B96A
:104E400000222046E11704EB5171C910C91C01ABC7
:104E50005A54E11704EB5171C910C91C01AA515CE5
:104E60004A102046E11704EB5171C910C91C01AB6F
:104E70005A54E11704EB5171C910C91C01AA515CC5
:104E8000B38C23443269D25C802303EAC2121143FB
:104E9000E21704EB5272D210D21C01AB9954681E77
:104EA000A04220D1E91705EB5171C910A5EBC10152
:104EB000C9B1E21704EB5272D210D21C9A5C294697
:104EC000EB1705EB5373DB10A5EBC303C3F108032A
:104ED0001A412046E31704EB5373DB10DB1C0DF182
:104EE000040C0CF80320601C84B2AC42A1DBF91C5A
:104EF00001A8FBF773FC00E00FE0804601AAF81C54
:104F000002F800804FEA1821381D1154791DCAB2E9
:104F100001A9B06A01F02CF811E0706800788DF8F2
:104F200004007068407840F080008DF80500022091
:104F30008DF80600032201A9B06A01F019F87EB0CD
:104F4000BDE8F0810348006808B1012070470020E7
:104F5000FCE7000054000020F0B5FDB00446002638
:104F6000002500274FF4FA716846FBF7C1F9606825
:104F700040796168097940EA0125A08C2844FF281E
:104F800043DA606800788DF80000606840788DF83A
:104F900001006806000E8DF8020000BF17E0A18C2A
:104FA0003144A06910F82100042101EB46010DF8FD
:104FB0000100A18C3144A06930F82100C0F3072022
:104FC000032101EB46010DF80100701C86B2AE42D0
:104FD000E5DB032000EB45016846FBF7FFFB0746D6
:104FE000F8B2032101EB45010DF80100380A042154
:104FF00001EB45010DF80100052101EB4501CAB2A5
:105000006946A06A00F0B4FF11E0606800788DF88E
:1050100000006068407840F080008DF801000220B8
:105020008DF8020003226946A06A00F0A1FF7DB05E
:10503000F0BDF0B5FDB004460026002500274FF472
:10504000FA716846FBF754F960684079616809793C
:1050500040EA0125A08C2844FF2843DA60680078E4
:105060008DF80000606840788DF801006806000E39
:105070008DF8020000BF17E0A18C3144E06910F800
:105080002100042101EB46010DF80100A18C3144FF
:10509000E06930F82100C0F30720032101EB46014D
:1050A0000DF80100701C86B2AE42E5DB032000EB78
:1050B00045016846FBF792FB0746F8B2032101EB76
:1050C00045010DF80100380A042101EB45010DF8F6
:1050D0000100052101EB4501CAB26946A06A00F052
:1050E00047FF11E0606800788DF800006068407844
:1050F00040F080008DF8010002208DF802000322AC
:105100006946A06A00F034FF7DB0F0BD2DE9F041A2
:10511000FEB00646002400270025A0464FF4FA7191
:1051200001A8FBF7E5F8706840797168097940EAF1
:105130000125B08C2844FF287EDA706800788DF84D
:105140000400706840788DF805002846E91705EBE3
:105150005171C1F3CF07E91705EB5171C910A5EBE8
:10516000C10109B1781C87B2F8B28DF8060000249D
:105170005BE0E11704EB5171C910A4EBC10141B927
:1051800000222046E11704EB5171C910C91C01AB84
:105190005A54E11704EB5171C910C91C01AA515CA2
:1051A0004A102046E11704EB5171C910C91C01AB2C
:1051B0005A54E11704EB5171C910C91C01AA515C82
:1051C000B38C23447269D25C802303EAC212114378
:1051D000E21704EB5272D210D21C01AB9954681E34
:1051E000A04220D1E91705EB5171C910A5EBC1010F
:1051F000C9B1E21704EB5272D210D21C9A5C294654
:10520000EB1705EB5373DB10A5EBC303C3F10803E6
:105210001A412046E31704EB5373DB10DB1C0DF13E
:10522000040C0CF80320601C84B2AC42A1DBF91C16
:1052300001A8FBF7D3FA00E00FE0804601AAF81CB2
:1052400002F800804FEA1821381D1154791DCAB2A6
:1052500001A9B06A00F08CFE11E0706800788DF84A
:1052600004007068407840F080008DF8050002204E
:105270008DF80600032201A9B06A00F079FE7EB025
:10528000BDE8F081004870474800002000487047A2
:10529000081A002000487047280000200048704786
:1052A0006C02002010B5394801780078401C374A5C
:1052B000107001EB410000EBC100354901EB8000AB
:1052C00034490860012001F011FB32490968086087
:1052D0000120FCF7ECFD022001F008FB2D490968D4
:1052E00048600120FCF7E3FD032001F0FFFA2949A3
:1052F000096888600120FCF7DAFD042001F0F6FA65
:1053000024490968C8600120FCF7D1FD052001F09F
:10531000EDFA2049096808610120FCF7C8FD062064
:1053200001F0E4FA1B49096848610120FCF7BFFD60
:10533000072001F0DBFA1749096888610120FCF7B2
:10534000B6FD082001F0D2FA12490968C8610120AF
:10535000FCF7ADFD092001F0C9FA0E4909680862A1
:105360000120FCF7A4FD0A2001F0C0FA09490968F0
:1053700048620120FCF79BFD002001F0B7FA0549C7
:10538000096888620120FCF792FD10BD38000020FA
:10539000600400203C00002070B50446012505FA99
:1053A00004F00649B1F90010814305480160006826
:1053B00010B90320FCF789FD70BD000058000020E3
:1053C00054000020024A1060024A11607047000039
:1053D0004C0000205000002070B50446012505FA5D
:1053E00004F00649B1F90010084305490860084671
:1053F000006810B10420FCF768FD70BD5800002063
:105400005400002000B54FF0E020006900F4803027
:1054100010B1024800F0BEF900BD000000000020FD
:105420004FF0E020006920F001004FF0E02108611A
:105430000846006920F0020008610846006920F073
:105440000400086146F2A81048610846006940F06F
:10545000020008610846006940F0010008617047D9
:1054600008B53048006840F470002E4908602E48A6
:10547000006840F001002C49086000BF2A4800681D
:1054800000F002000028F9D000BF2748083000686B
:1054900040F080002449083108600020009002E0BC
:1054A0000098401C009000985028F9D31E480830FE
:1054B000006840F090001C4908310860002000900E
:1054C00002E00098401C009000985028F9D300BFDB
:1054D00015480830006820F00300134908310860BF
:1054E00011480068114908400F49086008460068E3
:1054F00020F48020086000200B490831086000BFBC
:1055000009480830006800200028F9D108480649F9
:10551000091D0860002004490C31086001F036FBC9
:1055200008BD000088ED00E000380240FFFFF6FEF5
:105530001030002410B58CB030221E496846FAF7AE
:10554000A5FE002431E0694601EB041000F0D7F815
:10555000694601EB0410802100F0B4F8694601EBC4
:10556000041000F0DDF8694601EB041000F0C7F804
:10557000694601EB0410402100F0A4F8694601EBF4
:10558000041000F0CDF8694601EB041000F0B7F804
:10559000694601EB04108B2100F094F8694601EB99
:1055A000041000F0BDF8601CC4B2032CCBDB0CB0BF
:1055B00010BD00001C76000870B58CB004460E4685
:1055C000302211496846FAF761FE694601EB041082
:1055D00000F095F8694601EB0410C02100F072F864
:1055E000002508E036F815106A4602EB041000F0BA
:1055F00069F8681CC5B2102DF4DB694601EB041094
:1056000000F08EF80CB070BD4C76000810B54FF469
:10561000406001F023F902231A460121284800F0D6
:1056200078FF02231A460021254800F0A1FF042339
:1056300002220121224800F06CFF042302220021F3
:105640001F4800F095FF0823022201211C4800F0AA
:1056500060FF082302220021194800F089FF10236F
:1056600002220121164800F054FF102302220021DB
:10567000134800F07DFF202302220121104800F092
:1056800048FF2023022200210D4800F071FF402333
:10569000022201210A4800F03CFF4023022200219F
:1056A000074800F065FFFEF7D1FFFEF79FFFFEF70A
:1056B000DDFFFEF7ABFFFEF7E9FFFEF7B7FF10BD1A
:1056C0000000024070B504460D46002612E0E06876
:1056D000804700BF00BF05F0010010B1206880477F
:1056E00001E06068804700BF00BFA06880476D1080
:1056F000701CC6B2082EEADBE068804770BD10B5AA
:105700000446A068804700BF00BF2068804700BFF4
:1057100000BF6068804700BF00BFE068804710BDE1
:1057200010B50446E068804700BF00BF606880474E
:1057300000BF00BFA068804700BF00BF206880474F
:1057400010BD00000EB5044A07CA8DE80700684680
:1057500000F004F80EBD00007C76000870B5054628
:10576000002411E004EB4400094911F8100001285D
:1057700008D155F824008047002004EB4401044A76
:1057800002F81100601CC4B2032CEBDB70BD0000FA
:10579000000000200146002028E000EB400201EB61
:1057A0004202528802B300EB400201EB42025288EF
:1057B000521E12B200EB400301EB43035A8000EB90
:1057C000400201EB4202528872B900EB400201EB49
:1057D0004202928800EB400301EB43035A8001220E
:1057E00000EB400301F81320421CD0B20328D4DBA5
:1057F000704710B5FEF7B0FDFCF756FCFBF71CF840
:1058000000F0BAF810BD00000448D0E900305A1C7E
:1058100040F100000149C1E90020704770000020FC
:10582000F0B503460C46FEF79DFA05460E4694FB7E
:10583000F2F0C11740197141C3E90001F0BD4FF00A
:10584000FF325108C0E900217047F0B503460C460D
:10585000FEF788FA05460E46D3E90071EA1B76EB9F
:10586000010006DB012C02D11846FFF7E8FF0120FA
:10587000F0BD0020FCE7000010B51949194801F0FF
:1058800041FD38B11649174801F02FFD154801F0C8
:105890007FFCC4B21449134801F034FDF0B1124941
:1058A000104801F022FD0F4801F072FCC4B20F480D
:1058B0000088B0F5FA7F0EDA0D480C490988445487
:1058C0000A480088401C094908800122042109482F
:1058D000FFF7A6FF02E000200449088010BD000089
:1058E00005030300004400400503050028000020D4
:1058F0006C0200203000002010B51949194801F051
:1059000001FD38B11649174801F0EFFC154801F0C8
:105910003FFCC4B21449134801F0F4FCF0B1124941
:10592000104801F0E2FC0F4801F032FCC4B20F480D
:105930000088B0F5FA7F0EDA0D480C490988445406
:105940000A480088401C09490880012204210948AE
:10595000FFF766FF02E000200449088010BD000048
:10596000050303000048004005030500180000205F
:1059700078000020200000202DE9F0478CB0FFF7D0
:1059800085FCF749086001A8FEF7F8F9FEF7DEF993
:1059900008287DD2DFE800F0FEFDFCFB04FAC7E832
:1059A00042F650510198884204D242F6884101984B
:1059B000884201D8019820B9E9490198096808632B
:1059C00009E042F210710198884204D942F6E2409F
:1059D000E3490968086342F650510298884204D2AC
:1059E00042F688410298884201D8029820B9DC49E1
:1059F00002980968486309E042F2107102988842EF
:105A000004D942F6EC40D6490968486342F6505141
:105A10000398884204D242F688410398884201D80C
:105A2000039820B9CE4903980968886309E042F2D7
:105A300010710398884204D942F6F640C8490968B3
:105A40008863C74904980968C863C5490598096807
:105A50000864C349069809684864C1480068006B37
:105A6000BF490968C1F83001BD490968C1F808019A
:105A7000BB490968C1F8E000B9490968C1F8B80034
:105A8000B7490968C1F89000B5490968886600E01F
:105A900068E1B3480068406BB1490968C1F8340156
:105AA000AF490968C1F80C01AD490968C1F8E400C3
:105AB000AB490968C1F8BC00A9490968C1F894005C
:105AC000A7490968C866A6480068806BA4490968A8
:105AD000C1F83801A2490968C1F81001A049096854
