:020000040800F2
:10000000983000204D0200085502000857020008F1
:10001000590200085B0200085D02000800000000B1
:100020000000000000000000000000005F02000867
:10003000610200080000000063020008AD530008E0
:1000400067020008670200086702000867020008EC
:1000500067020008670200086702000867020008DC
:1000600067020008670200086702000867020008CC
:1000700067020008670200086702000867020008BC
:1000800067020008670200086702000867020008AC
:10009000670200086702000867020008670200089C
:1000A000670200086702000867020008670200088C
:1000B000670200086702000867020008670200087C
:1000C000670200086702000867020008670200086C
:1000D000670200086702000825580008A5580008B4
:1000E000670200086702000867020008670200084C
:1000F000670200086702000867020008670200083C
:10010000670200086702000867020008670200082B
:10011000670200086702000867020008670200081B
:10012000670200086702000867020008670200080B
:1001300067020008670200086702000867020008FB
:1001400067020008670200086702000867020008EB
:1001500067020008670200086702000867020008DB
:1001600067020008670200086702000867020008CB
:10017000670200086702000867020008000000002C
:1001800067020008670200086702000867020008AB
:10019000670200086702000867020008000000000C
:1001A00067020008670200086702000800F002F812
:1001B00000F03CF80AA090E8000C82448344AAF1C5
:1001C0000107DA4501D100F031F8AFF2090EBAE8C3
:1001D0000F0013F0010F18BFFB1A43F0010318477B
:1001E000907A0000B07A0000103A24BF78C878C135
:1001F000FAD8520724BF30C830C144BF04680C602D
:10020000704700000023002400250026103A28BF74
:1002100078C1FBD8520728BF30C148BF0B60704778
:100220001FB507F019F91FBD10B510BD00F08AF811
:100230001146FFF7F5FF06F0F3F800F0A8F803B455
:10024000FFF7F2FF03BC00F0AFF800000948804759
:1002500009480047FEE7FEE7FEE7FEE7FEE7FEE7A8
:10026000FEE7FEE7FEE7FEE704480549054A064BC0
:100270007047000009540008AD01000898280020CC
:1002800098300020982C0020982C002010B5203A9F
:10029000C0F00B80B1E81850203AA0E81850B1E83F
:1002A0001850A0E81850BFF4F5AF5FEA027C24BFF5
:1002B000B1E81850A0E8185044BF18C918C0BDE8EC
:1002C00010405FEA827C24BF51F8043B40F8043BB5
:1002D00008BF7047D20728BF31F8023B48BF11F86A
:1002E000012B28BF20F8023B48BF00F8012B7047C4
:1002F0004FF0000200B5134694469646203922BFBF
:10030000A0E80C50A0E80C50B1F12001BFF4F7AF09
:10031000090728BFA0E80C5048BF0CC05DF804EBEB
:10032000890028BF40F8042B08BF704748BF20F859
:10033000022B11F0804F18BF00F8012B7047704757
:1003400070477047754600F02BF8AE4605006946C9
:10035000534620F00700854618B020B5FFF784FF0C
:10036000BDE820404FF000064FF000074FF00008B6
:100370004FF0000B21F00701AC46ACE8C009ACE837
:10038000C009ACE8C009ACE8C0098D46704710B59B
:100390000446AFF300802046BDE81040FFF74FBF92
:1003A000004870473828002001491820ABBEFEE7FE
:1003B000260002007047F0B502460B46002407E213
:1003C0000020FFE100EB400505EBC00552F8256079
:1003D000451C05EB450707EBC50552F82550AE4215
:1003E00019D900EB400505EBC00552F82510451C56
:1003F00005EB450606EBC50552F8255000EB400617
:1004000006EBC00642F82650451C05EB450606EBF8
:10041000C50542F8251000EB400505EBC00502EBD1
:1004200085056E68451C05EB450707EBC50502EB26
:1004300085056D68AE421DD900EB400505EBC00592
:1004400002EB85056968451C05EB450606EBC5050D
:1004500002EB85056D6800EB400606EBC00602EB7B
:1004600086067560451C05EB450606EBC50502EBE7
:100470008505696000EB400505EBC00502EB8505CD
:10048000AE68451C05EB450707EBC50502EB850586
:10049000AD68AE421DD900EB400505EBC00502EB8F
:1004A0008505A968451C05EB450606EBC50502EB6D
:1004B0008505AD6800EB400606EBC00602EB86063C
:1004C000B560451C05EB450606EBC50502EB850549
:1004D000A96000EB400505EBC00502EB8505EE6861
:1004E000451C05EB450707EBC50502EB8505ED68E7
:1004F000AE421DD900EB400505EBC00502EB8505BA
:10050000E968451C05EB450606EBC50502EB8505CC
:10051000ED6800EB400606EBC00602EB8606F560D0
:10052000451C05EB450606EBC50502EB8505E960B4
:1005300000EB400505EBC00502EB85052E69451C67
:1005400005EB450707EBC50502EB85052D69AE42B6
:100550001DD900EB400505EBC00502EB85052969B7
:10056000451C05EB450606EBC50502EB85052D6927
:1005700000EB400606EBC00602EB86063561451C23
:1005800005EB450606EBC50502EB8505296100EB89
:10059000400505EBC00502EB85056E69451C05EBC2
:1005A000450707EBC50502EB85056D69AE421DD910
:1005B00000EB400505EBC00502EB85056969451CAC
:1005C00005EB450606EBC50502EB85056D6900EBFD
:1005D000400606EBC00602EB86067561451C05EB7E
:1005E000450606EBC50502EB8505696100EB400594
:1005F00005EBC00502EB8505AE69451C05EB45071B
:1006000007EBC50502EB8505AD69AE421DD900EBD0
:10061000400505EBC00502EB8505A969451C05EB06
:10062000450606EBC50502EB8505AD6900EB400606
:1006300006EBC00602EB8606B561451C05EB4506D8
:1006400006EBC50502EB8505A96100EB400505EB4E
:10065000C00502EB8505EE69451C05EB450707EB78
:10066000C50502EB8505ED69AE421DD900EB4005DD
:1006700005EBC00502EB8505E969451C05EB450660
:1006800006EBC50502EB8505ED6900EB400606EBC0
:10069000C00602EB8606F561451C05EB450606EB38
:1006A000C50502EB8505E96100EB400505EBC005DA
:1006B00002EB85052E6A451C05EB450707EBC505D2
:1006C00002EB85052D6AAE421DD900EB400505EB16
:1006D000C00502EB8505296A451C05EB450606EBBE
:1006E000C50502EB85052D6A00EB400606EBC0064A
:1006F00002EB86063562451C05EB450606EBC50593
:1007000002EB8505296200EB400505EBC00502EB15
:1007100085056E6A451C05EB450707EBC50502EB31
:1007200085056D6AAE421DD900EB400505EBC0059D
:1007300002EB8505696A451C05EB450606EBC50518
:1007400002EB85056D6A00EB400606EBC00602EB86
:1007500086067562451C05EB450606EBC50502EBF2
:100760008505696200EB400505EBC00502EB8505D8
:10077000AE6A451C05EB450707EBC50502EB850591
:10078000AD6AAE421DD900EB400505EBC00502EB9A
:100790008505A96A451C05EB450606EBC50502EB78
:1007A0008505AD6A00EB400606EBC00602EB860647
:1007B000B562451C05EB450606EBC50502EB850554
:1007C000A962401C5D1E2D1B85423FF7FBAD641CDA
:1007D0005D1EA5423FF7F4ADF0BD00002DE9F041EC
:1007E000ADF5007D04460E464FF48072104940A8D6
:1007F000FFF74CFD4FF480720E496846FFF746FD47
:10080000FF27B84609E014F8010B80EA070540A865
:10081000405D80EA08071DF80580301EA6F101063C
:10082000F1D147EA08200DF5007DBDE8F081000018
:10083000D8740008D875000830B597B004F0FAFCF9
:10084000044604F04FFB05460CA803F00BFA01A880
:1008500003F008FA03F0EEF9082874D2DFE810F08C
:100860006904CF069C05F0070800EA02090073013D
:10087000FEE3D4F8800100283DDD0C98D4F8801107
:10088000884209D80D98D4F88011884204D80E986F
:10089000D4F8801188422BD9FD480068401CFC49DF
:1008A000086008460068032825DD0121F94805F0A5
:1008B000EEFCD4F86C0120F00100C4F86C010420B7
:1008C00004F05EFD0C98D4F88011884202D90C988F
:1008D000286109E00D98D4F88011884202D90D985A
:1008E000286101E00E9828610020E949086002E0D3
:1008F0000020E7490860D4F8880100282EDD01981F
:10090000D4F88811884209D80298D4F8881188420E
:1009100004D80398D4F8881188421FD90121DD48F2
:1009200005F0B5FCD4F86C0120F00100C4F86C01AE
:10093000062004F025FD0198D4F88811884203D9D7
:100940000198A8610AE0F3E30298D4F8881188427C
:1009500002D90298A86101E00398A861D4F8840143
:1009600000283DDD0F98D4F88411884209D81098EA
:10097000D4F88411884204D81198D4F8841188429C
:100980002BD9C5480068401CC34908600846006868
:10099000032825DD0121BF4805F079FCD4F86C015E
:1009A00020F00100C4F86C01052004F0E9FC0F9868
:1009B000D4F88411884202D90F98686109E0109830
:1009C000D4F88411884202D91098686101E0119826
:1009D00068610020B049086002E00020AE4908606C
:1009E000D4F88C0100282DDD0498D4F88C118842AD
:1009F00009D80598D4F88C11884204D80698D4F800
:100A00008C1188421ED90121A24805F040FCD4F87F
:100A10006C0120F00100C4F86C01072004F0B0FC68
:100A20000F98D4F88C11884202D90F98E86109E038
:100A30001098D4F88C11884202D91098E86101E02E
:100A40001198E861D4F87001002823DD1298D4F8D9
:100A5000701188421BD991480068401C8F4908607A
:100A600008460068032815DD02218A4805F00FFCBE
:100A7000D4F8680120F00100C4F86801002004F0F7
:100A80007FFC1298286000208449086002E0002062
:100A900082490860D4F87401002823DD1398D4F843
:100AA000741188421BD97E480068401C7C4908604C
:100AB00008460068032815DD0221764805F0E7FBAB
:100AC000D4F8680120F00100C4F86801012004F0A6
:100AD00057FC1398686000207149086002E000200C
:100AE0006F490860D4F87801002813DD0998D4F81C
:100AF000781188420ED90421664805F0C8FBD4F865
:100B0000680120F00200C4F86801022004F038FCFB
:100B10001498A860D4F87C01002813DD0A98D4F852
:100B20007C1188420ED904215A4805F0B0FBD4F854
:100B3000680120F00200C4F86801032004F020FCE2
:100B40001598E86094E6D4F8A00100283DDD0C98E3
:100B5000D4F8A011884209D80D98D4F8A011884281
:100B600004D80E98D4F8A01188422BD94D480068BB
:100B7000401C4C49086008460068032825DD082110
:100B8000444805F084FBD4F86C0120F00200C4F85E
:100B90006C010C2004F0F4FB0C98D4F8A0118842EE
:100BA00002D90C98286309E00D98D4F8A011884266
:100BB00002D90D98286301E00E9828630020394976
:100BC000086002E0002037490860D4F8A801002836
:100BD0002DDD0198D4F8A811884209D80298D4F8DC
:100BE000A811884204D80398D4F8A81188421ED9C5
:100BF0000821284805F04BFBD4F86C0120F00200D6
:100C0000C4F86C010E2004F0BBFB0C98D4F8A811BA
:100C1000884202D90C98A86309E00D98D4F8A8116D
:100C2000884202D90D98A86301E00E98A863D4F811
:100C3000A40100284BDD0F98D4F8A411884209D8EC
:100C40001098D4F8A411884204D81198D4F8A411AB
:100C5000884239D914480068401C13490860084686
:100C60000068032833DD08210A4805F010FBD4F89A
:100C70006C0120F00200C4F86C010D2004F080FB30
:100C80000F98D4F8A411884210D90F98686317E020
:100C900068000020001802406C000020980000202E
:100CA0009C00002070000020740000201098D4F8F0
:100CB000A411884202D91098686301E01198686312
:100CC0000020F849086002E00020F6490860D4F8E6
:100CD000AC0100282DDD0498D4F8AC11884209D865
:100CE0000598D4F8AC11884204D80698D4F8AC1111
:100CF00088421ED90821EC4805F0C9FAD4F86C01E5
:100D000020F00200C4F86C010F2004F039FB0F98AA
:100D1000D4F8AC11884202D90F98E86309E0109822
:100D2000D4F8AC11884202D91098E86301E0119818
:100D3000E863D4F89001002823DD1298D4F89011CC
:100D400088421BD9D9480068401CD8490860084629
:100D50000068032815DD0421D34805F098FAD4F87B
:100D6000680120F00200C4F86801082004F008FBC4
:100D7000129828620020CD49086002E00020CB498B
:100D80000860D4F89401002823DD1398D4F8941156
:100D900088421BD9C6480068401CC54908600846FF
:100DA0000068032815DD1021BF4805F070FAD4F85B
:100DB000680120F00400C4F86801092004F0E0FA9A
:100DC000139868620020BA49086002E00020B84920
:100DD0000860D4F89801002813DD0998D4F8981118
:100DE00088420ED92021B04805F051FAD4F86801A4
:100DF00020F00800C4F868010A2004F0C1FA149831
:100E0000A862D4F89C01002813DD0A98D4F89C113C
:100E100088420ED92021A44805F039FAD4F8680197
:100E200020F00800C4F868010B2004F0A9FA159816
:100E3000E8621DE5D4F8C00100283DDD0C98D4F827
:100E4000C011884209D80D98D4F8C011884204D83E
:100E50000E98D4F8C01188422BD996480068401CDF
:100E60009449086008460068032825DD40218E4823
:100E700005F00DFAD4F86C0120F00400C4F86C0100
:100E8000142004F07DFA0C98D4F8C011884202D9DD
:100E90000C98286509E00D98D4F8C011884202D951
:100EA0000D98286501E00E982865002081490860AA
:100EB00002E000207F490860D4F8C80100282DDD39
:100EC0000198D4F8C811884209D80298D4F8C811FA
:100ED000884204D80398D4F8C81188421ED940210A
:100EE000714805F0D4F9D4F86C0120F00400C4F87E
:100EF0006C01162004F044FA0C98D4F8C81188420A
:100F000002D90C98A86509E00D98D4F8C811884258
:100F100002D90D98A86501E00E98A865D4F8C4011F
:100F200000283DDD0F98D4F8C411884209D81098E4
:100F3000D4F8C411884204D81198D4F8C411884256
:100F40002BD95D480068401C5B4908600846006872
:100F5000032825DD4021544805F099F9D4F86C01A7
:100F600020F00400C4F86C01152004F009FA0F9871
:100F7000D4F8C411884202D90F98686509E0109826
:100F8000D4F8C411884202D91098686501E011981C
:100F9000686500204849086002E000204649086072
:100FA000D4F8CC0100282DDD0498D4F8CC11884267
:100FB00009D80598D4F8CC11884204D80698D4F8FA
:100FC000CC1188421ED94021374805F060F9D4F889
:100FD0006C0120F00400C4F86C01172004F0D0F973
:100FE0000F98D4F8CC11884202D90F98E86509E02F
:100FF0001098D4F8CC11884202D91098E86501E025
:101000001198E865D4F8B001002824DD1298D4F8CE
:10101000B01188421CD929480068401C2749086043
:1010200008460068032816DD4FF480711E4805F05D
:101030002EF9D4F8680120F02000C4F868011020CF
:1010400004F09EF91298286400201C49086002E010
:1010500000201A490860D4F8B401002835DD13983F
:10106000D4F8B41188422DD915480068401C00E01E
:10107000C4E21349086008460068032825DD802182
:10108000094805F004F9D4F8680120F01000C4F80C
:101090006801112004F074F913986864002008496D
:1010A000086012E07400002000180240A000002038
:1010B000A4000020780000207C000020A800002070
:1010C000AC0000200020FE490860D4F8B8010028D8
:1010D00014DD0998D4F8B81188420FD94FF4807103
:1010E000F84805F0D4F8D4F8680120F02000C4F8DE
:1010F0006801122004F044F91498A864D4F8BC01E3
:10110000002814DD0A98D4F8BC1188420FD94FF496
:101110008071EC4805F0BBF8D4F8680120F020009D
:10112000C4F86801122004F02BF91598E86489E3EB
:1011300087E3D4F8E00100283EDD0C98D4F8E011F4
:10114000884209D80D98D4F8E011884204D80E9846
:10115000D4F8E01188422CD9DB480068401CDA49F9
:10116000086008460068032826DD4FF40071D54862
:1011700005F08DF8D4F86C0120F00800C4F86C017B
:101180001C2004F0FDF80C98D4F8E011884202D934
:101190000C98286709E00D98D4F8E011884202D92C
:1011A0000D98286701E00E9828670020C64908605E
:1011B00002E00020C4490860D4F8E80100281CDDE2
:1011C0000198D4F8E811884209D80298D4F8E811B7
:1011D000884204D80398D4F8E81188420DD94FF416
:1011E0000071B84805F053F8D4F86C0120F00800FD
:1011F000C4F86C011E2004F0C3F8D4F8E401002800
:101200002CDD0F98D4F8E411884209D81098D4F84E
:10121000E411884204D81198D4F8E41188421AD90C
:10122000AA480068401CA9490860084600680328CD
:1012300014DD4FF40071A34805F029F8D4F86C01CF
:1012400020F00800C4F86C011D2004F099F800207B
:101250009E49086002E000209C490860D4F8EC0137
:1012600000281CDD0498D4F8EC11884209D80598B0
:10127000D4F8EC11884204D80698D4F8EC118842CE
:101280000DD94FF400718F4805F001F8D4F86C01C6
:1012900020F00800C4F86C011F2004F071F8D4F8A5
:1012A000D001002822DD1298D4F8D01188421AD932
:1012B00087480068401C8649086008460068032883
:1012C00014DD4FF400617F4804F0E1FFD4F86801B9
:1012D00020F08000C4F86801182004F051F80020C4
:1012E0007B49086002E0002079490860D4F8D40105
:1012F000002822DD1398D4F8D41188421AD97548F1
:101300000068401C7349086008460068032814DD23
:101310004FF480616B4804F0BAFFD4F8680120F004
:101320004000C4F86801192004F02AF80020694937
:10133000086002E0002067490860D4F8D80100285E
:1013400012DD0998D4F8D81188420DD94FF4006104
:101350005C4804F09CFFD4F8680120F08000C4F8D9
:1013600068011A2004F00CF8D4F8DC01002812DD22
:101370000A98D4F8DC1188420DD94FF40061514825
:1013800004F085FFD4F8680120F08000C4F86801FB
:101390001B2003F0F5FF55E2D4F8000200282CDDF5
:1013A0000C98D4F80012884209D80D98D4F800128D
:1013B000884204D80E98D4F8001288421AD94648B8
:1013C0000068401C4449086008460068032814DD92
:1013D0004FF480513B4804F05AFFD4F86C0120F0E0
:1013E0001000C4F86C01242003F0CAFF00203A4921
:1013F000086002E0002038490860D4F8080200289C
:101400001CDD0198D4F80812884209D80298D4F853
:101410000812884204D80398D4F8081288420DD9DB
:101420004FF48051274804F032FFD4F86C0120F0CB
:101430001000C4F86C01262003F0A2FFD4F80402C7
:1014400000282CDD0F98D4F80412884209D810988F
:10145000D4F80412884204D81198D4F804128842AF
:101460001AD91E480068401C1C49086008460068DC
:10147000032814DD4FF48051124804F008FFD4F81B
:101480006C0120F01000C4F86C01252003F078FFF7
:1014900000201249086002E0002010490860D4F8DA
:1014A0000C0200282EDD0498D4F80C1288421BD8B8
:1014B0000598D4F80C12884216D8069810E000005F
:1014C000AC000020001802408000002084000020B2
:1014D000B0000020B4000020880000208C00002014
:1014E000D4F80C1288420DD94FF48051D74804F03B
:1014F000CEFED4F86C0120F01000C4F86C01272057
:1015000003F03EFFD4F8F001002822DD1298D4F851
:10151000F01188421AD9CE480068401CCC490860B6
:1015200008460068032814DD4FF48041C74804F0E2
:10153000AEFED4F8680120F40070C4F868012020E1
:1015400003F01EFF0020C249086002E00020C049ED
:101550000860D4F8F401002822DD1398D4F8F411BF
:1015600088421AD9BB480068401CBA49086008463E
:101570000068032814DD4FF40051B44804F087FEDE
:10158000D4F8680120F48070C4F86801212003F0C9
:10159000F7FE0020AF49086002E00020AD49086076
:1015A000D4F8F801002812DD0998D4F8F81188421F
:1015B0000DD94FF48041A54804F069FED4F86801C4
:1015C00020F40070C4F86801222003F0D9FED4F89A
:1015D000FC01002812DD0A98D4F8FC1188420DD9CC
:1015E0004FF48041994804F052FED4F8680120F489
:1015F0000070C4F86801232003F0C2FE22E1D4F891
:10160000200200282CDD0C98D4F82012884209D83A
:101610000D98D4F82012884204D80E98D4F82012DD
:1016200088421AD98C480068401C8B4908600846DB
:101630000068032814DD4FF40041844804F027FEBD
:10164000D4F86C0120F02000C4F86C012C2003F0C9
:1016500097FE00208049086002E000207E49086073
:10166000D4F8280200281CDD0198D4F828128842FA
:1016700009D80298D4F82812884204D80398D4F8DC
:10168000281288420DD94FF40041704804F0FFFD44
:10169000D4F86C0120F02000C4F86C012E2003F077
:1016A0006FFED4F8240200282CDD0F98D4F8241201
:1016B000884209D81098D4F82412884204D8119886
:1016C000D4F8241288421AD964480068401C63493F
:1016D000086008460068032814DD4FF400415B48A9
:1016E00004F0D5FDD4F86C0120F02000C4F86C01A2
:1016F0002D2003F045FE00205849086002E000203C
:1017000056490860D4F82C0200281CDD0498D4F84F
:101710002C12884209D80598D4F82C12884204D893
:101720000698D4F82C1288420DD94FF4004147484E
:1017300004F0ADFDD4F86C0120F02000C4F86C0179
:101740002F2003F01DFED4F81002002822DD12988D
:10175000D4F8101288421AD941480068401C404908
:10176000086008460068032814DD4FF400513D4826
:1017700004F08DFDD4F8680120F40060C4F868011D
:10178000282003F0FDFD00203549086002E000201C
:1017900033490860D4F81402002822DD1398D4F8E5
:1017A000141288421AD930480068401C2E4908603B
:1017B00008460068032814DD4FF48051294804F0DE
:1017C00066FDD4F8680120F48060C4F8680129201F
:1017D00003F0D6FD00202449086002E000202249E1
:1017E0000860D4F81802002812DD0998D4F81812FD
:1017F00088420DD94FF400511A4804F048FDD4F83E
:10180000680120F40060C4F868012A2003F0B8FDE4
:10181000D4F81C02002812DD0A98D4F81C12884261
:101820000DD94FF400510F4804F031FDD4F8680190
:1018300020F40060C4F868012B2003F0A1FD01E052
:1018400000E000BF00BF17B030BD0000001802402C
:10185000B8000020BC000020900000209400002070
:10186000C000002000040240C400002010B5012187
:10187000014803F0C0FF10BD380000202DE9F04101
:10188000024600260027002300240020151E01DB4D
:10189000AC4601E0C5F1000C0FFA8CF00A2590FB74
:1018A000F5FC05FB1C0690FBF5F54FF00A0C95FBCB
:1018B000FCF80CFB18552FB2642590FBF5F595FB51
:1018C000FCF80CFB18552BB24FF47A7590FBF5F52C
:1018D0002CB214B903B90A230A240C4D35F814505C
:1018E000DFF82CC0ACF81050084D35F81350ACF8A8
:1018F0001250064D35F817500D43ACF81450034DF7
:1019000035F81650ACF81650BDE8F081D8760008CE
:10191000CC1B00202DE9F0410246002600270023C1
:1019200000240020151E01DBAC4601E0C5F1000CCF
:101930000FFA8CF00A2590FBF5FC05FB1C0690FBCA
:10194000F5F54FF00A0C95FBFCF80CFB18552FB27F
:10195000642590FBF5F595FBFCF80CFB18552BB2B4
:101960004FF47A7590FBF5F52CB214B903B90A233C
:101970000A240C4D35F81450DFF82CC0ACF8005098
:10198000084D35F81350ACF80250064D35F8175095
:101990000D43ACF80450034D35F81650ACF8065022
:1019A000BDE8F081D8760008CC1B00202DE9F0417D
:1019B000024600260027002300240020151E01DB1C
:1019C000AC4601E0C5F1000C0FFA8CF00A2590FB43
:1019D000F5FC05FB1C0690FBF5F54FF00A0C95FB9A
:1019E000FCF80CFB18552FB2642590FBF5F595FB20
:1019F000FCF80CFB18552BB24FF47A7590FBF5F5FB
:101A00002CB214B903B90A230A240C4D35F814502A
:101A1000DFF82CC0ACF81850084D35F81350ACF86E
:101A20001A50064D35F817500D43ACF81C50034DB5
:101A300035F81650ACF81E50BDE8F081D876000895
:101A4000CC1B00202DE9F041024600260027002390
:101A500000240020151E01DBAC4601E0C5F1000C9E
:101A60000FFA8CF00A2590FBF5FC05FB1C0690FB99
:101A7000F5F54FF00A0C95FBFCF80CFB18552FB24E
:101A8000642590FBF5F595FBFCF80CFB18552BB283
:101A90004FF47A7590FBF5F52CB214B903B90A230B
:101AA0000A240C4D35F81450DFF82CC0ACF808505F
:101AB000084D35F81350ACF80A50064D35F817505C
:101AC0000D43ACF80C50034D35F81650ACF80E50E1
:101AD000BDE8F081D8760008CC1B00202DE9F0414C
:101AE000024600260027002300240020151E01DBEB
:101AF000AC4601E0C5F1000C0FFA8CF00A2590FB12
:101B0000F5FC05FB1C0690FBF5F54FF00A0C95FB68
:101B1000FCF80CFB18552FB2642590FBF5F595FBEE
:101B2000FCF80CFB18552BB24FF47A7590FBF5F5C9
:101B30002CB214B903B90A230A240C4D35F81450F9
:101B4000DFF82CC0ACF80050084D35F81350ACF855
:101B50000250064D35F817500D43ACF80450034DB4
:101B600035F81650ACF80650BDE8F081D87600087C
:101B7000AC1B00202DE9F04102460026002700237F
:101B800000240020151E01DBAC4601E0C5F1000C6D
:101B90000FFA8CF00A2590FBF5FC05FB1C0690FB68
:101BA000F5F54FF00A0C95FBFCF80CFB18552FB21D
:101BB000642590FBF5F595FBFCF80CFB18552BB252
:101BC0004FF47A7590FBF5F52CB214B903B90A23DA
:101BD0000A240C4D35F81450DFF82CC0ACF8005036
:101BE000084D35F81350ACF80250064D35F8175033
:101BF0000D43ACF80450034D35F81650ACF80650C0
:101C0000BDE8F081D87600088C1B00202DE9F0415A
:101C1000024600260027002300240020151E01DBB9
:101C2000AC4601E0C5F1000C0FFA8CF00A2590FBE0
:101C3000F5FC05FB1C0690FBF5F54FF00A0C95FB37
:101C4000FCF80CFB18552FB2642590FBF5F595FBBD
:101C5000FCF80CFB18552BB24FF47A7590FBF5F598
:101C60002CB214B903B90A230A240C4D35F81450C8
:101C7000DFF82CC0ACF80850084D35F81350ACF81C
:101C80000A50064D35F817500D43ACF80C50034D73
:101C900035F81650ACF80E50BDE8F081D876000843
:101CA000AC1B00202DE9F04102460026002700234E
:101CB00000240020151E01DBAC4601E0C5F1000C3C
:101CC0000FFA8CF00A2590FBF5FC05FB1C0690FB37
:101CD000F5F54FF00A0C95FBFCF80CFB18552FB2EC
:101CE000642590FBF5F595FBFCF80CFB18552BB221
:101CF0004FF47A7590FBF5F52CB214B903B90A23A9
:101D00000A240C4D35F81450DFF82CC0ACF80850FC
:101D1000084D35F81350ACF80A50064D35F81750F9
:101D20000D43ACF80C50034D35F81650ACF80E507E
:101D3000BDE8F081D87600088C1B00202DE9F04129
:101D4000024600260027002300240020151E01DB88
:101D5000AC4601E0C5F1000C0FFA8CF00A2590FBAF
:101D6000F5FC05FB1C0690FBF5F54FF00A0C95FB06
:101D7000FCF80CFB18552FB2642590FBF5F595FB8C
:101D8000FCF80CFB18552BB24FF47A7590FBF5F567
:101D90002CB214B903B90A230A240C4D35F8145097
:101DA000DFF82CC0ACF81050084D35F81350ACF8E3
:101DB0001250064D35F817500D43ACF81450034D32
:101DC00035F81650ACF81650BDE8F081D87600080A
:101DD000AC1B00202DE9F04102460026002700231D
:101DE00000240020151E01DBAC4601E0C5F1000C0B
:101DF0000FFA8CF00A2590FBF5FC05FB1C0690FB06
:101E0000F5F54FF00A0C95FBFCF80CFB18552FB2BA
:101E1000642590FBF5F595FBFCF80CFB18552BB2EF
:101E20004FF47A7590FBF5F52CB214B903B90A2377
:101E30000A240C4D35F81450DFF82CC0ACF81050C3
:101E4000084D35F81350ACF81250064D35F81750C0
:101E50000D43ACF81450034D35F81650ACF816503D
:101E6000BDE8F081D87600088C1B002010B5044630
:101E700014B1012C38D11BE02023022201211C487F
:101E800004F07DFA202302220021194804F0A6FA6A
:101E90002021174804F0FBF940F2EE2000F092FAFE
:101EA0002021134804F0F5F90F2000F08BFA1CE014
:101EB0001023022201210E4804F061FA10230222AD
:101EC00000210B4804F08AFA1021094804F0DFF9D8
:101ED00040F2EE2000F076FA1021054804F0D9F91E
:101EE0000F2000F06FFA00E000BF00BF002010BD1F
:101EF0000008024070B50546002415B1012D60D1DF
:101F00002FE0202302220021304804F038FA202359
:101F1000022200212D4804F061FA04E0012000F0C3
:101F200051FA601CC4B22021284804F020FA08B1FC
:101F3000C82CF3DBC82C01DB012070BD002404E0B9
:101F4000012000F03FFA601CC4B220211F4804F0B9
:101F50000EFA08B9F02CF3DBF02C01DB0120ECE7E2
:101F600030E0102302220021184804F008FA102360
:101F700002220021154804F031FA04E0012000F0AB
:101F800021FA601CC4B21021104804F0F0F908B125
:101F9000C82CF3DBC82C01DB0120CEE7002404E0D1
:101FA000012000F00FFA601CC4B21021074804F0B1
:101FB000DEF908B9F02CF3DBF02C01DB0120BCE7E3
:101FC00000E000BF00BF0020B7E7000000080240AB
:101FD00070B52DED048B00262948007810B101283A
:101FE00012D000BF0020274908700120FFF73EFFF4
:101FF0000120FFF77FFFCC21012000F07BF9442175
:10200000012000F077F92AE00120FFF72FFF0120DF
:10201000FFF770FFCC21012000F06CF9BE210120F8
:1020200000F068F9012000F0B7F80546012000F043
:10203000B3F8044645EA042005F0F9F841EC190B21
:102040009FED110B53EC102B05F008F941EC180B28
:1020500005F0C0F886B201200A49087000BF00BF31
:1020600007480078401C0649087008460078012897
:1020700001DD002008703046BDEC048B70BD00000F
:10208000CF000020C9000020000000000000E43F55
:1020900010B52DED048B00242B48007810B10128D9
:1020A00011D000BF002029490870FFF7DFFE002093
:1020B000FFF720FFCC21002000F01CF94421002074
:1020C00000F018F930E00020FFF7D0FE0020FFF705
:1020D00011FFCC21002000F00DF9BE21002000F0FE
:1020E00009F9002000F058F819490870002000F0A4
:1020F00053F81849087016490978164A127841EAC7
:10210000022005F094F841EC190B9FED130B53ECF2
:10211000102B05F0A3F841EC180B05F05BF884B226
:1021200001200A49087000BF00BF07480078401C22
:102130000549087008460078012801DD0020087074
:102140002046BDEC048B10BDCC000020C800002050
:10215000CE000020CD000020000000000000E43F81
:1021600010B51023022201210A4804F008F91023B7
:1021700002220021074804F031F920230222012124
:10218000044804F0FCF8202302220021014804F056
:1021900025F910BD0008024070B50646002516B1AD
:1021A000012E79D13BE0002436E0202302220121D8
:1021B0003B4804F0E4F8202302220021384804F0D0
:1021C0000DF92021364804F062F8022000F0FAF8F8
:1021D0002021334804F05DF82023022200213048FA
:1021E00004F0CDF82023022200212D4804F0F6F857
:1021F0000C2000F0E7F86D102021294804F0B7F812
:1022000008B145F08005322000F0DCF82021244898
:1022100004F03FF8601CC4B2082CC6DB3DE000248B
:1022200036E01023022201211D4804F0A8F81023F3
:10223000022200211A4804F0D1F81021184804F0B5
:1022400026F8022000F0BEF81021154804F021F80D
:10225000102302220021124804F091F810230222D8
:1022600000210F4804F0BAF80C2000F0ABF86D1014
:1022700010210B4804F07BF808B145F080053220AE
:1022800000F0A0F81021064804F003F8601CC4B266
:10229000082CC6DB01E0FFE700BF00BF284670BD89
:1022A0000008024070B50446002514B1012C08D185
:1022B00003E0FFF7EDFE054604E0FFF789FE054663
:1022C00000E000BF00BF284670BD000001460020AE
:1022D00011B1012906D102E0044A107803E0044A52
:1022E000107800E000BF00BF70470000C800002069
:1022F000C900002070B506460D4616B1012E5CD10E
:102300002DE02023022201212D4804F038F820235B
:10231000022200212A4804F061F800241CE0202158
:10232000274803F0B4FF022000F04CF805F001004C
:1023300020B12021224803F0ACFF03E020212048F7
:1023400003F0A5FF3C2000F03DF820211C4803F0DD
:10235000A0FF6D10601CC4B2082CE0DB2EE010233F
:1023600002220121164804F00AF81023022200215B
:10237000134804F033F800241CE01021104803F047
:1023800086FF022000F01EF805F0010020B11021A8
:102390000B4803F07EFF03E01021094803F077FFAC
:1023A0003C2000F00FF81021054803F072FF6D107B
:1023B000601CC4B2082CE0DB00E000BF00BF70BDB1
:1023C0000008024001B5002005E0002100E0491CA2
:1023D0002429FCDB401C009A9042F6D308BD01B5CD
:1023E00005E0002001E0411C88B20828FBDB0099D1
:1023F0004A1E00920029F4D108BD70B5044600259C
:1024000002F018FF05462C6070BD000010B5802159
:1024100042F2B820FFF7AEFB802142F2B820FFF76E
:1024200041FC802142F2B820FFF7D4FC802142F227
:10243000B820FFF753FB802142F2B820FFF7E6FBFC
:10244000802142F2B820FFF779FC802142F2B820C7
:10245000FFF760FA802142F2B820FFF7F3FA8021FB
:1024600042F2B820FFF70AFA802142F2B820FFF7C3
:102470009DFA0649002003F073F80549012003F096
:102480006FF80449022003F06BF810BD8C1B00208C
:10249000AC1B0020CC1B002070B5002402F0CAFE4B
:1024A00004460A21206B90FBF1F005B280212846FA
:1024B000FFF760FB0A21606B90FBF1F005B2802111
:1024C0002846FFF7EFFB0A21A06B90FBF1F005B265
:1024D00080212846FFF77EFC0A21E06B90FBF1F09B
:1024E00005B280212846FFF7F9FA0A21206C90FBFB
:1024F000F1F005B280212846FFF788FB0A21606CC5
:1025000090FBF1F005B280212846FFF717FC0A2165
:10251000A06C90FBF1F005B280212846FFF7FAF994
:102520000A21206D90FBF1F005B280212846FFF7CB
:1025300089FA0A21E06C90FBF1F005B2802128466F
:10254000FFF79CF90A21606D90FBF1F005B2802144
:102550002846FFF72BFA70BD10B502F0BFFFFFF75A
:102560009BFF0C49002002F0FBFF0B49012002F009
:10257000F7FF0A49022002F0F3FF02F0B7FC04461D
:10258000002C03DD0420FFF738FF02E00320FFF7F3
:1025900034FF10BD8C1B0020AC1B0020CC1B002086
:1025A00070B505460C4615B1012D23D10FE022462A
:1025B0000221480704F03BFB60220221480704F097
:1025C00009FB00220221480704F044FB13E02246E5
:1025D00003214FF0804004F02AFB602203214FF0DA
:1025E000804004F0F7FA002203214FF0804004F00D
:1025F00031FB00E000BF00BF70BD000030B5A1B0EE
:10260000002502F017FE04462C2116A8FDF770FEE7
:102610002C21FE48FDF76CFE2C210BA8FDF768FE6F
:102620002C216846FDF764FE6421F948FDF7C3FEDE
:1026300014257FE1F548006805EB450101EBC50174
:10264000F34A52F82110884202D9F048006806E0A7
:1026500005EB450000EBC500ED4951F82000EB49C2
:1026600008600846406805EB450101EBC501E84AF2
:1026700002EB81014968884202D9E448406807E0DA
:1026800005EB450000EBC500E14901EB8000406827
:10269000DE4948600846806805EB450101EBC5014D
:1026A000DB4A02EB81018968884202D9D7488068F9
:1026B00007E005EB450000EBC500D54901EB8000C4
:1026C0008068D24988600846C06805EB450101EB87
:1026D000C501CF4A02EB8101C968884202D9CB48C3
:1026E000C06807E005EB450000EBC500C84901EBF9
:1026F0008000C068C549C8600846006905EB45010F
:1027000001EBC501C24A02EB81010969884202D985
:10271000BE48006907E005EB450000EBC500BC4979
:1027200001EB80000069B94908610846406905EB82
:10273000450101EBC501B64A02EB810149698842B6
:1027400002D9B248406907E005EB450000EBC5003F
:10275000AF4901EB80004069AC4948610846806997
:1027600005EB450101EBC501A94A02EB810189692D
:10277000884202D9A548806907E005EB450000EBD7
:10278000C500A34901EB80008069A0498861084623
:10279000C06905EB450101EBC5019D4A02EB8101D2
:1027A000C969884202D99948C06907E005EB45002C
:1027B00000EBC500964901EB8000C0699349C861F0
:1027C0000846006A05EB450101EBC501904A02EBA2
:1027D0008101096A884202D98C48006A07E005EB4A
:1027E000450000EBC5008A4901EB8000006A87497B
:1027F00008620846406A05EB450101EBC501844AC1
:1028000002EB8101496A884202D98048406A07E0A8
:1028100005EB450000EBC5007D4901EB8000406AF7
:102820007A4948620846806A05EB450101EBC5011B
:10283000774A02EB8101896A884202D97348806A2B
:1028400007E005EB450000EBC500714901EB800096
:10285000806A6E49886205EB450101EBC5016C4A4F
:1028600052F8211016980844169005EB450101EB2B
:10287000C50102EB8101179849680844179005EBE0
:10288000450101EBC50102EB8101189889680844F4
:10289000189005EB450101EBC50102EB8101199888
:1028A000C9680844199005EB450101EBC50102EB2D
:1028B00081011A98096908441A9005EB450101EB5A
:1028C000C50102EB81011B98496908441B9005EB87
:1028D000450101EBC50102EB81011C98896908449F
:1028E0001C9005EB450101EBC50102EB81011D9830
:1028F000C96908441D9005EB450101EBC50102EBD8
:1029000081011E98096A08441E9005EB450101EB00
:10291000C50102EB81011F98496A08441F9005EB2D
:10292000450101EBC50102EB81012098896A084449
:1029300020906D1C642DFFF67DAE50211698B0FBE3
:10294000F1F016901798B0FBF1F017901898B0FBC3
:10295000F1F018901998B0FBF1F019901A98B0FBAB
:10296000F1F01A901B98B0FBF1F01B901C98B0FB93
:10297000F1F01C901D98B0FBF1F01D901E98B0FB7B
:10298000F1F01E901F98B0FBF1F01F902098B0FB63
:10299000F1F0209001F04EF908287CD2DFE800F039
:1029A000FBFAF9F804F7F6F51698B0F5167F08D299
:1029B0009FED180A8DED0B0A9FED160A8DED000AAA
:1029C00007E09FED150A8DED0B0A9FED140A8DEDC2
:1029D000000A1798B0F5167F08D29FED0E0A8DED0C
:1029E0000C0A9FED0C0A8DED010A07E09FED0C0A21
:1029F0008DED0C0A9FED0B0A8DED010A1898B0F5CC
:102A0000167F18D29FED030A0EE00000F01500209B
:102A1000C0040020000000004C37944100C047C6AD
:102A200077BE934100C842C68DED0D0A1FED070A1F
:102A30008DED020A07E09FEDF80A8DED0D0A9FED7E
:102A4000F70A8DED020A1698B0F5167F0DD394F8AB
:102A50006C0100F03F0040B19FEDF10A8DED0E0AD0
:102A60009FEDF00A8DED030A07E01FED160A8DEDCC
:102A70000E0A1FED180A8DED030A1798B0F5167FA0
:102A80000FD394F86C0100F03F0050B19FEDE60ABF
:102A90008DED0F0A00E0F0E39FEDE40A8DED040AEE
:102AA00007E01FED240A8DED0F0A1FED260A8DEDBC
:102AB000040A1898B0F5167F0DD394F86C0100F055
:102AC0003F0040B19FEDDA0A8DED100A9FEDD90A63
:102AD0008DED050A07E01FED310A8DED100A1FED9F
:102AE000330A8DED050A40F2EE211C98884208D287
:102AF0001FED380A8DED110A1FED3A0A8DED060A19
:102B000007E09FEDCD0A8DED110A9FEDCC0A8DED0A
:102B1000060A40F2EE211C9888420ED340F255512D
:102B2000D4F86801084040B19FEDC50A8DED120A46
:102B30009FEDC40A8DED070A07E01FED4A0A8DEDEF
:102B4000120A1FED4C0A8DED070A1E98B0F5487F5A
:102B500008D21FED500A8DED130A1FED520A8DEDBC
:102B6000080A07E09FEDB80A8DED130A9FEDB70A3A
:102B70008DED080A1E98B0F5487F16D340F6AA21BD
:102B8000D4F86801084080B106E002E12DE01FE2C0
:102B9000F0E3F0E3F0E3EFE29FEDAD0A8DED140A10
:102BA0009FEDAC0A8DED090A07E01FED660A8DED79
:102BB000140A1FED680A8DED090A42F22831D4F893
:102BC0007802884208DA9FEDA40A8DED150A9FED80
:102BD000A30A8DED0A0A07E01FED720A8DED150AB2
:102BE0001FED740A8DED0A0AC5E21FED760A8DED20
:102BF0000B0A1FED780A8DED0C0A1FED7A0A8DED98
:102C00000D0A1FED7C0A8DED000A1FED7E0A8DED89
:102C1000010A1FED800A8DED020A206B00280DDDF0
:102C200094F86C0100F0010040B19FED8D0A8DED2C
:102C30000E0A9FED8C0A8DED030A07E01FED8B0A4B
:102C40008DED0E0A1FED8D0A8DED030A606B0028D5
:102C50000DDD94F86C0100F0010040B19FED820A97
:102C60008DED0F0A9FED810A8DED040A07E01FED3F
:102C7000970A8DED0F0A1FED990A8DED040AA06BDE
:102C800000280DDD94F86C0100F0010040B19FEDCB
:102C9000780A8DED100A9FED770A8DED050A07E0A1
:102CA0001FEDA40A8DED100A1FEDA60A8DED050A91
:102CB000A06C00281ADD94F8680100F00100A8B1AA
:102CC00040F2EE211C98884210D99FED6B0A8DEDE1
:102CD000110A9FED6A0A8DED060AB2EE040A8DED27
:102CE000120A9FED670A8DED070A0FE01FEDB70A84
:102CF0008DED110A1FEDB90A8DED060A1FEDBB0A15
:102D00008DED120A1FEDBD0A8DED070A206D00281A
:102D100019DD94F8680100F00200A0B11E98B0F52A
:102D2000487F10D99FED570A8DED130A9FED560A83
:102D30008DED080A9FED550A8DED140A9FED540A9A
:102D40008DED090A0FE01FEDCD0A8DED130A1FED81
:102D5000CF0A8DED080A1FEDD10A8DED140A1FED83
:102D6000D30A8DED090A2098B0F5487F08D39FED6E
:102D7000490A8DED150A9FED480A8DED0A0A07E014
:102D80001FEDDC0A8DED150A1FEDDE0A8DED0A0A36
:102D9000F1E11FEDE00A8DED0B0A1FEDE20A8DED6A
:102DA0000C0A1FEDE40A8DED0D0A1FEDE60A8DED0C
:102DB000000A1FEDE80A8DED010A1FEDEA0A8DED0C
:102DC000020A206B00280DDD94F86C0100F002006F
:102DD00040B19FED320A8DED0E0A9FED310A8DED67
:102DE000030A07E01FEDF50A8DED0E0A1FEDF70A45
:102DF0008DED030A606B002858DD94F86C0100F03B
:102E0000020040B19FED270A8DED0F0A9FED260AC3
:102E10008DED040A52E049E077BE8F4100843DC643
:102E2000091B9E3F9A1948C3D42B8D3F71FD35C3B2
:102E300075028A3F5C0F34C3C364BA3F712D37C437
:102E4000696FB83FD73372C49B55C73F9AA984C4F2
:102E50001058893F66669BC4363C1D3FAE372DC473
:102E600019738F3F9A9907C3A392923F33B30BC351
:102E70009CA2933F48A113C32575C23F666668C4F0
:102E80000030E3C53D2CCC3F33D38CC4143FB84055
:102E90009A99C6C5819551410048EBC546B69B3FFE
:102EA000C3B548C37DAE9E3FB8DE43C39FEDFE0A67
:102EB0008DED0F0A9FEDFC0A8DED040AA06B002832
:102EC0000DDD94F86C0100F0020040B19FEDF70AAF
:102ED0008DED100A9FEDF60A8DED050A07E09FEDD6
:102EE000F20A8DED100A9FEDF00A8DED050AA06C37
:102EF00000281ADD94F8680100F00400A8B140F23F
:102F0000EE211C98884210D99FEDEA0A8DED110A36
:102F10009FEDE90A8DED060A9FEDE80A8DED120A94
:102F20009FEDE70A8DED070A0FE09FEDDF0A8DEDBB
:102F3000110A9FEDDD0A8DED060A9FEDDB0A8DED8E
:102F4000120A9FEDD90A8DED070A206D002819DDC0
:102F500094F8680100F00800A0B11E98B0F5487F11
:102F600010D99FEDD80A8DED130A9FEDD70A8DED8C
:102F7000080A9FEDD60A8DED140A9FEDD50A8DED56
:102F8000090A0FE09FEDC80A8DED130A9FEDC60AEE
:102F90008DED080A9FEDC40A8DED140A9FEDC20A5B
:102FA0008DED090A2098B0F5487F08D39FEDC90A36
:102FB0008DED150A9FEDC80A8DED0A0A07E09FED19
:102FC000BA0A8DED150A9FEDB80A8DED0A0AD2E016
:102FD0009FEDB50A8DED0B0A9FEDB30A8DED0C0A3E
:102FE0009FEDB10A8DED0D0A9FEDAF0A8DED000A40
:102FF0009FEDAD0A8DED010A9FEDAB0A8DED020A42
:10300000206B00280DDD94F86C0100F0040040B145
:103010009FEDB20A8DED0E0A9FEDB10A8DED030A08
:1030200007E09FEDA10A8DED0E0A9FED9F0A8DED41
:10303000030A606B00280DDD94F86C0100F00400B9
:1030400040B19FEDA80A8DED0F0A9FEDA70A8DED07
:10305000040A07E09FED940A8DED0F0A9FED920A96
:103060008DED040AA06B00280DDD94F86C0100F0D2
:10307000040040B19FED9D0A8DED100A9FED9C0A62
:103080008DED050A07E09FED880A8DED100A9FED92
:10309000860A8DED050AA06C00281ADD94F86801F7
:1030A00000F01000A8B140F2EE211C98884210D91F
:1030B0009FED900A8DED110A9FED8F0A8DED060AA6
:1030C0009FED8E0A8DED120A9FED8D0A8DED070A98
:1030D0000FE09FED750A8DED110A9FED730A8DEDDE
:1030E000060A9FED710A8DED120A9FED6F0A8DEDB4
:1030F000070A206D002819DD94F8680100F020000F
:10310000A0B11E98B0F5487F10D99FED7E0A8DEDD5
:10311000130A9FED7D0A8DED080A9FED7C0A8DED67
:10312000140A9FED7B0A8DED090A0FE09FED5E0A00
:103130008DED130A9FED5C0A8DED080A9FED5A0A8A
:103140008DED140A9FED580A8DED090A2098B0F50F
:10315000487F08D39FED6F0A8DED150A9FED6E0A2B
:103160008DED0A0A07E09FED500A8DED150A9FEDDF
:103170004E0A8DED0A0AEBE39FED4B0A8DED0B0A2B
:103180009FED490A8DED0C0A9FED470A8DED0D0A62
:103190009FED450A8DED000A9FED430A8DED010A72
:1031A0009FED410A8DED020A206B00280DDD94F899
:1031B0006C0100F0080040B19FED580A8DED0E0A39
:1031C0009FED570A8DED030A07E09FED370A8DED5D
:1031D0000E0A9FED350A8DED030A606B00280DDDA8
:1031E00094F86C0100F0080040B19FED4E0A8DED9F
:1031F0000F0A9FED4D0A8DED040A07E09FED2A0AA4
:103200008DED0F0A9FED280A8DED040AA06B0028B2
:103210000DDD94F86C0100F0080040B19FED430A09
:103220008DED100A9FED420A8DED050A07E09FED36
:103230001E0A8DED100A9FED1C0A8DED050AA06C8B
:1032400000281BDD94F8680100F04000B0B140F2A6
:10325000EE211C98884211D99FED360A8DED110A96
:103260009FED350A8DED060A9FED340A8DED120AA9
:103270009FED330A8DED070A10E068E39FED0A0A1F
:103280008DED110A9FED080A8DED060A9FED060AE5
:103290008DED120A9FED040A8DED070A206D0028BE
:1032A0006CDD94F868014DE00000000098DD9B3F64
:1032B000D76340C38885C23F3D0A68C4D578D740EC
:1032C000CD6C8EC5234ACB3F33338DC49CC4804024
:1032D000CD1484C5560E7741001038C6B5A6893F77
:1032E000333303C3EF388D3F008005C3A1F8913F0E
:1032F000291C13C3EA95C23F00006AC46ABC40415E
:103300009A3905C6E63FCC3F00E08BC46DE7C1406B
:1033100066D6D4C5508DBF4100EEBBC68D978E3F9B
:103320000A970EC3B29D8F3F8FC207C34260953F7D
:10333000C3350DC3E10BC33FEC3168C4B0720E411D
:10334000CDE0BEC500F08000B8B11E98B0F5487F52
:1033500014D99FEDFA0A8DED130A9FEDF90A8DED50
:10336000080A9FEDF80A8DED140A9FEDF70A8DED1E
:10337000090A13E0CDE126E0F8E0FFE71FED360A89
:103380008DED130A1FED380A8DED080A1FED3A0A7C
:103390008DED140A1FED3C0A8DED090AA069002885
:1033A00008DD9FEDEA0A8DED150A9FEDE90A8DED26
:1033B0000A0A07E01FED440A8DED150A1FED460AC3
:1033C0008DED0A0AC4E21FED480A8DED0B0A1FEDD0
:1033D0004A0A8DED0C0A1FED4C0A8DED0D0A1FED0A
:1033E0004E0A8DED000A1FED500A8DED010A1FED0A
:1033F000520A8DED020A206B00280DDD94F86C0155
:1034000000F0100040B19FEDD30A8DED0E0A9FED44
:10341000D20A8DED030A07E01FED5D0A8DED0E0A5D
:103420001FED5F0A8DED030A606B00280DDD94F837
:103430006C0100F0100040B19FEDC80A8DED0F0A3D
:103440009FEDC70A8DED040A07E01FED690A8DEDB7
:103450000F0A1FED6B0A8DED040AA06B00280DDD2D
:1034600094F86C0100F0100040B19FEDBE0A8DEDA4
:10347000100A9FEDBD0A8DED050A07E01FED760AE3
:103480008DED100A1FED780A8DED050AA06C00285D
:103490001ADDB4F8680100F48070A8B140F2EE21A2
:1034A0001C98884210D99FEDB10A8DED110A9FED4D
:1034B000B00A8DED060A9FEDAF0A8DED120A9FED61
:1034C000AE0A8DED070A0FE01FED890A8DED110A96
:1034D0001FED8B0A8DED060A1FED8D0A8DED120A88
:1034E0001FED8F0A8DED070A206D002819DDB4F855
:1034F000680100F40070A0B11E98B0F5487F10D9A3
:103500009FED9E0A8DED130A9FED9D0A8DED080A31
:103510009FED9C0A8DED140A9FED9B0A8DED090A23
:103520000FE01FED9F0A8DED130A1FEDA10A8DED2F
:10353000080A1FEDA30A8DED140A1FEDA50A8DEDF3
:10354000090AE069002808DD9FED900A8DED150A53
:103550009FED8F0A8DED0A0A07E01FEDAD0A8DED94
:10356000150A1FEDAF0A8DED0A0AF1E11FEDB20A4F
:103570008DED0B0A1FEDB40A8DED0C0A1FEDB60A96
:103580008DED0D0A1FEDB80A8DED000A1FEDBA0A88
:103590008DED010A1FEDBC0A8DED020A206B00289B
:1035A0000DDD94F86C0100F0200040B19FED790A28
:1035B0008DED0E0A9FED780A8DED030A07E01FEDF1
:1035C000C60A8DED0E0A1FEDC80A8DED030A606B69
:1035D00000280DDD94F86C0100F0200040B19FED53
:1035E0006F0A8DED0F0A9FED6E0A8DED040A07E05C
:1035F0001FEDD30A8DED0F0A1FEDD50A8DED040ADC
:10360000A06B00280DDD94F86C0100F0200040B1A3
:103610009FED640A8DED100A9FED630A8DED050A9A
:1036200007E01FEDDF0A8DED100A1FEDE10A8DEDB9
:10363000050AA06C00281ADDB4F8680100F4806067
:10364000A8B140F2EE211C98884210D99FED570A8C
:103650008DED110A9FED560A8DED060A9FED550A74
:103660008DED120A9FED540A8DED070A0FE01FED54
:10367000F20A8DED110A1FEDF40A8DED060A1FED19
:10368000F60A8DED120A1FEDF80A8DED070A206D7E
:10369000002819DDB4F8680100F40060A0B11E989C
:1036A000B0F5487F10D99FED450A8DED130A9FEDC7
:1036B000440A8DED080A9FED430A8DED140A9FED33
:1036C000420A8DED090A0FE09FED400A8DED130AC5
:1036D0009FED3E0A8DED080A9FED3C0A8DED140A20
:1036E0009FED3A0A8DED090A206A002808DD9FED5A
:1036F000380A8DED150A9FED370A8DED0A0A07E0AD
:103700009FED320A8DED150A9FED300A8DED0A0A04
:103710001EE11698B0F5167F5ED29FED2C0A8DED56
:103720000B0A9FED2A0A8DED000A9FED280A8DED08
:103730000E0A9FED260A8DED030A5DE0DE02C93F09
:10374000CDBC83C47CF2C240660ADDC57368913F7C
:10375000A4708EC3C4428D3F71BD07C3B150933F67
:103760008F420BC3728A963F7B1406C3F5B9C23FE2
:10377000F6F865C4CA321E416672D6C5C7BAC83FDC
:1037800033B385C401DEC44066E2DBC5DF4F853F4D
:10379000CDCC46C3D044883F0000F7C24DF39E3FD6
:1037A000CD0C10C3A9A48E3FAE4701C38195C33F82
:1037B0005C4F6AC47B144A41661E09C64013C93F68
:1037C000667688C48AB0E740CD0800C600000000D5
:1037D00054E3853F0A5747C39FEDFB0A8DED0B0A63
:1037E0009FEDFA0A8DED000A9FEDF90A8DED0E0AA4
:1037F0009FEDF80A8DED030A1798B0F5167F10D2E9
:103800001FED0E0A8DED0C0A1FED100A8DED010A59
:103810001FED120A8DED0F0A1FED140A8DED040A3B
:103820000FE09FEDED0A8DED0C0A9FEDEC0A8DED9A
:10383000010A9FEDEB0A8DED0F0A9FEDEA0A8DED6F
:10384000040A1898B0F5167F10D21FED200A8DEDEE
:103850000D0A1FED220A8DED020A1FED240A8DEDDF
:10386000100A1FED260A8DED050A0FE09FEDDE0A16
:103870008DED0D0A9FEDDD0A8DED020A9FEDDC0A4C
:103880008DED100A9FEDDB0A8DED050A1C98B0F551
:10389000167F10D21FED330A8DED110A1FED350A88
:1038A0008DED120A1FED370A8DED060A1FED390A5C
:1038B0008DED070A0FE09FEDD00A8DED110A9FED07
:1038C000CF0A8DED120A9FEDCE0A8DED060A9FED0F
:1038D000CD0A8DED070A1E98B0F5167F10D21FEDA8
:1038E000450A8DED130A1FED470A8DED080A1FEDFD
:1038F000490A8DED140A1FED4B0A8DED090A1DE0F2
:103900009FEDC10A8DED130A9FEDC00A8DED080AE7
:10391000B4F8680100F4805040B19FEDBD0A8DED10
:10392000140A9FEDBC0A8DED090A07E01FED590A44
:103930008DED140A1FED5B0A8DED090A1FED5D0A7E
:103940008DED150A1FED5F0A8DED0A0A00E000BF3C
:1039500000BF9DED000AB048D0ED000AF8EE600A05
:103960009DED0B1A00EE810ABCEEC00A80ED000A44
:103970009DED010AD0ED010AF8EE600A9DED0C1AEA
:1039800000EE810ABCEEC00A80ED010A9DED020A3C
:10399000D0ED020AF8EE600A9DED0D1A00EE810AE4
:1039A000BCEEC00A80ED020A9DED030AD0ED030AC9
:1039B000F8EE600A9DED0E1A00EE810ABCEEC00A18
:1039C00080ED030A9DED040AD0ED040AF8EE600ACA
:1039D0009DED0F1A00EE810ABCEEC00A80ED040ACC
:1039E0009DED050AD0ED050AF8EE600A9DED101A6E
:1039F00000EE810ABCEEC00A80ED050A9DED060AC4
:103A0000D0ED060AF8EE600A9DED111A00EE810A6B
:103A1000BCEEC00A80ED060A9DED070AD0ED070A4C
:103A2000F8EE600A9DED121A00EE810ABCEEC00AA3
:103A300080ED070A9DED080AD0ED080AF8EE600A4D
:103A40009DED131A00EE810ABCEEC00A80ED080A53
:103A50009DED090AD0ED090AF8EE600A9DED141AF1
:103A600000EE810ABCEEC00A80ED090A9DED0A0A4B
:103A7000D0ED0A0AF8EE600A9DED151A00EE810AF3
:103A8000BCEEC00A80ED0A0A9DED000ADDED160AC3
:103A9000F8EE600A9DED0B1A00EE810ABCEEC00A3A
:103AA0005E4880ED000A9DED010ADDED170AF8EE93
:103AB000600A9DED0C1A00EE810ABCEEC00A80ED92
:103AC000010A9DED020ADDED180AF8EE600A9DED8F
:103AD0000D1A00EE810ABCEEC00A80ED020A9DEDCF
:103AE000030ADDED190AF8EE600A9DED0E1A00EEEC
:103AF000810ABCEEC00A80ED030A9DED040ADDEDEB
:103B00001A0AF8EE600A9DED0F1A00EE810ABCEE6B
:103B1000C00A80ED040A9DED050ADDED1B0AF8EEF2
:103B2000600A9DED101A00EE810ABCEEC00A80ED1D
:103B3000050A9DED060ADDED1C0AF8EE600A9DED12
:103B4000111A00EE810ABCEEC00A80ED060A9DED56
:103B5000070ADDED1D0AF8EE600A9DED121A00EE6F
:103B6000810ABCEEC00A80ED070A9DED080ADDED72
:103B70001E0AF8EE600A9DED131A00EE810ABCEEF3
:103B8000C00A80ED080A9DED090ADDED1F0AF8EE76
:103B9000600A9DED141A00EE810ABCEEC00A80EDA9
:103BA000090A9DED0A0ADDED200AF8EE600A9DED96
:103BB000151A00EE810ABCEEC00A80ED0A0A002048
:103BC0001749087021B030BD0000B642001FD8C7A9
:103BD000AF258C3FF25281C268D1BF420034E9C7A1
:103BE000CFF7633F25069CC2142E284340215FC8AF
:103BF0003277B53F1B6FB5C23BDF9541E5D036400C
:103C000000C8C6C5ECF1DB430D71C43F1FA573C4EA
:103C1000CD3B0E3F0A871CC4F01500201C16002067
:103C20004000002070470000014800687047000015
:103C3000500000200448006808B907207047024877
:103C40000068401EFAE7000060000020014903C937
:103C500070470000D0000020014800687047000055
:103C60005400002010B504462C2202492046FCF7DF
:103C70000DFB10BD1C1600202DE9F0410646002466
:103C8000012701F0D7FA054607FA04F03040002872
:103C900004DD0121634802F0FCFA15E001216148CE
:103CA00002F0F5FAD5F86C0120F00100C5F86C01BE
:103CB000042001F045FB052001F042FB062001F045
:103CC0003FFB072001F03CFB641C07FA04F0304086
:103CD000002804DD0821534802F0DBFA15E0082132
:103CE000504802F0D4FAD5F86C0120F00200C5F873
:103CF0006C010C2001F024FB0D2001F021FB0E20B3
:103D000001F01EFB0F2001F01BFB641C07FA04F0FE
:103D10003040002804DD4021424802F0BAFA15E0A4
:103D20004021404802F0B3FAD5F86C0120F00400BD
:103D3000C5F86C01142001F003FB152001F000FB15
:103D4000162001F0FDFA172001F0FAFA641C07FAB8
:103D500004F03040002805DD4FF40071314802F0D6
:103D600098FA16E04FF400712E4802F090FAD5F858
:103D70006C0120F00800C5F86C011C2001F0E0FA8D
:103D80001D2001F0DDFA1E2001F0DAFA1F2001F0FB
:103D9000D7FA641C07FA04F03040002805DD4FF420
:103DA0008051204802F075FA16E04FF480511D480A
:103DB00002F06DFAD5F86C0120F01000C5F86C0126
:103DC000242001F0BDFA252001F0BAFA262001F0E6
:103DD000B7FA272001F0B4FA641C07FA04F0304067
:103DE000002805DD4FF400410E4802F052FA16E0BB
:103DF0004FF400410B4802F04AFAD5F86C0120F06C
:103E00002000C5F86C012C2001F09AFA2D2001F059
:103E100097FA2E2001F094FA2F2001F091FA641CF9
:103E2000BDE8F081001802402DE9F041064600246B
:103E3000012701F0FFF9054607FA04F03040002899
:103E400004DD0221D34802F024FA0FE00221D14818
:103E500002F01DFAD5F8680120F00100C5F86801EC
:103E6000012001F06DFA002001F06AFA641C07FAE3
:103E700004F03040002804DD0421C64802F009FAAD
:103E80000FE00421C34802F002FAD5F8680120F0DF
:103E90000200C5F86801032001F052FA022001F087
:103EA0004FFA641C07FA04F03040002804DD1021AA
:103EB000B84802F0EEF90FE01021B64802F0E7F939
:103EC000D5F8680120F00400C5F86801092001F068
:103ED00037FA082001F034FA641C07FA04F0304085
:103EE000002804DD2021AB4802F0D3F90FE02021A7
:103EF000A84802F0CCF9D5F8680120F00800C5F810
:103F000068010B2001F01CFA0A2001F019FA641C68
:103F100007FA04F03040002804DD80219D4802F0BB
:103F2000B8F90FE080219B4802F0B1F9D5F868019B
:103F300020F01000C5F86801112001F001FA1020EE
:103F400001F0FEF9641C07FA04F03040002805DD9A
:103F50004FF480718F4802F09CF910E04FF48071AB
:103F60008C4802F094F9D5F8680120F02000C5F8DB
:103F70006801132001F0E4F9122001F0E1F9641C5A
:103F800007FA04F03040002805DD4FF480618148D5
:103F900002F07FF910E04FF480617E4802F077F97B
:103FA000D5F8680120F04000C5F86801192001F03B
:103FB000C7F9182001F0C4F9641C07FA04F0304076
:103FC000002805DD4FF40061724802F062F910E04C
:103FD0004FF400616F4802F05AF9D5F8680120F0FB
:103FE0008000C5F868011B2001F0AAF91A2001F031
:103FF000A7F9641C07FA04F03040002805DD4FF4EF
:104000000051644802F045F910E04FF40051614856
:1040100002F03DF9D5F8680120F48070C5F8680118
:10402000212001F08DF9202001F08AF9641C07FAA3
:1040300004F03040002805DD4FF48041554802F07F
:1040400028F910E04FF48041524802F020F9D5F8E9
:10405000680120F40070C5F86801232001F070F9B0
:10406000222001F06DF9641C07FA04F030400028AA
:1040700005DD4FF48051484802F00BF910E04FF491
:104080008051454802F003F9D5F8680120F48060BA
:10409000C5F86801292001F053F9282001F050F9F2
:1040A000641C07FA04F03040002805DD4FF400518D
:1040B000394802F0EEF810E04FF40051364802F0B3
:1040C000E6F8D5F8680120F40060C5F868012B20F7
:1040D00001F036F92A2001F033F9641C07FA04F0E4
:1040E0003040002805DD4FF480612C4802F0D1F803
:1040F0000AE04FF48061294802F0C9F8D5F8680158
:1041000020F48050C5F86801641C07FA04F03040C0
:10411000002805DD4FF48041214802F0BAF80AE09A
:104120004FF480411E4802F0B2F8D5F8680120F43F
:104130000050C5F86801641C07FA04F030400028FC
:1041400004DD4021144802F0A4F809E0402112489F
:1041500002F09DF8D5F8680120F48040C5F86801A8
:10416000641C07FA04F03040002805DD4FF40041DC
:104170000B4802F08EF80AE04FF40041084802F0C4
:1041800086F8D5F8680120F40040C5F86801641C81
:10419000BDE8F0810018024000040240000802401F
:1041A000000C024010B501F045F80446D4F8640153
:1041B00001280ED1D4F86801FFF736FED4F86C015F
:1041C000FFF75AFDD4F86811D4F86C0101F0CEF86D
:1041D00007E0FFF729FDC4F86C01FFF73DFDC4F8C7
:1041E000680110BD10B540F6044002F07BFA4FF4B0
:1041F000805301221146114802F0C1F84FF4805358
:10420000022200210D4802F0E9F84FF40053012288
:1042100011460A4802F0B3F84FF40053022200217D
:10422000064802F0DBF84FF48051044802F031F800
:104230004FF40051014802F02AF810BD001002406E
:1042400010B540480068401C3E49086008460068B8
:10425000072801D9002008603A480068082805D2DC
:10426000DFE800F005121F2C3946536000BF012122
:10427000354802F00CF80221334802F008F8042116
:10428000314802F004F85AE001212F4802F001F809
:1042900002212D4801F0FBFF04212B4801F0F7FF1C
:1042A0004DE00121284801F0F2FF0221264801F0EB
:1042B000F0FF0421244801F0EAFF40E001212248F8
:1042C00001F0E7FF0221204801F0E3FF04211E482E
:1042D00001F0DDFF33E001211B4801F0D8FF02218E
:1042E000194801F0D4FF0421174801F0D2FF26E05D
:1042F0000121154801F0CDFF0221134801F0C7FF4D
:104300000421114801F0C5FF19E001210E4801F018
:10431000BEFF02210C4801F0BCFF04210A4801F055
:10432000B8FF0CE00121084801F0B3FF0221064864
:1043300001F0AFFF0421044801F0ABFF00BF00BF54
:1043400010BD0000600000200008024010B50446C7
:10435000082C05D2DFE804F005121F2C3946536003
:1043600000BF0121354801F092FF0221334801F0DE
:104370008EFF0421314801F08AFF5AE001212F48C5
:1043800001F087FF02212D4801F081FF04212B4815
:1043900001F07DFF4DE00121284801F078FF022166
:1043A000264801F076FF0421244801F070FF40E028
:1043B0000121224801F06DFF0221204801F069FF30
:1043C00004211E4801F063FF33E001211B4801F086
:1043D0005EFF0221194801F05AFF0421174801F03D
:1043E00058FF26E00121154801F053FF0221134830
:1043F00001F04DFF0421114801F04BFF19E00121AC
:104400000E4801F044FF02210C4801F042FF042154
:104410000A4801F03EFF0CE00121084801F039FF95
:104420000221064801F035FF0421044801F031FF64
:1044300000BF00BF0248046010BD00000008024039
:104440006000002010B501F00DFD044600F0F2FE02
:10445000C0F8604102F0EAF901F0F2FC00F0E0F887
:10446000FFF7A0FEFEF778F800F0E0FE007828B134
:1044700000F0DCFE04460078401E207008480078FA
:10448000C043074908700846007820B1022105485A
:1044900001F0FFFE03E00221024801F0F8FE10BD2A
:1044A00048000020000C024030B504460D4695E857
:1044B0000F0084E80F000E206061204600F001F834
:1044C00030BD00BF9D2342685A43192392FBF3F18C
:1044D000037D01229A404A4303680B4492FBF3F2A6
:1044E0000261704730B5ADF2845D002400254FF4C1
:1044F000B062124901A8FBF7C9FE00BF19E0002510
:1045000014E004EB440202EBC40201AB03EB021221
:1045100002EB051104EB440202EBC402084B03EB6F
:10452000421202EB4510FFF7BFFF6D1C0B2DE8DBBD
:10453000641C082CE3DB0DF2845D30BDF0760008CE
:10454000381D002010B50421014801F0A2FE10BD65
:104550000000024010B50421014801F098FE10BD92
:104560000000024010B51021014801F092FE10BD7C
:104570000000024010B51021014801F088FE10BD76
:104580000000024010B54021014801F082FE10BD3C
:104590000000024010B54021014801F078FE10BD36
:1045A0000000024010B50221014801F072FE10BD6A
:1045B0000000024010B50221014801F068FE10BD64
:1045C0000000024010B50821014801F062FE10BD54
:1045D0000000024010B50821014801F058FE10BD4E
:1045E0000000024010B52021014801F052FE10BD2C
:1045F0000000024010B52021014801F048FE10BD26
:104600000000024001200549C1F864010020C1F802
:1046100074026420C1F85C01704700000819002092
:1046200000B58BB04FF4B87220492148FBF72EFE3D
:1046300020482149D1E91A23096FC0E91A230167EB
:104640001D49D1E91E23D1F88010C0E91E23C0F80E
:1046500080101A480A9006208DF8000000F0F2FD44
:10466000019000F0EBFD0890FDF700F98DF80800CF
:10467000134803901348059013480490134807907B
:104680000B480690684600F023F84FF482720949FF
:104690009C3909489C38FBF7F9FD04480449D1F8D6
:1046A0007412C0F874120BB000BD0000081900208D
:1046B0005C1600205C180020081B0020004400400D
:1046C0004C0000205216002048160020E018002060
:1046D00070B5FEB0044600264FF4FA7101A8FBF74E
:1046E00007FE207A012870D1206A008802286DDD3B
:1046F000606800782178884268D160684078012835
:104700001BD060684078022817D060684078032882
:1047100013D06068407804280FD06068407805287E
:104720000BD060684078062807D0606840780F2872
:1047300003D06068407810286ED160684078042803
:1047400002DD0220E16808706068C07861688978DD
:1047500040EA0120A084226A1288911E6068FCF75A
:104760003DF80646206A0088801E6168095C206A60
:104770000088401E6268105C41EA0025AE4238D1D4
:1047800060684078052822D008DC01280DD0022876
:104790000FD0032811D0042829D112E006281AD0FE
:1047A0000F281CD0102822D11DE0204600F0DEFA90
:1047B0001EE0204600F07EFC1AE0204600F0A0FB40
:1047C00016E0204600F009FC12E03AE036E0204610
:1047D00001F087FC0CE0204601F03EFC08E020469A
:1047E00001F04AFB04E0204601F0C3FB00E000BFFB
:1047F00024E0606800788DF804006068407840F03C
:1048000080008DF8050004208DF80600032201A920
:10481000A06A01F0E3FA11E0606800788DF8040006
:104820006068407840F080008DF8050001208DF828
:104830000600032201A9A06A01F0D0FA0020216A33
:1048400008807EB070BD10B500F0B4FF00F0FEFC33
:1048500010BD000000B587B04FF0804002F028FA8C
:1048600040F6014001F03EFF4FF4805001F03AFF66
:104870004FF0807001F06CFF4FF440630022022182
:10488000374801F07CFD4FF4406302220021344898
:1048900001F0A4FD4FF440620121314801F0C8FC51
:1048A0000920ADF80C000020ADF80E00ADF81000A6
:1048B00042F20F7005900020ADF812008DF818003C
:1048C00003A94FF0804002F0BBFA0120ADF80000D0
:1048D0000020ADF80200ADF80400ADF80600ADF818
:1048E0000800ADF80A006A460221480702F07CF889
:1048F00042F2AC620221480702F099F960220221DB
:10490000480702F067F900220221480702F0A2F9E5
:104910006A4603214FF0804002F066F842F2AC6232
:1049200003214FF0804002F082F9602203214FF012
:10493000804002F04FF9002203214FF0804002F046
:1049400089F94FF0804002F049F80121880702F010
:10495000C3FA4FF0804002F06DFA07B000BD0000CE
:104960000004024010B540F6014001F0BBFE40F6E5
:10497000024001F0B7FE40F6034001F0B3FE40F6FE
:10498000064001F0AFFEF54801F08AFC0123022247
:104990001946F24801F0F3FC012302220021EF48FE
:1049A00001F01CFD02231A460121EC4801F0E7FC4E
:1049B00002231A460021E94801F010FD04230222D7
:1049C0000121E64801F0DBFC042302220021E34838
:1049D00001F004FD082302220121E04801F0CFFC90
:1049E000082302220021DD4801F0F8FC10230222F6
:1049F0000121DA4801F0C3FC102302220021D7482C
:104A000001F0ECFC202302220121D44801F0B7FC84
:104A1000202302220021D14801F0E0FC40230222A1
:104A20000121CE4801F0ABFC402302220021CB48FB
:104A300001F0D4FC802302220121C84801F09FFC30
:104A4000802302220021C54801F0C8FC4FF4807386
:104A500002220121C14801F092FC4FF4807302222E
:104A60000021BE4801F0BAFC4FF40073022201217C
:104A7000BA4801F084FC4FF4007302220021B748C9
:104A800001F0ACFC4FF4806302220121B34801F035
:104A900076FC4FF4806302220021B04801F09EFCB6
:104AA0004FF4006302220121AC4801F068FC4FF48E
:104AB000006302220021A94801F090FC4FF48053CA
:104AC00002220121A54801F05AFC4FF48053022232
:104AD0000021A24801F082FC4FF400530222012180
:104AE0009E4801F04CFC4FF40053022200219B48E9
:104AF00001F074FC4FF4804302220121974801F039
:104B00003EFC4FF4804302220021944801F066FCF1
:104B10004FF4004302220121904801F030FC4FF491
:104B20000043022200218D4801F058FC8C4801F01E
:104B3000B7FB012302221946894801F020FC01231A
:104B400002220021864801F049FC02231A46012175
:104B5000834801F014FC02231A460021804801F02A
:104B60003DFC0423022201217D4801F008FC0423BE
:104B7000022200217A4801F031FC0823022201219F
:104B8000774801F0FCFB082302220021744801F061
:104B900025FC102302220121714801F0F0FB1023B3
:104BA000022200216E4801F019FC2023022201217B
:104BB0006B4801F0E4FB202302220021684801F049
:104BC0000DFC4FF4807302220121654801F0D7FBF0
:104BD0004FF4807302220021614801F0FFFB4FF483
:104BE0000073022201215E4801F0C9FB4FF40073FB
:104BF000022200215A4801F0F1FB4FF480630222A7
:104C00000121574801F0BBFB4FF4806302220021D1
:104C1000534801F0E3FB4FF40063022201215048A6
:104C200001F0ADFB4FF40063022200214C4801F07B
:104C3000D5FB2023022201214A4801F0A0FB2023BA
:104C400002220021484801F0C9FB402301221146FD
:104C5000444801F094FB402302220021424801F025
:104C6000BDFB4FF48063022201213E4801F087FB27
:104C70004FF48063022200213B4801F0AFFB4FF468
:104C8000006302220121374801F079FB4FF40063F1
:104C900002220021344801F0A1FB4FF4805302228C
:104CA0000121304801F06BFB4FF4805302220021B8
:104CB0002D4801F093FB4FF400530122114629487F
:104CC00001F05DFB4FF4005302220021264801F061
:104CD00085FB02231A460121234801F050FB0223E1
:104CE0001A460021204801F079FB4FF400630122AD
:104CF00011461D4801F043FB4FF4006302220021DE
:104D0000194801F06BFB4FF480430122114616480D
:104D100001F035FB4FF4804302220021124801F0DC
:104D20005DFB4FF40043012211460F4801F027FBC1
:104D30004FF40043022200210B4801F04FFB4FF4D7
:104D4000807300221146084801F019FB4FF480736C
:104D500002220021044801F041FB10BD001802406E
:104D60000008024000040240000C02402DE9F0411E
:104D7000FEB00646002400270025A0464FF4FA7135
:104D800001A8FBF7B5FA706840797168097940EAC3
:104D90000125B08C2844FF287EDA706800788DF8F1
:104DA0000400706840788DF805002846E91705EB87
:104DB0005171C1F3CF07E91705EB5171C910A5EB8C
:104DC000C10109B1781C87B2F8B28DF80600002441
:104DD0005BE0E11704EB5171C910A4EBC10141B9CB
:104DE00000222046E11704EB5171C910C91C01AB28
:104DF0005A54E11704EB5171C910C91C01AA515C46
:104E00004A102046E11704EB5171C910C91C01ABCF
:104E10005A54E11704EB5171C910C91C01AA515C25
:104E2000B38C23443269D25C802303EAC21211435B
:104E3000E21704EB5272D210D21C01AB9954681ED7
:104E4000A04220D1E91705EB5171C910A5EBC101B2
:104E5000C9B1E21704EB5272D210D21C9A5C2946F7
:104E6000EB1705EB5373DB10A5EBC303C3F108038A
:104E70001A412046E31704EB5373DB10DB1C0DF1E2
:104E8000040C0CF80320601C84B2AC42A1DBF91CBA
:104E900001A8FBF7A3FC00E00FE0804601AAF81C84
:104EA00002F800804FEA1821381D1154791DCAB24A
:104EB00001A9B06A00F092FF11E0706800788DF8E7
:104EC00004007068407840F080008DF805000220F2
:104ED0008DF80600032201A9B06A00F07FFF7EB0C2
:104EE000BDE8F08100487047781C00200348006846
:104EF00008B1012070470020FCE7000058000020A6
:104F0000F0B5FDB004460026002500274FF4FA71E5
:104F10006846FBF7EDF9606840796168097940EA15
:104F20000125A08C2844FF2843DA606800788DF8BA
:104F30000000606840788DF801006806000E8DF86A
:104F4000020000BF17E0A18C3144A06910F82100D5
:104F5000042101EB46010DF80100A18C3144A06948
:104F600030F82100C0F30720032101EB46010DF8C2
:104F70000100701C86B2AE42E5DB032000EB450168
:104F80006846FBF72BFC0746F8B2032101EB45010D
:104F90000DF80100380A042101EB45010DF801006C
:104FA000052101EB4501CAB26946A06A00F016FF6F
:104FB00011E0606800788DF800006068407840F08B
:104FC00080008DF8010002208DF80200032269465E
:104FD000A06A00F003FF7DB0F0BDF0B5FDB004465F
:104FE0000026002500274FF4FA716846FBF780F988
:104FF000606840796168097940EA0125A08C2844FD
:10500000FF2843DA606800788DF800006068407817
:105010008DF801006806000E8DF8020000BF17E051
:10502000A18C3144E06910F82100042101EB460114
:105030000DF80100A18C3144E06930F82100C0F383
:105040000720032101EB46010DF80100701C86B218
:10505000AE42E5DB032000EB45016846FBF7BEFBF3
:105060000746F8B2032101EB45010DF80100380AAB
:10507000042101EB45010DF80100052101EB45017B
:10508000CAB26946A06A00F0A9FE11E06068007823
:105090008DF800006068407840F080008DF80100D5
:1050A00002208DF8020003226946A06A00F096FEF5
:1050B0007DB0F0BD2DE9F041FEB00646002400278A
:1050C0000025A0464FF4FA7101A8FBF711F97068AA
:1050D00040797168097940EA0125B08C2844FF289D
:1050E0007EDA706800788DF80400706840788DF87A
:1050F00005002846E91705EB5171C1F3CF07E91701
:1051000005EB5171C910A5EBC10109B1781C87B23B
:10511000F8B28DF8060000245BE0E11704EB517152
:10512000C910A4EBC10141B900222046E11704EBEC
:105130005171C910C91C01AB5A54E11704EB5171EC
:10514000C910C91C01AA515C4A102046E11704EBA2
:105150005171C910C91C01AB5A54E11704EB5171CC
:10516000C910C91C01AA515CB38C23447269D25C7A
:10517000802303EAC2121143E21704EB5272D210E9
:10518000D21C01AB9954681EA04220D1E91705EB4F
:105190005171C910A5EBC101C9B1E21704EB5272FC
:1051A000D210D21C9A5C2946EB1705EB5373DB1027
:1051B000A5EBC303C3F108031A412046E31704EB30
:1051C0005373DB10DB1C0DF1040C0CF80320601C86
:1051D00084B2AC42A1DBF91C01A8FBF7FFFA00E0A6
:1051E0000FE0804601AAF81C02F800804FEA18215F
:1051F000381D1154791DCAB201A9B06A00F0EEFD44
:1052000011E0706800788DF804007068407840F014
:1052100080008DF8050002208DF80600032201A908
:10522000B06A00F0DBFD7EB0BDE8F0810048704759
:105230004C000020004870470819002000487047C3
:105240003000002000487047CC02002010B53948DB
:1052500001780078401C374A107001EB410000EBE8
:10526000C100354901EB800034490860012001F09C
:1052700081FA3249096808600120FDF7B0F8022080
:1052800001F078FA2D49096848600120FDF7A7F878
:10529000032001F06FFA2949096888600120FDF7B1
:1052A0009EF8042001F066FA24490968C8600120CC
:1052B000FDF795F8052001F05DFA204909680861BD
:1052C0000120FDF78CF8062001F054FA1B4909680B
:1052D00048610120FDF783F8072001F04BFA1749D8
:1052E000096888610120FDF77AF8082001F042FA88
:1052F00012490968C8610120FDF771F8092001F021
:1053000039FA0E49096808620120FDF768F80A2099
:1053100001F030FA0949096848620120FDF75FF899
:10532000002001F027FA0549096888620120FDF78D
:1053300056F810BD40000020C004002044000020AA
:1053400070B50446012505FA04F00649B1F90010CC
:10535000814305480160006810B90320FDF74DF84E
:1053600070BD00005C00002058000020024A106060
:10537000024A1160704700005000002054000020D5
:1053800070B50446012505FA04F00649B1F900108C
:105390000843054908600846006810B10420FDF77D
:1053A0002CF870BD5C0000205800002000B54FF0C4
:1053B000E020006900F4803010B1024800F0C0F92C
:1053C00000BD0000000000204FF0E020006920F048
:1053D00001004FF0E02108610846006920F002005A
:1053E00008610846006920F00400086146F2A81030
:1053F00048610846006940F00200086108460069FB
:1054000040F001000861704708B53048006840F47A
:1054100070002E4908602E48006840F001002C49B9
:10542000086000BF2A48006800F002000028F9D098
:1054300000BF27480830006840F080002449083148
:1054400008600020009002E00098401C0090009846
:105450005028F9D31E480830006840F090001C49DD
:10546000083108600020009002E00098401C009085
:1054700000985028F9D300BF15480830006820F084
:1054800003001349083108601148006811490840B9
:105490000F4908600846006820F48020086000205A
:1054A0000B490831086000BF094808300068002037
:1054B0000028F9D108480649091D08600020044960
:1054C0000C31086001F086FA08BD000088ED00E0AC
:1054D00000380240FFFFF6FE1030002410B58CB0FB
:1054E00030221E496846FAF7D1FE002431E06946B1
:1054F00001EB041000F0D7F8694601EB041080219D
:1055000000F0B4F8694601EB041000F0DDF86946DC
:1055100001EB041000F0C7F8694601EB04104021CC
:1055200000F0A4F8694601EB041000F0CDF86946DC
:1055300001EB041000F0B7F8694601EB04108B2171
:1055400000F094F8694601EB041000F0BDF8601C0F
:10555000C4B2032CCBDB0CB010BD00006474000897
:1055600070B58CB004460E46302211496846FAF7F1
:105570008DFE694601EB041000F095F8694601EBD9
:105580000410C02100F072F8002508E036F815106C
:105590006A4602EB041000F069F8681CC5B2102DD1
:1055A000F4DB694601EB041000F08EF80CB070BD1E
:1055B0009474000810B54FF4406001F093F8022392
:1055C0001A460121284800F0DAFE02231A4600217B
:1055D000254800F003FF042302220121224800F0A5
:1055E000CEFE0423022200211F4800F0F7FE08230C
:1055F000022201211C4800F0C2FE082302220021E1
:10560000194800F0EBFE102302220121164800F099
:10561000B6FE102302220021134800F0DFFE2023F3
:1056200002220121104800F0AAFE202302220021BC
:105630000D4800F0D3FE4023022201210A4800F069
:105640009EFE402302220021074800F0C7FEFEF71D
:10565000B1FFFEF77FFFFEF7BDFFFEF78BFFFEF702
:10566000C9FFFEF797FF10BD0000024070B5044669
:105670000D46002612E0E068804700BF00BF05F03D
:10568000010010B12068804701E06068804700BFDA
:1056900000BFA06880476D10701CC6B2082EEADB00
:1056A000E068804770BD10B50446A068804700BF21
:1056B00000BF2068804700BF00BF6068804700BF10
:1056C00000BFE068804710BD10B50446E068804721
:1056D00000BF00BF6068804700BF00BFA068804770
:1056E00000BF00BF2068804710BD000000B585B036
:1056F000142204496846FAF7C9FD684600F004F828
:1057000005B000BDC474000870B50546002411E062
:1057100004EB4400094911F81000012808D155F89C
:1057200024008047002004EB4401044A02F81100E1
:10573000601CC4B2052CEBDB70BD00000000002033
:105740000146002028E000EB400201EB42025288B3
:1057500002B300EB400201EB42025288521E12B229
:1057600000EB400301EB43035A8000EB400201EBE6
:105770004202528872B900EB400201EB4202928869
:1057800000EB400301EB43035A80012200EB40038E
:1057900001F81320421CD0B20528D4DB704710B5A5
:1057A000FEF74EFDFCF72AFFFBF746F800F0BAF8CB
:1057B00010BD70470448D0E900305A1C40F1000089
:1057C0000149C1E900207047D0000020F0B5034630
:1057D0000C46FEF73BFA05460E4694FBF2F0C11765
:1057E00040197141C3E90001F0BD4FF0FF3251088B
:1057F000C0E900217047F0B503460C46FEF726FAD3
:1058000005460E46D3E90071EA1B76EB010006DB84
:10581000012C02D11846FFF7E8FF0120F0BD00205F
:10582000FCE7000010B51949194801F08FFC38B1A8
:105830001649174801F07DFC154801F0CDFBC4B2B4
:105840001449134801F082FCF0B11249104801F0EC
:1058500070FC0F4801F0C0FBC4B20F480088B0F5DF
:10586000FA7F0EDA0D480C49098844540A4800882A
:10587000401C09490880012204210948FFF7A6FFBE
:1058800002E000200449088010BD00000503030069
:10589000004400400503050030000020CC02002039
:1058A0003800002010B51949194801F04FFC38B1F3
:1058B0001649174801F03DFC154801F08DFBC4B2B4
:1058C0001449134801F042FCF0B11249104801F0AC
:1058D00030FC0F4801F080FBC4B20F480088B0F5DF
:1058E000FA7F0EDA0D480C49098844540A480088AA
:1058F000401C09490880012204210948FFF766FF7E
:1059000002E000200449088010BD000005030300E8
:10591000004800400503050020000020D8000020BA
:105920002800002000B58BB0FFF784FCF649086022
:105930006846FEF797F9FEF77DF908287ED2DFE882
:1059400000F0FDFCFBFA04F9C1E2EF490098096898
:105950000863ED49019809684863EB4902980968B2
:105960008863E9480068D0F8680244F620618842FC
:1059700007DDE5480068006BA0F59660E24909681C
:105980000863E1480068D0F86C0244F62061884260
:1059900008DDDD480068406BA0F53850E038DA4992
:1059A00009684863D8480068D0F8700244F620615E
:1059B000884207DDD4480068806BA0F59660D24924
:1059C00009688863D0480068006BB0F52F5F0BDB77
:1059D000CD480068006B42F65051884204DC42F624
:1059E000EC40C94909680863C7480068406BB0F5D6
:1059F0002F5F0BDBC4480068406B42F65051884271
:105A000004DC42F6EC40C04909684863BE480068BF
:105A1000806BB0F52F5F0BDBBB480068806B42F6F4
:105A20005051884204DC42F6EC40B749096888636B
:105A3000B54903980968C863B34900E05FE1049879
:105A400009680864B049059809684864AE49069831
:105A500009688864AC480068806C40F68C218842F4
:105A60000BDBA9480068806C40F65431884204DCA6
:105A70004FF42F60A44909688864A349079809680E
:105A8000C864A1490898096808659F480068006DC6
:105A900040F68C2188420BDB9B480068006D40F685
:105AA0005431884204DC4FF42F6097490968086537
:105AB000954909980968486593490A980968C1F8A1
:105AC0007C021DE190490398096848678E49049853
:105AD000096888678C4905980968C8678A490698E3
