:020000040800F2
:10000000883000204D020008550200085702000801
:10001000590200085B0200085D02000800000000B1
:100020000000000000000000000000005F02000867
:100030006102000800000000630200082545000876
:1000400067020008670200086702000867020008EC
:1000500067020008670200086702000867020008DC
:1000600067020008670200086702000867020008CC
:1000700067020008670200086702000867020008BC
:1000800067020008670200086702000867020008AC
:10009000670200086702000867020008670200089C
:1000A000670200086702000867020008670200088C
:1000B000670200086702000867020008670200087C
:1000C000670200086702000867020008670200086C
:1000D00067020008670200089D4900081D4A0008E1
:1000E000670200086702000867020008670200084C
:1000F000670200086702000867020008670200083C
:10010000670200086702000867020008670200082B
:10011000670200086702000867020008670200081B
:10012000670200086702000867020008670200080B
:1001300067020008670200086702000867020008FB
:1001400067020008670200086702000867020008EB
:1001500067020008670200086702000867020008DB
:1001600067020008670200086702000867020008CB
:10017000670200086702000867020008000000002C
:1001800067020008670200086702000867020008AB
:10019000670200086702000867020008000000000C
:1001A00067020008670200086702000800F002F812
:1001B00000F03CF80AA090E8000C82448344AAF1C5
:1001C0000107DA4501D100F031F8AFF2090EBAE8C3
:1001D0000F0013F0010F18BFFB1A43F0010318477B
:1001E0000C6B00002C6B0000103A24BF78C878C15B
:1001F000FAD8520724BF30C830C144BF04680C602D
:10020000704700000023002400250026103A28BF74
:1002100078C1FBD8520728BF30C148BF0B60704778
:100220001FB506F057F91FBD10B510BD00F08AF8D4
:100230001146FFF7F5FF05F02DF900F0A8F803B41B
:10024000FFF7F2FF03BC00F0AFF800000948804759
:1002500009480047FEE7FEE7FEE7FEE7FEE7FEE7A8
:10026000FEE7FEE7FEE7FEE704480549054A064BC0
:100270007047000081450008AD0100088828002073
:1002800088300020882C0020882C002010B5203ACF
:10029000C0F00B80B1E81850203AA0E81850B1E83F
:1002A0001850A0E81850BFF4F5AF5FEA027C24BFF5
:1002B000B1E81850A0E8185044BF18C918C0BDE8EC
:1002C00010405FEA827C24BF51F8043B40F8043BB5
:1002D00008BF7047D20728BF31F8023B48BF11F86A
:1002E000012B28BF20F8023B48BF00F8012B7047C4
:1002F0004FF0000200B5134694469646203922BFBF
:10030000A0E80C50A0E80C50B1F12001BFF4F7AF09
:10031000090728BFA0E80C5048BF0CC05DF804EBEB
:10032000890028BF40F8042B08BF704748BF20F859
:10033000022B11F0804F18BF00F8012B7047704757
:1003400070477047754600F02BF8AE4605006946C9
:10035000534620F00700854618B020B5FFF784FF0C
:10036000BDE820404FF000064FF000074FF00008B6
:100370004FF0000B21F00701AC46ACE8C009ACE837
:10038000C009ACE8C009ACE8C0098D46704710B59B
:100390000446AFF300802046BDE81040FFF74FBF92
:1003A000004870472828002001491820ABBEFEE70E
:1003B00026000200704700002DE9F041ADF5007DF8
:1003C00004460E464FF48072104940A8FFF75EFFC6
:1003D0004FF480720E496846FFF758FFFF27B84672
:1003E00009E014F8010B80EA070540A8405D80EAA7
:1003F00008071DF80580301EA6F10106F1D147EA75
:1004000008200DF5007DBDE8F0810000546500086E
:100410005466000830B597B003F0C8FF044603F0F7
:100420001DFE05460CA802F0EFFC01A802F0ECFC52
:1004300002F0D2FC082874D2DFE810F008000900AE
:100440007301EA0269049C05CF06F007FEE3D4F8C5
:10045000800100283DDD0C98D4F88011884209D82D
:100460000D98D4F88011884204D80E98D4F88011E1
:1004700088422BD9FD480068401CFC4908600846AA
:100480000068032825DD0121F94804F03AFFD4F87B
:100490006C0120F00100C4F86C01042004F02CF879
:1004A0000C98D4F88011884202D90C98286109E090
:1004B0000D98D4F88011884202D90D98286101E086
:1004C0000E9828610020E949086002E00020E74911
:1004D0000860D4F8880100282EDD0198D4F888112E
:1004E000884209D80298D4F88811884204D8039821
:1004F000D4F8881188421FD90121DD4804F001FF9A
:10050000D4F86C0120F00100C4F86C01062003F05F
:10051000F3FF0198D4F88811884203D90198A861A3
:100520000AE0F3E30298D4F88811884202D90298CD
:10053000A86101E00398A861D4F8840100283DDD9A
:100540000F98D4F88411884209D81098D4F88411EF
:10055000884204D81198D4F8841188422BD9C54810
:100560000068401CC349086008460068032825DD70
:100570000121BF4804F0C5FED4F86C0120F0010051
:10058000C4F86C01052003F0B7FF0F98D4F884116C
:10059000884202D90F98686109E01098D4F8841154
:1005A000884202D91098686101E0119868610020C2
:1005B000B049086002E00020AE490860D4F88C0120
:1005C00000282DDD0498D4F88C11884209D80598AC
:1005D000D4F88C11884204D80698D4F88C1188423B
:1005E0001ED90121A24804F08CFED4F86C0120F041
:1005F0000100C4F86C01072003F07EFF0F98D4F8C7
:100600008C11884202D90F98E86109E01098D4F85B
:100610008C11884202D91098E86101E01198E861D4
:10062000D4F87001002823DD1298D4F870118842A4
:100630001BD991480068401C8F4908600846006833
:10064000032815DD02218A4804F05BFED4F8680116
:1006500020F00100C4F86801002003F04DFF12985B
:10066000286000208449086002E000208249086078
:10067000D4F87401002823DD1398D4F8741188424B
:100680001BD97E480068401C7C4908600846006809
:10069000032815DD0221764804F033FED4F8680102
:1006A00020F00100C4F86801012003F025FF139831
:1006B000686000207149086002E000206F4908600E
:1006C000D4F87801002813DD0998D4F8781188420D
:1006D0000ED90421664804F014FED4F8680120F015
:1006E0000200C4F86801022003F006FF1498A86015
:1006F000D4F87C01002813DD0A98D4F87C118842D4
:100700000ED904215A4804F0FCFDD4F8680120F009
:100710000200C4F86801032003F0EEFE1598E860BB
:1007200094E6D4F8A00100283DDD0C98D4F8A0117F
:10073000884209D80D98D4F8A011884204D80E98A0
:10074000D4F8A01188422BD94D480068401C4C4970
:10075000086008460068032825DD0821444804F0A5
:10076000D0FDD4F86C0120F00200C4F86C010C201C
:1007700003F0C2FE0C98D4F8A011884202D90C985C
:10078000286309E00D98D4F8A011884202D90D9889
:10079000286301E00E98286300203949086002E0D0
:1007A000002037490860D4F8A80100282DDD019801
:1007B000D4F8A811884209D80298D4F8A811884220
:1007C00004D80398D4F8A81188421ED908212848D3
:1007D00004F097FDD4F86C0120F00200C4F86C011D
:1007E0000E2003F089FE0C98D4F8A811884202D993
:1007F0000C98A86309E00D98D4F8A811884202D992
:100800000D98A86301E00E98A863D4F8A40100280D
:100810004BDD0F98D4F8A411884209D81098D4F869
:10082000A411884204D81198D4F8A411884239D967
:1008300014480068401C13490860084600680328F3
:1008400033DD08210A4804F05CFDD4F86C0120F087
:100850000200C4F86C010D2003F04EFE0F98D4F88E
:10086000A411884210D90F98686317E06400002033
:10087000001802406800002094000020980000202A
:100880006C000020700000201098D4F8A411884259
:1008900002D91098686301E0119868630020F84954
:1008A000086002E00020F6490860D4F8AC01002896
:1008B0002DDD0498D4F8AC11884209D80598D4F8F5
:1008C000AC11884204D80698D4F8AC1188421ED9DD
:1008D0000821EC4804F015FDD4F86C0120F002006A
:1008E000C4F86C010F2003F007FE0F98D4F8AC1188
:1008F000884202D90F98E86309E01098D4F8AC1147
:10090000884202D91098E86301E01198E863D4F8AE
:100910009001002823DD1298D4F8901188421BD949
:10092000D9480068401CD849086008460068032878
:1009300015DD0421D34804F0E4FCD4F8680120F06C
:100940000200C4F86801082003F0D6FD129828625E
:100950000020CD49086002E00020CB490860D4F8AF
:100960009401002823DD1398D4F8941188421BD9F0
:10097000C6480068401CC54908600846006803284E
:1009800015DD1021BF4804F0BCFCD4F8680120F04C
:100990000400C4F86801092003F0AEFD13986862F2
:1009A0000020BA49086002E00020B8490860D4F885
:1009B0009801002813DD0998D4F8981188420ED9BF
:1009C0002021B04804F09DFCD4F8680120F0080014
:1009D000C4F868010A2003F08FFD1498A862D4F8C7
:1009E0009C01002813DD0A98D4F89C1188420ED986
:1009F0002021A44804F085FCD4F8680120F0080008
:100A0000C4F868010B2003F077FD1598E8621DE536
:100A1000D4F8C00100283DDD0C98D4F8C0118842FC
:100A200009D80D98D4F8C011884204D80E98D4F88B
:100A3000C01188422BD996480068401C9449086030
:100A400008460068032825DD40218E4804F059FC43
:100A5000D4F86C0120F00400C4F86C01142003F0F9
:100A60004BFD0C98D4F8C011884202D90C98286527
:100A700009E00D98D4F8C011884202D90D98286574
:100A800001E00E98286500208149086002E00020FE
:100A90007F490860D4F8C80100282DDD0198D4F8FA
:100AA000C811884209D80298D4F8C811884204D8DD
:100AB0000398D4F8C81188421ED94021714804F027
:100AC00020FCD4F86C0120F00400C4F86C0116205E
:100AD00003F012FD0C98D4F8C811884202D90C9882
:100AE000A86509E00D98D4F8C811884202D90D987C
:100AF000A86501E00E98A865D4F8C40100283DDD82
:100B00000F98D4F8C411884209D81098D4F8C411A9
:100B1000884204D81198D4F8C41188422BD95D4872
:100B20000068401C5B49086008460068032825DD12
:100B30004021544804F0E5FBD4F86C0120F0040097
:100B4000C4F86C01152003F0D7FC0F98D4F8C41139
:100B5000884202D90F98686509E01098D4F8C4114A
:100B6000884202D91098686501E0119868650020F4
:100B70004849086002E0002046490860D4F8CC01EA
:100B800000282DDD0498D4F8CC11884209D80598A6
:100B9000D4F8CC11884204D80698D4F8CC118842F5
:100BA0001ED94021374804F0ACFBD4F86C0120F08A
:100BB0000400C4F86C01172003F09EFC0F98D4F8D1
:100BC000CC11884202D90F98E86509E01098D4F852
:100BD000CC11884202D91098E86501E01198E865C7
:100BE000D4F8B001002824DD1298D4F8B01188425E
:100BF0001CD929480068401C27490860084600683D
:100C0000032816DD4FF480711E4804F07AFBD4F8F7
:100C1000680120F02000C4F86801102003F06CFC8B
:100C20001298286400201C49086002E000201A493C
:100C30000860D4F8B401002835DD1398D4F8B41155
:100C400088422DD915480068401C00E0C4E21349D1
:100C5000086008460068032825DD8021094804F063
:100C600050FBD4F8680120F01000C4F8680111208E
:100C700003F042FC1398686400200849086012E001
:100C800070000020001802409C000020A0000020FE
:100C90007400002078000020A4000020A80000209C
:100CA0000020FE490860D4F8B801002814DD099836
:100CB000D4F8B81188420FD94FF48071F84804F085
:100CC00020FBD4F8680120F02000C4F8680112204D
:100CD00003F012FC1498A864D4F8BC01002814DDB9
:100CE0000A98D4F8BC1188420FD94FF48071EC48AF
:100CF00004F007FBD4F8680120F02000C4F8680174
:100D0000122003F0F9FB1598E86489E387E3D4F82F
:100D1000E00100283EDD0C98D4F8E011884209D8A3
:100D20000D98D4F8E011884204D80E98D4F8E01158
:100D300088422CD9DB480068401CDA490860084624
:100D40000068032826DD4FF40071D54804F0D9FA75
:100D5000D4F86C0120F00800C4F86C011C2003F0EA
:100D6000CBFB0C98D4F8E011884202D90C98286784
:100D700009E00D98D4F8E011884202D90D9828674F
:100D800001E00E9828670020C649086002E00020B4
:100D9000C4490860D4F8E80100281CDD0198D4F8A3
:100DA000E811884209D80298D4F8E811884204D89A
:100DB0000398D4F8E81188420DD94FF40071B8486F
:100DC00004F09FFAD4F86C0120F00800C4F86C011C
:100DD0001E2003F091FBD4F8E40100282CDD0F98CD
:100DE000D4F8E411884209D81098D4F8E411884264
:100DF00004D81198D4F8E41188421AD9AA48006896
:100E0000401CA949086008460068032814DD4FF417
:100E10000071A34804F075FAD4F86C0120F00800C2
:100E2000C4F86C011D2003F067FB00209E49086098
:100E300002E000209C490860D4F8EC0100281CDD89
:100E40000498D4F8EC11884209D80598D4F8EC112C
:100E5000884204D80698D4F8EC1188420DD94FF492
:100E600000718F4804F04DFAD4F86C0120F00800AE
:100E7000C4F86C011F2003F03FFBD4F8D001002818
:100E800022DD1298D4F8D01188421AD98748006818
:100E9000401C8649086008460068032814DD4FF4AA
:100EA00000617F4804F02DFAD4F8680120F080003A
:100EB000C4F86801182003F01FFB00207B4908607C
:100EC00002E0002079490860D4F8D401002822DD2E
:100ED0001398D4F8D41188421AD975480068401C78
:100EE0007349086008460068032814DD4FF48061E8
:100EF0006B4804F006FAD4F8680120F04000C4F80A
:100F00006801192003F0F8FA00206949086002E03E
:100F1000002067490860D4F8D801002812DD09983C
:100F2000D4F8D81188420DD94FF400615C4804F020
:100F3000E8F9D4F8680120F08000C4F868011A20AC
:100F400003F0DAFAD4F8DC01002812DD0A98D4F8AC
:100F5000DC1188420DD94FF40061514804F0D1F9F9
:100F6000D4F8680120F08000C4F868011B2003F069
:100F7000C3FA55E2D4F8000200282CDD0C98D4F80E
:100F80000012884209D80D98D4F80012884204D87B
:100F90000E98D4F8001288421AD946480068401CBE
:100FA0004449086008460068032814DD4FF4805166
:100FB0003B4804F0A6F9D4F86C0120F01000C4F806
:100FC0006C01242003F098FA00203A49086002E0FE
:100FD000002038490860D4F8080200281CDD019878
:100FE000D4F80812884209D80298D4F80812884226
:100FF00004D80398D4F8081288420DD94FF48051D0
:10100000274804F07EF9D4F86C0120F01000C4F8F1
:101010006C01262003F070FAD4F8040200282CDDBD
:101020000F98D4F80412884209D81098D4F8041202
:10103000884204D81198D4F8041288421AD91E485C
:101040000068401C1C49086008460068032814DD3D
:101050004FF48051124804F054F9D4F86C0120F098
:101060001000C4F86C01252003F046FA0020124954
:10107000086002E0002010490860D4F80C02002843
:101080002EDD0498D4F80C1288421BD80598D4F8A9
:101090000C12884216D8069810E00000A800002024
:1010A000001802407C00002080000020AC000020DE
:1010B000B00000208400002088000020D4F80C122A
:1010C00088420DD94FF48051D74804F01AF9D4F86A
:1010D0006C0120F01000C4F86C01272003F00CFA1A
:1010E000D4F8F001002822DD1298D4F8F0118842DB
:1010F0001AD9CE480068401CCC49086008460068F0
:10110000032814DD4FF48041C74804F0FAF8D4F8FE
:10111000680120F40070C4F86801202003F0ECF9A5
:101120000020C249086002E00020C0490860D4F8ED
:10113000F401002822DD1398D4F8F41188421AD95A
:10114000BB480068401CBA4908600846006803288C
:1011500014DD4FF40051B44804F0D3F8D4F868011A
:1011600020F48070C4F86801212003F0C5F9002044
:10117000AF49086002E00020AD490860D4F8F801EA
:10118000002812DD0998D4F8F81188420DD94FF4DF
:101190008041A54804F0B5F8D4F8680120F4007047
:1011A000C4F86801222003F0A7F9D4F8FC01002854
:1011B00012DD0A98D4F8FC1188420DD94FF4804111
:1011C000994804F09EF8D4F8680120F40070C4F83F
:1011D0006801232003F090F922E1D4F820020028CE
:1011E0002CDD0C98D4F82012884209D80D98D4F838
:1011F0002012884204D80E98D4F8201288421AD9B6
:101200008C480068401C8B49086008460068032829
:1012100014DD4FF40041844804F073F8D4F86C01F5
:1012200020F02000C4F86C012C2003F065F90020A8
:101230008049086002E000207E490860D4F8280256
:1012400000281CDD0198D4F82812884209D8029899
:10125000D4F82812884204D80398D4F82812884277
:101260000DD94FF40041704804F04BF8D4F86C01EC
:1012700020F02000C4F86C012E2003F03DF9D4F8D2
:10128000240200282CDD0F98D4F82412884209D8B3
:101290001098D4F82412884204D81198D4F8241253
:1012A00088421AD964480068401C634908600846AF
:1012B0000068032814DD4FF400415B4804F021F876
:1012C000D4F86C0120F02000C4F86C012D2003F04C
:1012D00013F900205849086002E0002056490860D0
:1012E000D4F82C0200281CDD0498D4F82C12884273
:1012F00009D80598D4F82C12884204D80698D4F856
:101300002C1288420DD94FF40041474803F0F9FFF1
:10131000D4F86C0120F02000C4F86C012F2003F0F9
:10132000EBF8D4F81002002822DD1298D4F810123D
:1013300088421AD941480068401C40490860084664
:101340000068032814DD4FF400513D4803F0D9FF35
:10135000D4F8680120F40060C4F86801282003F084
:10136000CBF800203549086002E0002033490860CE
:10137000D4F81402002822DD1398D4F814128842FD
:101380001AD930480068401C2E4908600846006899
:10139000032814DD4FF48051294803F0B2FFD4F83C
:1013A000680120F48060C4F86801292003F0A4F8E3
:1013B00000202449086002E0002022490860D4F897
:1013C0001802002812DD0998D4F8181288420DD9A5
:1013D0004FF400511A4803F094FFD4F8680120F448
:1013E0000060C4F868012A2003F086F8D4F81C02D3
:1013F000002812DD0A98D4F81C1288420DD94FF447
:1014000000510F4803F07DFFD4F8680120F400601C
:10141000C4F868012B2003F06FF801E000E000BF82
:1014200000BF17B030BD000000180240B40000201B
:10143000B80000208C00002090000020BC0000209C
:1014400000040240C000002010B50121014803F053
:101450008EFA10BD380000202DE9F041024600262A
:101460000027002300240020151E01DBAC4601E00C
:10147000C5F1000C0FFA8CF00A2590FBF5FC05FB7A
:101480001C0690FBF5F54FF00A0C95FBFCF80CFBE5
:1014900018552FB2642590FBF5F595FBFCF80CFB75
:1014A00018552BB24FF47A7590FBF5F52CB214B9A0
:1014B00003B90A230A240C4D35F81450DFF82CC068
:1014C000ACF81050084D35F81350ACF81250064DDA
:1014D00035F817500D43ACF81450034D35F816503D
:1014E000ACF81650BDE8F08154670008BC1B002022
:1014F0002DE9F041024600260027002300240020A9
:10150000151E01DBAC4601E0C5F1000C0FFA8CF0B2
:101510000A2590FBF5FC05FB1C0690FBF5F54FF04A
:101520000A0C95FBFCF80CFB18552FB2642590FBB8
:10153000F5F595FBFCF80CFB18552BB24FF47A75BA
:1015400090FBF5F52CB214B903B90A230A240C4D0B
:1015500035F81450DFF82CC0ACF80050084D35F8C1
:101560001350ACF80250064D35F817500D43ACF847
:101570000450034D35F81650ACF80650BDE8F08124
:1015800054670008BC1B00202DE9F04102460026EC
:101590000027002300240020151E01DBAC4601E0DB
:1015A000C5F1000C0FFA8CF00A2590FBF5FC05FB49
:1015B0001C0690FBF5F54FF00A0C95FBFCF80CFBB4
:1015C00018552FB2642590FBF5F595FBFCF80CFB44
:1015D00018552BB24FF47A7590FBF5F52CB214B96F
:1015E00003B90A230A240C4D35F81450DFF82CC037
:1015F000ACF81850084D35F81350ACF81A50064D99
:1016000035F817500D43ACF81C50034D35F8165003
:10161000ACF81E50BDE8F08154670008BC1B0020E8
:101620002DE9F04102460026002700230024002077
:10163000151E01DBAC4601E0C5F1000C0FFA8CF081
:101640000A2590FBF5FC05FB1C0690FBF5F54FF019
:101650000A0C95FBFCF80CFB18552FB2642590FB87
:10166000F5F595FBFCF80CFB18552BB24FF47A7589
:1016700090FBF5F52CB214B903B90A230A240C4DDA
:1016800035F81450DFF82CC0ACF80850084D35F888
:101690001350ACF80A50064D35F817500D43ACF80E
:1016A0000C50034D35F81650ACF80E50BDE8F081E3
:1016B00054670008BC1B00202DE9F04102460026BB
:1016C0000027002300240020151E01DBAC4601E0AA
:1016D000C5F1000C0FFA8CF00A2590FBF5FC05FB18
:1016E0001C0690FBF5F54FF00A0C95FBFCF80CFB83
:1016F00018552FB2642590FBF5F595FBFCF80CFB13
:1017000018552BB24FF47A7590FBF5F52CB214B93D
:1017100003B90A230A240C4D35F81450DFF82CC005
:10172000ACF80050084D35F81350ACF80250064D97
:1017300035F817500D43ACF80450034D35F81650EA
:10174000ACF80650BDE8F081546700089C1B0020EF
:101750002DE9F04102460026002700230024002046
:10176000151E01DBAC4601E0C5F1000C0FFA8CF050
:101770000A2590FBF5FC05FB1C0690FBF5F54FF0E8
:101780000A0C95FBFCF80CFB18552FB2642590FB56
:10179000F5F595FBFCF80CFB18552BB24FF47A7558
:1017A00090FBF5F52CB214B903B90A230A240C4DA9
:1017B00035F81450DFF82CC0ACF80050084D35F85F
:1017C0001350ACF80250064D35F817500D43ACF8E5
:1017D0000450034D35F81650ACF80650BDE8F081C2
:1017E000546700087C1B00202DE9F04102460026CA
:1017F0000027002300240020151E01DBAC4601E079
:10180000C5F1000C0FFA8CF00A2590FBF5FC05FBE6
:101810001C0690FBF5F54FF00A0C95FBFCF80CFB51
:1018200018552FB2642590FBF5F595FBFCF80CFBE1
:1018300018552BB24FF47A7590FBF5F52CB214B90C
:1018400003B90A230A240C4D35F81450DFF82CC0D4
:10185000ACF80850084D35F81350ACF80A50064D56
:1018600035F817500D43ACF80C50034D35F81650B1
:10187000ACF80E50BDE8F081546700089C1B0020B6
:101880002DE9F04102460026002700230024002015
:10189000151E01DBAC4601E0C5F1000C0FFA8CF01F
:1018A0000A2590FBF5FC05FB1C0690FBF5F54FF0B7
:1018B0000A0C95FBFCF80CFB18552FB2642590FB25
:1018C000F5F595FBFCF80CFB18552BB24FF47A7527
:1018D00090FBF5F52CB214B903B90A230A240C4D78
:1018E00035F81450DFF82CC0ACF80850084D35F826
:1018F0001350ACF80A50064D35F817500D43ACF8AC
:101900000C50034D35F81650ACF80E50BDE8F08180
:10191000546700087C1B00202DE9F0410246002698
:101920000027002300240020151E01DBAC4601E047
:10193000C5F1000C0FFA8CF00A2590FBF5FC05FBB5
:101940001C0690FBF5F54FF00A0C95FBFCF80CFB20
:1019500018552FB2642590FBF5F595FBFCF80CFBB0
:1019600018552BB24FF47A7590FBF5F52CB214B9DB
:1019700003B90A230A240C4D35F81450DFF82CC0A3
:10198000ACF81050084D35F81350ACF81250064D15
:1019900035F817500D43ACF81450034D35F8165078
:1019A000ACF81650BDE8F081546700089C1B00207D
:1019B0002DE9F041024600260027002300240020E4
:1019C000151E01DBAC4601E0C5F1000C0FFA8CF0EE
:1019D0000A2590FBF5FC05FB1C0690FBF5F54FF086
:1019E0000A0C95FBFCF80CFB18552FB2642590FBF4
:1019F000F5F595FBFCF80CFB18552BB24FF47A75F6
:101A000090FBF5F52CB214B903B90A230A240C4D46
:101A100035F81450DFF82CC0ACF81050084D35F8EC
:101A20001350ACF81250064D35F817500D43ACF872
:101A30001450034D35F81650ACF81650BDE8F0813F
:101A4000546700087C1B002010B5044614B1012C1B
:101A500038D11BE02023022201211C4803F0C9FCDD
:101A6000202302220021194803F0F2FC202117480C
:101A700003F047FC40F2EE2000F092FA20211348D8
:101A800003F041FC0F2000F08BFA1CE0102302222F
:101A900001210E4803F0ADFC1023022200210B4867
:101AA00003F0D6FC1021094803F02BFC40F2EE2095
:101AB00000F076FA1021054803F025FC0F2000F015
:101AC0006FFA00E000BF00BF002010BD0008024018
:101AD00070B50546002415B1012D60D12FE02023FB
:101AE00002220021304803F084FC2023022200213E
:101AF0002D4803F0ADFC04E0012000F051FA601C19
:101B0000C4B22021284803F06CFC08B1C82CF3DBD8
:101B1000C82C01DB012070BD002404E0012000F08E
:101B20003FFA601CC4B220211F4803F05AFC08B9D8
:101B3000F02CF3DBF02C01DB0120ECE730E010238C
:101B400002220021184803F054FC10230222002135
:101B5000154803F07DFC04E0012000F021FA601C30
:101B6000C4B21021104803F03CFC08B1C82CF3DBD0
:101B7000C82C01DB0120CEE7002404E0012000F0A6
:101B80000FFA601CC4B21021074803F02AFC08B900
:101B9000F02CF3DBF02C01DB0120BCE700E000BF00
:101BA00000BF0020B7E700000008024070B52DED2F
:101BB000048B00262948007810B1012812D000BFFC
:101BC0000020274908700120FFF73EFF0120FFF7A2
:101BD0007FFFCC21012000F07BF94421012000F09F
:101BE00077F92AE00120FFF72FFF0120FFF770FFB0
:101BF000CC21012000F06CF9BE21012000F068F931
:101C0000012000F0B7F80546012000F0B3F80446C3
:101C100045EA042004F049FB41EC190B9FED110B40
:101C200053EC102B04F058FB41EC180B04F010FBA4
:101C300086B201200A49087000BF00BF074800783B
:101C4000401C0649087008460078012801DD002084
:101C500008703046BDEC048B70BD0000CB00002046
:101C6000C5000020000000000000E43F10B52DED8D
:101C7000048B00242B48007810B1012811D000BF3C
:101C8000002029490870FFF7DFFE0020FFF720FF42
:101C9000CC21002000F01CF94421002000F018F9AC
:101CA00030E00020FFF7D0FE0020FFF711FFCC212D
:101CB000002000F00DF9BE21002000F009F90020FD
:101CC00000F058F819490870002000F053F818493E
:101CD000087016490978164A127841EA022004F081
:101CE000E4FA41EC190B9FED130B53EC102B04F0AD
:101CF000F3FA41EC180B04F0ABFA84B201200A4964
:101D0000087000BF00BF07480078401C05490870F4
:101D100008460078012801DD002008702046BDEC4F
:101D2000048B10BDC8000020C4000020CA000020A1
:101D3000C9000020000000000000E43F10B510239F
:101D4000022201210A4803F054FB10230222002141
:101D5000074803F07DFB202302220121044803F001
:101D600048FB202302220021014803F071FB10BD33
:101D70000008024070B50646002516B1012E79D143
:101D80003BE0002436E02023022201213B4803F0FF
:101D900030FB202302220021384803F059FB202188
:101DA000364803F0AEFA022000F0FAF8202133485A
:101DB00003F0A9FA202302220021304803F019FB86
:101DC0002023022200212D4803F042FB0C2000F0CA
:101DD000E7F86D102021294803F003FB08B145F016
:101DE0008005322000F0DCF82021244803F08BFA33
:101DF000601CC4B2082CC6DB3DE0002436E0102392
:101E0000022201211D4803F0F4FA102302220021CE
:101E10001A4803F01DFB1021184803F072FA022043
:101E200000F0BEF81021154803F06DFA10230222CD
:101E30000021124803F0DDFA1023022200210F488E
:101E400003F006FB0C2000F0ABF86D1010210B48DE
:101E500003F0C7FA08B145F08005322000F0A0F881
:101E60001021064803F04FFA601CC4B2082CC6DBF0
:101E700001E0FFE700BF00BF284670BD0008024038
:101E800070B50446002514B1012C08D103E0FFF71A
:101E9000EDFE054604E0FFF789FE054600E000BFC1
:101EA00000BF284670BD00000146002011B1012985
:101EB00006D102E0044A107803E0044A107800E0FA
:101EC00000BF00BF70470000C4000020C500002014
:101ED00070B506460D4616B1012E5CD12DE02023CB
:101EE000022201212D4803F084FA2023022200213E
:101EF0002A4803F0ADFA00241CE02021274803F013
:101F000000FA022000F04CF805F0010020B1202179
:101F1000224803F0F8F903E02021204803F0F1F90A
:101F20003C2000F03DF820211C4803F0ECF96D1036
:101F3000601CC4B2082CE0DB2EE010230222012139
:101F4000164803F056FA102302220021134803F02A
:101F50007FFA00241CE01021104803F0D2F902207F
:101F600000F01EF805F0010020B110210B4803F02D
:101F7000CAF903E01021094803F0C3F93C2000F03E
:101F80000FF81021054803F0BEF96D10601CC4B2B3
:101F9000082CE0DB00E000BF00BF70BD000802407D
:101FA00001B5002005E0002100E0491C2429FCDBEC
:101FB000401C009A9042F6D308BD01B505E0002010
:101FC00001E0411C88B20828FBDB00994A1E009200
:101FD0000029F4D108BD70B50446002502F0E6F9E9
:101FE00005462C6070BD000010B5802142F2B8207B
:101FF000FFF7AEFB802142F2B820FFF741FC8021C1
:1020000042F2B820FFF7D4FC802142F2B820FFF75B
:1020100053FB802142F2B820FFF7E6FB802142F219
:10202000B820FFF779FC802142F2B820FFF760FA70
:10203000802142F2B820FFF7F3FA802142F2B82063
:10204000FFF70AFA802142F2B820FFF79DFA06490D
:10205000002002F041FB0549012002F03DFB04494C
:10206000022002F039FB10BD7C1B00209C1B0020CD
:10207000BC1B002070B5002402F098F904460A2128
:10208000206B90FBF1F005B280212846FFF760FB42
:102090000A21606B90FBF1F005B280212846FFF722
:1020A000EFFB0A21A06B90FBF1F005B280212846DE
:1020B000FFF77EFC0A21E06B90FBF1F005B2802176
:1020C0002846FFF7F9FA0A21206C90FBF1F005B2DF
:1020D00080212846FFF788FB0A21606C90FBF1F015
:1020E00005B280212846FFF717FC0A21A06C90FB5F
:1020F000F1F005B280212846FFF7FAF90A21206D98
:1021000090FBF1F005B280212846FFF789FA0A21F9
:10211000E06C90FBF1F005B280212846FFF79CF9B6
:102120000A21606D90FBF1F005B280212846FFF78F
:102130002BFA70BD10B502F08DFAFFF79BFF0C492A
:10214000002002F0C9FA0B49012002F0C5FA0A4941
:10215000022002F0C1FA01F085FF0446002C03DDE5
:102160000420FFF738FF02E00320FFF734FF10BD23
:102170007C1B00209C1B0020BC1B002070B505466A
:102180000C4615B1012D23D10FE02246022148074C
:1021900003F08BFD60220221480703F059FD002265
:1021A0000221480703F094FD13E0224603214FF07B
:1021B000804003F07AFD602203214FF0804003F05D
:1021C00047FD002203214FF0804003F081FD00E035
:1021D00000BF00BF70BD000010B5A2B000242C21CC
:1021E00017A8FEF785F82C21FE48FEF781F82C2170
:1021F0000CA8FEF77DF82C2101A8FEF779F800F075
:10220000EBFD08287DD2DFE800F0045DB8FDFCFBA3
:10221000FAF99FEDF50A8DED0C0A9FEDF40A8DEDAC
:102220000D0A9FEDF30A8DED0E0AB7EE000A8DED53
:102230000F0AB7EE000A8DED100AB7EE000A8DED19
:10224000110AB7EE000A8DED120AB7EE000A8DED05
:10225000130AB7EE000A8DED140AB7EE000A8DEDF1
:10226000150A9FEDE40A8DED160A9FEDE30A8DED48
:10227000010A9FEDE20A8DED020A9FEDE10A8DED64
:10228000030A9FEDDC0A8DED040A9FEDDA0A8DED5D
:10229000050A9FEDD80A8DED060A9FEDD60A8DED51
:1022A000070A9FEDD40A8DED080A9FEDD20A8DED45
:1022B000090A9FEDD00A8DED0A0A9FEDCE0A8DED39
:1022C0000B0A85E29FEDC80A8DED0C0A9FEDC70A47
:1022D0008DED0D0A9FEDC60A8DED0E0AB7EE000AD0
:1022E0008DED0F0AB7EE000A8DED100AB7EE000A69
:1022F0008DED110AB7EE000A8DED120AB7EE000A55
:1023000000E064E28DED130AB7EE000A8DED140AC9
:10231000B7EE000A8DED150A9FEDBA0A8DED160A8B
:102320009FEDB50A8DED010A9FEDB40A8DED020A0D
:102330009FEDB30A8DED030A9FEDAE0A8DED040A01
:102340009FEDAC0A8DED050A9FEDAA0A8DED060AF8
:102350009FEDA80A8DED070A9FEDA60A8DED080AEC
:102360009FEDA40A8DED090A9FEDA20A8DED0A0AE0
:102370009FEDA50A8DED0B0A2AE29FED9B0A8DEDDC
:102380000C0A9FED9A0A8DED0D0A9FED990A8DEDCD
:102390000E0AB7EE000A8DED0F0AB7EE000A8DEDBA
:1023A000100AB7EE000A8DED110AB7EE000A8DEDA6
:1023B000120AB7EE000A8DED130AB7EE000A8DED92
:1023C000140AB7EE000A8DED150A9FED900A8DED07
:1023D000160A9FED890A8DED010A9FED880A8DEDA1
:1023E000020A9FED870A8DED030A9FED820A8DEDAB
:1023F000040A9FED800A8DED050A04E09EE144E1A8
:10240000CCE072E018E09FED7B0A8DED060A9FEDAF
:10241000790A8DED070A9FED770A8DED080A9FED89
:10242000750A8DED090A9FED730A8DED0A0A9FED7D
:10243000780A8DED0B0ACBE19FED6B0A8DED0C0A4E
:102440009FED6A0A8DED0D0A9FED690A8DED0E0A6A
:10245000B7EE000A8DED0F0AB7EE000A8DED100AF7
:10246000B7EE000A8DED110AB7EE000A8DED120AE3
:10247000B7EE000A8DED130AB7EE000A8DED140ACF
:10248000B7EE000A8DED150A9FED620A8DED160A72
:102490009FED590A8DED010A9FED580A8DED020A54
:1024A0009FED570A8DED030A9FED520A8DED040A48
:1024B0009FED500A8DED050A9FED4E0A8DED060A3F
:1024C0009FED4C0A8DED070A9FED4A0A8DED080A33
:1024D0009FED480A8DED090A9FED460A8DED0A0A27
:1024E0009FED4D0A8DED0B0A72E19FED3F0A8DEDD8
:1024F0000C0A9FED3E0A8DED0D0A9FED3D0A8DED14
:102500000E0AB7EE000A8DED0F0AB7EE000A8DED48
:10251000100AB7EE000A8DED110AB7EE000A8DED34
:10252000120AB7EE000A8DED130AB7EE000A8DED20
:10253000140AB7EE000A8DED150AB7EE000A8DED0C
:10254000160A9FED2D0A8DED010A9FED2C0A8DEDE7
:10255000020A9FED2B0A8DED030A9FED260A8DEDF1
:10256000040A9FED240A8DED050A9FED220A8DEDE8
:10257000060A9FED200A8DED070A9FED1E0A8DEDDC
:10258000080A9FED1C0A8DED090A9FED1A0A8DEDD0
:102590000A0A9FED180A8DED0B0A19E19FED120A48
:1025A0008DED0C0A9FED110A8DED0D0A9FED100ABD
:1025B0008DED0E0AB7EE000A8DED0F0AB7EE000A98
:1025C0008DED100AB7EE000A8DED110AB7EE000A84
:1025D0008DED120AB7EE000A8DED130AB7EE000A70
:1025E0001CE00000F015002046B6E541BC74F14146
:1025F0001F85F241000000000058BFC5CD88D1C53D
:102600009A19DCC5DF4FF44100A4DDC56891F8419B
:10261000335FE9C5FA7EF041669ADBC58DED140A99
:10262000B7EE000A8DED150AB7EE000A8DED160A19
:102630001FED0F0A8DED010A1FED100A8DED020A44
:102640001FED110A8DED030A1FED160A8DED040A28
:102650001FED180A8DED050A1FED1A0A8DED060A09
:102660001FED1C0A8DED070A1FED1E0A8DED080AED
:102670001FED200A8DED090A1FED220A8DED0A0AD1
:102680001FED240A8DED0B0AA2E01FED290A8DED46
:102690000C0A1FED2A0A8DED0D0A1FED2B0A8DED98
:1026A0000E0AB7EE000A8DED0F0AB7EE000A8DEDA7
:1026B000100AB7EE000A8DED110AB7EE000A8DED93
:1026C000120AB7EE000A8DED130AB7EE000A8DED7F
:1026D000140AB7EE000A8DED150AB7EE000A8DED6B
:1026E000160A1FED3B0A8DED010A1FED3C0A8DED28
:1026F000020A1FED3D0A8DED030A1FED420A8DED22
:10270000040A1FED440A8DED050A1FED460A8DED02
:10271000060A1FED480A8DED070A1FED4A0A8DEDE6
:10272000080A1FED4C0A8DED090A1FED4E0A8DEDCA
:102730000A0A1FED500A8DED0B0A49E0B1EE060AB8
:102740008DED0E0A8DED0D0A8DED0C0AB7EE000A27
:102750008DED110A8DED100A8DED0F0AB3EE080A0A
:102760008DED120AB7EE000A8DED130AB7EE000ADE
:102770008DED140AB7EE000A8DED150A1FED630A00
:102780008DED160A9FEDFE0A8DED030A8DED020A0E
:102790008DED010A1FED690A8DED060A8DED050A22
:1027A0008DED040A9FEDF70A8DED070A1FED6F0A04
:1027B0008DED080A1FED710A8DED090A1FED730AF0
:1027C0008DED0A0A1FED750A8DED0B0A00E000BFC2
:1027D00000BF14247FE1EC48006804EB440101EBE6
:1027E000C401EA4A52F82110884202D9E64800683A
:1027F00006E004EB440000EBC400E44951F820007B
:10280000E14908600846406804EB440101EBC4015B
:10281000DE4A02EB81014968884202D9DA48406801
:1028200007E004EB440000EBC400D84901EB800052
:102830004068D54948600846806804EB440101EBD4
:10284000C401D24A02EB81018968884202D9CE488C
:10285000806807E004EB440000EBC400CB4901EBC7
:1028600080008068C84988600846C06804EB44015D
:1028700001EBC401C54A02EB8101C968884202D953
:10288000C148C06807E004EB440000EBC400BF4946
:1028900001EB8000C068BC49C8600846006904EBD1
:1028A000440101EBC401B94A02EB81010969884284
:1028B00002D9B548006907E004EB440000EBC4000E
:1028C000B24901EB80000069AF49086108464069E0
:1028D00004EB440101EBC401AC4A02EB81014969FC
:1028E000884202D9A848406907E004EB440000EBA5
:1028F000C400A64901EB80004069A349486108462D
:10290000806904EB440101EBC401A04A02EB8101A0
:102910008969884202D99C48806907E004EB440039
:1029200000EBC400994901EB8000806996498861F9
:102930000846C06904EB440101EBC401934A02EB71
:102940008101C969884202D98F48C06907E004EB58
:10295000440000EBC4008D4901EB8000C0698A4946
:10296000C8610846006A04EB440101EBC401874AD0
:1029700002EB8101096A884202D98348006A07E0B4
:1029800004EB440000EBC400804901EB8000006AC6
:102990007D4908620846406A04EB440101EBC4012A
:1029A0007A4A02EB8101496A884202D97648406A34
:1029B00007E004EB440000EBC400744901EB800025
:1029C000406A714948620846806A04EB440101EBA1
:1029D000C4016E4A02EB8101896A884202D96A48C1
:1029E000806A07E004EB440000EBC400674901EB98
:1029F0008000806A6449886204EB440101EBC401F1
:102A0000624A52F8211017980844179004EB4401C9
:102A100001EBC40102EB8101189849680844189041
:102A200004EB440101EBC40102EB810119988968B0
:102A30000844199004EB440101EBC40102EB81014D
:102A40001A98C96808441A9004EB440101EBC401C8
:102A500002EB81011B98096908441B9004EB4401B7
:102A600001EBC40102EB81011C98496908441C90E8
:102A700004EB440101EBC40102EB81011D9889695B
:102A800008441D9004EB440101EBC40102EB8101F9
:102A90001E98C96908441E9004EB440101EBC4016F
:102AA00002EB81011F98096A08441F9004EB44015E
:102AB00001EBC40102EB81012098496A084420908F
:102AC00004EB440101EBC40102EB81012198896A06
:102AD00008442190641C642CFFF67DAE9DED010A34
:102AE0002948D0ED000AF8EE600A9DED0C1A00EEC0
:102AF000810ABCEEC00A80ED000A9DED020AD0ED0D
:102B0000010AF8EE600A9DED0D1A00EE810ABCEE96
:102B1000C00A80ED010A9DED030AD0ED020AF8EE2D
:102B2000600A9DED0E1A00EE810ABCEEC00A80ED2F
:102B3000020A9DED040AD0ED030AF8EE600A9DED4D
:102B40000F1A00EE810ABCEEC00A80ED030A9DED6B
:102B5000050AD0ED040AF8EE600A9DED101A00EEA9
:102B6000810ABCEEC00A80ED040A9DED060AD0ED94
:102B7000050AF8EE600A9DED111A00EE810A07E0E1
:102B8000EC515044000045C6F0150020C004002060
:102B9000BCEEC00A80ED050A9DED070AD0ED060ADD
:102BA000F8EE600A9DED121A00EE810ABCEEC00A32
:102BB00080ED060A9DED080AD0ED070AF8EE600ADE
:102BC0009DED131A00EE810ABCEEC00A80ED070AE3
:102BD0009DED090AD0ED080AF8EE600A9DED141A81
:102BE00000EE810ABCEEC00A80ED080A9DED0A0ADB
:102BF000D0ED090AF8EE600A9DED151A00EE810A83
:102C0000BCEEC00A80ED090A9DED0B0AD0ED0A0A60
:102C1000F8EE600A9DED161A00EE810ABCEEC00ABD
:102C200080ED0A0A50211798B0FBF1F01790189820
:102C3000B0FBF1F018901998B0FBF1F019901A98C8
:102C4000B0FBF1F01A901B98B0FBF1F01B901C98B0
:102C5000B0FBF1F01C901D98B0FBF1F01D901E9898
:102C6000B0FBF1F01E901F98B0FBF1F01F90209880
:102C7000B0FBF1F020902198B0FBF1F021909DED98
:102C8000010ADDED170AF8EE600A9DED0C1A00EE60
:102C9000810ABCEEC00A4A4880ED000A9DED020A96
:102CA000DDED180AF8EE600A9DED0D1A00EE810ABE
:102CB000BCEEC00A80ED010A9DED030ADDED190AA4
:102CC000F8EE600A9DED0E1A00EE810ABCEEC00A15
:102CD00080ED020A9DED040ADDED1A0AF8EE600AA5
:102CE0009DED0F1A00EE810ABCEEC00A80ED030ACA
:102CF0009DED050ADDED1B0AF8EE600A9DED101A48
:102D000000EE810ABCEEC00A80ED040A9DED060AC1
:102D1000DDED1C0AF8EE600A9DED111A00EE810A45
:102D2000BCEEC00A80ED050A9DED070ADDED1D0A27
:102D3000F8EE600A9DED121A00EE810ABCEEC00AA0
:102D400080ED060A9DED080ADDED1E0AF8EE600A28
:102D50009DED131A00EE810ABCEEC00A80ED070A51
:102D60009DED090ADDED1F0AF8EE600A9DED141ACB
:102D700000EE810ABCEEC00A80ED080A9DED0A0A49
:102D8000DDED200AF8EE600A9DED151A00EE810ACD
:102D9000BCEEC00A80ED090A9DED0B0ADDED210AAB
:102DA000F8EE600A9DED161A00EE810ABCEEC00A2C
:102DB00080ED0A0A00200349087022B010BD00000F
:102DC0001C160020400000207047000001480068E9
:102DD000704700004C0000200448006808B9072034
:102DE000704702480068401EFAE700005C000020BF
:102DF000014903C970470000D00000200148006865
:102E0000704700005000002010B504462C220249F3
:102E10002046FDF73BFA10BD1C1600202DE9F041BD
:102E200006460024012701F0C1FA054607FA04F01E
:102E30003040002804DD0121634802F064FA15E007
:102E40000121614802F05DFAD5F86C0120F0010023
:102E5000C5F86C01042001F02FFB052001F02CFBCC
:102E6000062001F029FB072001F026FB641C07FA6D
:102E700004F03040002804DD0821534802F043FAF2
:102E800015E00821504802F03CFAD5F86C0120F01A
:102E90000200C5F86C010C2001F00EFB0D2001F0C2
:102EA0000BFB0E2001F008FB0F2001F005FB641C5A
:102EB00007FA04F03040002804DD4021424802F0C7
:102EC00022FA15E04021404802F01BFAD5F86C01C7
:102ED00020F00400C5F86C01142001F0EDFA152073
:102EE00001F0EAFA162001F0E7FA172001F0E4FAFF
:102EF000641C07FA04F03040002805DD4FF400712F
:102F0000314802F000FA16E04FF400712E4802F04A
:102F1000F8F9D5F86C0120F00800C5F86C011C2008
:102F200001F0CAFA1D2001F0C7FA1E2001F0C4FA10
:102F30001F2001F0C1FA641C07FA04F03040002899
:102F400005DD4FF48051204802F0DDF916E04FF422
:102F500080511D4802F0D5F9D5F86C0120F0100021
:102F6000C5F86C01242001F0A7FA252001F0A4FA8D
:102F7000262001F0A1FA272001F09EFA641C07FA2E
:102F800004F03040002805DD4FF400410E4802F007
:102F9000BAF916E04FF400410B4802F0B2F9D5F847
:102FA0006C0120F02000C5F86C012C2001F084FA9F
:102FB0002D2001F081FA2E2001F07EFA2F2001F061
:102FC0007BFA641CBDE8F081001802402DE9F04155
:102FD00006460024012701F0E9F9054607FA04F046
:102FE0003040002804DD0221D34802F08CF90FE0C4
:102FF0000221D14802F085F9D5F8680120F00100DE
:10300000C5F86801012001F057FA002001F054FAD8
:10301000641C07FA04F03040002804DD0421C6488F
:1030200002F071F90FE00421C34802F06AF9D5F803
:10303000680120F00200C5F86801032001F03CFAA5
:10304000022001F039FA641C07FA04F0304000282D
:1030500004DD1021B84802F056F90FE01021B648FF
:1030600002F04FF9D5F8680120F00400C5F86801B6
:10307000092001F021FA082001F01EFA641C07FA69
:1030800004F03040002804DD2021AB4802F03BF979
:103090000FE02021A84802F034F9D5F8680120F0AB
:1030A0000800C5F868010B2001F006FA0A2001F0BB
:1030B00003FA641C07FA04F03040002804DD802184
:1030C0009D4802F020F90FE080219B4802F019F999
:1030D000D5F8680120F01000C5F86801112001F052
:1030E000EBF9102001F0E8F9641C07FA04F0304015
:1030F000002805DD4FF480718F4802F004F910E0DC
:103100004FF480718C4802F0FCF8D5F8680120F08B
:103110002000C5F86801132001F0CEF9122001F05B
:10312000CBF9641C07FA04F03040002805DD4FF4A9
:103130008061814802F0E7F810E04FF480617E483A
:1031400002F0DFF8D5F8680120F04000C5F868010A
:10315000192001F0B1F9182001F0AEF9641C07FA4A
:1031600004F03040002805DD4FF40061724802F0A1
:10317000CAF810E04FF400616F4802F0C2F8D5F8C9
:10318000680120F08000C5F868011B2001F094F967
:103190001A2001F091F9641C07FA04F0304000286D
:1031A00005DD4FF40051644802F0ADF810E04FF433
:1031B0000051614802F0A5F8D5F8680120F480704C
:1031C000C5F86801212001F077F9202001F074F999
:1031D000641C07FA04F03040002805DD4FF48041FC
:1031E000554802F090F810E04FF48041524802F048
:1031F00088F8D5F8680120F40070C5F8680123202C
:1032000001F05AF9222001F057F9641C07FA04F082
:103210003040002805DD4FF48051484802F073F833
:1032200010E04FF48051454802F06BF8D5F8680182
:1032300020F48060C5F86801292001F03DF92820BC
:1032400001F03AF9641C07FA04F03040002805DD6B
:103250004FF40051394802F056F810E04FF4005195
:10326000364802F04EF8D5F8680120F40060C5F841
:1032700068012B2001F020F92A2001F01DF9641CBF
:1032800007FA04F03040002805DD4FF480612C4837
:1032900002F039F80AE04FF48061294802F031F871
:1032A000D5F8680120F48050C5F86801641C07FA5D
:1032B00004F03040002805DD4FF48041214802F041
:1032C00022F80AE04FF480411E4802F01AF8D5F8BF
:1032D000680120F40050C5F86801641C07FA04F086
:1032E0003040002804DD4021144802F00CF809E0C9
:1032F0004021124802F005F8D5F8680120F480401A
:10330000C5F86801641C07FA04F03040002805DDA8
:103310004FF400410B4801F0F6FF0AE04FF4004182
:10332000084801F0EEFFD5F8680120F40040C5F828
:103330006801641CBDE8F0810018024000040240EE
:1033400000080240000C024010B501F02FF80446BE
:10335000D4F8640101280ED1D4F86801FFF736FED5
:10336000D4F86C01FFF75AFDD4F86811D4F86C0159
:1033700001F0B8F807E0FFF729FDC4F86C01FFF78A
:103380003DFDC4F8680110BD10B540F6044002F0E0
:10339000BFF94FF4805301221146114802F029F879
:1033A0004FF48053022200210D4802F051F84FF4EF
:1033B0000053012211460A4802F01BF84FF4005353
:1033C00002220021064802F043F84FF480510448DD
:1033D00001F099FF4FF40051014801F092FF10BD38
:1033E0000010024010B540480068401C3E4908608B
:1033F00008460068072801D9002008603A4800689C
:10340000082805D2DFE800F005121F2C394653606A
:1034100000BF0121354801F074FF0221334801F05B
:1034200070FF0421314801F06EFF5AE001212F485E
:1034300001F067FF02212D4801F065FF04212B48B0
:1034400001F061FF4DE00121284801F05CFF0221FD
:10345000264801F058FF0421244801F054FF40E0C1
:103460000121224801F04FFF0221204801F049FFCD
:1034700004211E4801F047FF33E001211B4801F001
:1034800040FF0221194801F03CFF0421174801F0D8
:1034900038FF26E00121154801F033FF02211348CF
:1034A00001F031FF0421114801F02BFF19E0012147
:1034B0000E4801F028FF02210C4801F022FF0421F0
:1034C0000A4801F01EFF0CE00121084801F01BFF33
:1034D0000221064801F017FF0421044801F011FF02
:1034E00000BF00BF10BD00005C00002000080240CB
:1034F00010B50446082C05D2DFE804F005121F2C95
:103500003946536000BF0121354801F0FAFE02211F
:10351000334801F0F6FE0421314801F0F2FE5AE092
:1035200001212F4801F0EDFE02212D4801F0E9FEB6
:1035300004212B4801F0E7FE4DE00121284801F06D
:10354000E0FE0221264801F0DEFE0421244801F0BD
:10355000D8FE40E00121224801F0D3FE022120489C
:1035600001F0D1FE04211E4801F0CDFE33E001211F
:103570001B4801F0C8FE0221194801F0C2FE0421D7
:10358000174801F0BEFE26E00121154801F0BBFE00
:103590000221134801F0B5FE0421114801F0B3FEE9
:1035A00019E001210E4801F0AEFE02210C4801F0A5
:1035B000AAFE04210A4801F0A4FE0CE001210848FB
:1035C00001F0A1FE0221064801F09DFE04210448FD
:1035D00001F099FE00BF00BF0248046010BD00006A
:1035E000000802405C00002010B501F075FC0446A4
:1035F00000F0DCFEC0F8604100F0E8F8FFF7A4FE40
:1036000002F02AF902F03BF901F054FCFEF792FDBA
:1036100000F0C8FE007828B100F0C4FE044600782F
:10362000401E207010BD30B504460D4695E80F00D1
:1036300084E80F000E206061204600F001F830BDE4
:1036400000BF9D2342685A43192392FBF3F1037D87
:1036500001229A404A4303680B4492FBF3F2026151
:103660007047000030B5ADF2845D002400254FF4B2
:10367000B062124901A8FCF709FE00BF19E000255D
:1036800014E004EB440202EBC40201AB03EB0212B0
:1036900002EB051104EB440202EBC402084B03EBFE
:1036A000421202EB4510FFF7BEFF6D1C0B2DE8DB4D
:1036B000641C082CE3DB0DF2845D30BD6C670008F0
:1036C000281D002010B50421014801F01CFE10BD8A
:1036D0000000024010B50421014801F012FE10BDA7
:1036E0000000024010B51021014801F00CFE10BD91
:1036F0000000024010B51021014801F002FE10BD8B
:103700000000024010B54021014801F0FCFD10BD51
:103710000000024010B54021014801F0F2FD10BD4B
:103720000000024010B50221014801F0ECFD10BD7F
:103730000000024010B50221014801F0E2FD10BD79
:103740000000024010B50821014801F0DCFD10BD69
:103750000000024010B50821014801F0D2FD10BD63
:103760000000024010B52021014801F0CCFD10BD41
:103770000000024010B52021014801F0C2FD10BD3B
:103780000000024001201049C1F8640140F62230D7
:10379000C1F83002C1F83402C1F83802C1F83C0265
:1037A000C1F84002C1F84402C1F84802C1F84C0215
:1037B000C1F85002C1F85402C1F85802C1F85C02C5
:1037C0006420C1F85C0170470019002000B58BB07F
:1037D0004FF4B87219491A48FCF758FD14221949D8
:1037E0001948FCF753FD19480A9006208DF800008F
:1037F00000F0E4FD019000F0DDFD0890FDF724FEEF
:103800008DF8080012480390124805901248049061
:10381000124807900A480690684600F025F84FF4D1
:1038200082720F490F48FCF731FD04480449D1F872
:103830007412C0F874120BB000BD00000019002013
:103840005C160020681B0020C418002000440040C3
:10385000480000205216002048160020D8180020EA
:10386000C0170020641A002070B5FEB00446002680
:103870004FF4FA7101A8FCF73BFD207A012870D1C2
:10388000206A008802286DDD60680078217888420F
:1038900068D16068407801281BD0606840780228B1
:1038A00017D060684078032813D0606840780428F7
:1038B0000FD06068407805280BD0606840780628F3
:1038C00007D0606840780F2803D0606840781028DF
:1038D0006ED160684078042802DD0220E16808703B
:1038E0006068C0786168897840EA0120A084226A13
:1038F0001288911E6068FCF75FFD0646206A00880A
:10390000801E6168095C206A0088401E6268105C45
:1039100041EA0025AE4238D160684078052822D0BF
:1039200008DC01280DD002280FD0032811D004286C
:1039300029D112E006281AD00F281CD0102822D135
:103940001DE0204600F0CEFA1EE0204600F06EFC9E
:103950001AE0204600F090FB16E0204600F0F9FB4C
:1039600012E03AE036E0204601F0F5FB0CE020469C
:1039700001F0ACFB08E0204601F0B8FA04E0204674
:1039800001F031FB00E000BF24E0606800788DF8B2
:1039900004006068407840F080008DF80500042045
:1039A0008DF80600032201A9A06A01F051FA11E086
:1039B000606800788DF804006068407840F080000E
:1039C0008DF8050001208DF80600032201A9A06AE8
:1039D00001F03EFA0020216A08807EB070BD000030
:1039E00010B500F0A3FF01220221054801F08DFC73
:1039F00000F0E8FC00220221014801F086FC10BD25
:103A0000000C024000B587B04FF0804002F08EF904
:103A100040F6014001F07CFE4FF4805001F078FE4A
:103A20004FF0807001F0AAFE4FF4406300220221A3
:103A3000374801F0DEFC4FF4406302220021344895
:103A400001F006FD4FF440620121314801F02AFCEB
:103A50000920ADF80C000020ADF80E00ADF8100004
:103A600040F2E73005900020ADF812008DF8180004
:103A700003A94FF0804002F021FA0120ADF80000C8
:103A80000020ADF80200ADF80400ADF80600ADF876
:103A90000800ADF80A006A460221480701F0E2FF7B
:103AA00040F2E7320221480702F0FFF860220221CB
:103AB000480702F0CDF800220221480702F008F979
:103AC0006A4603214FF0804001F0CCFF40F2E7321C
:103AD00003214FF0804002F0E8F8602203214FF00C
:103AE000804002F0B5F8002203214FF0804002F040
:103AF000EFF84FF0804001F0AFFF0121880702F09E
:103B000029FA4FF0804002F0D3F907B000BD000061
:103B10000004024010B540F6014001F0F9FD40F606
:103B2000024001F0F5FD40F6034001F0F1FD40F6E2
:103B3000064001F0EDFDE74801F0ECFB0123022215
:103B40001946E44801F055FC012302220021E14816
:103B500001F07EFC02231A460121DE4801F049FCF7
:103B600002231A460021DB4801F072FC04230222E2
:103B70000121D84801F03DFC042302220021D54850
:103B800001F066FC082302220121D24801F031FC39
:103B9000082302220021CF4801F05AFC1023022200
:103BA0000121CC4801F025FC102302220021C94844
:103BB00001F04EFC202302220121C64801F019FC2D
:103BC000202302220021C34801F042FC40230222AC
:103BD0000121C04801F00DFC402302220021BD4814
:103BE00001F036FC802302220121BA4801F001FCD9
:103BF000802302220021B74801F02AFC4FF4807391
:103C000002220121B34801F0F4FB4FF48073022239
:103C10000021B04801F01CFC4FF400730222012186
:103C2000AC4801F0E6FB4FF4007302220021A948E2
:103C300001F00EFC4FF4806302220121A54801F03F
:103C4000D8FB4FF4806302220021A24801F000FC5F
:103C50004FF40063022201219E4801F0CAFB4FF499
:103C60000063022200219B4801F0F2FB4FF48053D5
:103C700002220121974801F0BCFB4FF4805302223D
:103C80000021944801F0E4FB4FF40053022201218B
:103C9000904801F0AEFB4FF40053022200218D4802
:103CA00001F0D6FB4FF4804302220121894801F044
:103CB000A0FB4FF4804302220021864801F0C8FB9C
:103CC0004FF4004302220121824801F092FB4FF49D
:103CD0000043022200217F4801F0BAFB7E4801F038
:103CE00019FB0123022219467B4801F082FB0123C4
:103CF00002220021784801F0ABFB02231A46012181
:103D0000754801F076FB02231A460021724801F043
:103D10009FFB0423022201216F4801F06AFB042368
:103D2000022200216C4801F093FB082302220121AA
:103D3000694801F05EFB082302220021664801F079
:103D400087FB102302220121634801F052FB10235C
:103D500002220021604801F07BFB20230222012186
:103D60005D4801F046FB2023022200215A4801F061
:103D70006FFB4FF4807302220121574801F039FB99
:103D80004FF4807302220021534801F061FB4FF48D
:103D9000007302220121504801F02BFB4FF4007305
:103DA000022200214C4801F053FB4FF480630222B1
:103DB0000121494801F01DFB4FF4806302220021DC
:103DC000454801F045FB4FF40063022201214248BF
:103DD00001F00FFB4FF40063022200213E4801F086
:103DE00037FB2023022201213C4801F002FB202363
:103DF000022200213A4801F02BFB40230122114608
:103E0000364801F0F6FA402302220021344801F03E
:103E10001FFB4FF4805302220121304801F0E9FAE0
:103E20004FF48053022200212D4801F011FB4FF482
:103E3000005301221146294801F0DBFA4FF40053E8
:103E400002220021264801F003FB02231A46012129
:103E5000234801F0CEFA02231A460021204801F03F
:103E6000F7FA4FF40063012211461D4801F0C1FA30
:103E70004FF4006302220021194801F0E9FA4FF4DF
:103E8000804301221146164801F0B3FA4FF48043F3
:103E900002220021124801F0DBFA4FF40043012214
:103EA00011460F4801F0A5FA4FF400430222002109
:103EB0000B4801F0CDFA4FF48073002211460848F8
:103EC00001F097FA4FF4807302220021044801F0B8
:103ED000BFFA10BD00180240000802400004024072
:103EE000000C02402DE9F041FEB0064600240027F8
:103EF0000025A0464FF4FA7101A8FCF7F9F97068A3
:103F000040797168097940EA0125B08C2844FF287E
:103F10007EDA706800788DF80400706840788DF85B
:103F200005002846E91705EB5171C1F3CF07E917E2
:103F300005EB5171C910A5EBC10109B1781C87B21D
:103F4000F8B28DF8060000245BE0E11704EB517134
:103F5000C910A4EBC10141B900222046E11704EBCE
:103F60005171C910C91C01AB5A54E11704EB5171CE
:103F7000C910C91C01AA515C4A102046E11704EB84
:103F80005171C910C91C01AB5A54E11704EB5171AE
:103F9000C910C91C01AA515CB38C23443269D25C9C
:103FA000802303EAC2121143E21704EB5272D210CB
:103FB000D21C01AB9954681EA04220D1E91705EB31
:103FC0005171C910A5EBC101C9B1E21704EB5272DE
:103FD000D210D21C9A5C2946EB1705EB5373DB1009
:103FE000A5EBC303C3F108031A412046E31704EB12
:103FF0005373DB10DB1C0DF1040C0CF80320601C68
:1040000084B2AC42A1DBF91C01A8FCF7D5F900E0B1
:104010000FE0804601AAF81C02F800804FEA182140
:10402000381D1154791DCAB201A9B06A00F010FF01
:1040300011E0706800788DF804007068407840F0F6
:1040400080008DF8050002208DF80600032201A9EA
:10405000B06A00F0FDFE7EB0BDE8F0810048704718
:10406000681C00200348006808B101207047002048
:10407000FCE7000054000020F0B5FDB00446002627
:10408000002500274FF4FA716846FCF731F96068A3
:1040900040796168097940EA0125A08C2844FF280D
:1040A00043DA606800788DF80000606840788DF829
:1040B00001006806000E8DF8020000BF17E0A18C19
:1040C0003144A06910F82100042101EB46010DF8EC
:1040D0000100A18C3144A06930F82100C0F3072011
:1040E000032101EB46010DF80100701C86B2AE42BF
:1040F000E5DB032000EB45016846FCF75DF9074668
:10410000F8B2032101EB45010DF80100380A042142
:1041100001EB45010DF80100052101EB4501CAB293
:104120006946A06A00F094FE11E0606800788DF89E
:1041300000006068407840F080008DF801000220A7
:104140008DF8020003226946A06A00F081FE7DB06E
:10415000F0BDF0B5FDB004460026002500274FF461
:10416000FA716846FCF7C4F86068407961680979BB
:1041700040EA0125A08C2844FF2843DA60680078D3
:104180008DF80000606840788DF801006806000E28
:104190008DF8020000BF17E0A18C3144E06910F8EF
:1041A0002100042101EB46010DF80100A18C3144EE
:1041B000E06930F82100C0F30720032101EB46013C
:1041C0000DF80100701C86B2AE42E5DB032000EB67
:1041D00045016846FCF7F0F80746F8B2032101EB09
:1041E00045010DF80100380A042101EB45010DF8E5
:1041F0000100052101EB4501CAB26946A06A00F041
:1042000027FE11E0606800788DF800006068407853
:1042100040F080008DF8010002208DF8020003229A
:104220006946A06A00F014FE7DB0F0BD2DE9F041B2
:10423000FEB00646002400270025A0464FF4FA7180
:1042400001A8FCF755F8706840797168097940EA6F
:104250000125B08C2844FF287EDA706800788DF83C
:104260000400706840788DF805002846E91705EBD2
:104270005171C1F3CF07E91705EB5171C910A5EBD7
:10428000C10109B1781C87B2F8B28DF8060000248C
:104290005BE0E11704EB5171C910A4EBC10141B916
:1042A00000222046E11704EB5171C910C91C01AB73
:1042B0005A54E11704EB5171C910C91C01AA515C91
:1042C0004A102046E11704EB5171C910C91C01AB1B
:1042D0005A54E11704EB5171C910C91C01AA515C71
:1042E000B38C23447269D25C802303EAC212114367
:1042F000E21704EB5272D210D21C01AB9954681E23
:10430000A04220D1E91705EB5171C910A5EBC101FD
:10431000C9B1E21704EB5272D210D21C9A5C294642
:10432000EB1705EB5373DB10A5EBC303C3F10803D5
:104330001A412046E31704EB5373DB10DB1C0DF12D
:10434000040C0CF80320601C84B2AC42A1DBF91C05
:1043500001A8FCF731F800E00FE0804601AAF81C44
:1043600002F800804FEA1821381D1154791DCAB295
:1043700001A9B06A00F06CFD11E0706800788DF85A
:1043800004007068407840F080008DF8050002203D
:104390008DF80600032201A9B06A00F059FD7EB035
:1043A000BDE8F08100487047480000200048704791
:1043B0000019002000487047300000200048704776
:1043C000CC02002010B5394801780078401C374AEB
:1043D000107001EB410000EBC100354901EB80009A
:1043E00034490860012001F0DBF9324909680860AE
:1043F0000120FDF7E2FD022001F0D2F92D49096804
:1044000048600120FDF7D9FD032001F0C9F92949D1
:10441000096888600120FDF7D0FD042001F0C0F993
:1044200024490968C8600120FDF7C7FD052001F097
:10443000B7F92049096808610120FDF7BEFD062093
:1044400001F0AEF91B49096848610120FDF7B5FD8F
:10445000072001F0A5F91749096888610120FDF7D7
:10446000ACFD082001F09CF912490968C8610120DF
:10447000FDF7A3FD092001F093F90E4909680862D0
:104480000120FDF79AFD0A2001F08AF9094909681F
:1044900048620120FDF791FD002001F081F90549F6
:1044A000096888620120FDF788FD10BD40000020EA
:1044B000C00400204400002070B50446012505FA20
:1044C00004F00649B1F90010814305480160006815
:1044D00010B90320FDF77FFD70BD000058000020DB
:1044E00054000020024A1060024A11607047000028
:1044F0004C0000205000002070B50446012505FA4C
:1045000004F00649B1F9001008430549086008465F
:10451000006810B10420FDF75EFD70BD580000205A
:104520005400002000B54FF0E020006900F4803016
:1045300010B1024800F0C0F900BD000000000020EA
:104540004FF0E020006920F001004FF0E021086109
:104550000846006920F0020008610846006920F062
:104560000400086146F2A81048610846006940F05E
:10457000020008610846006940F0010008617047C8
:1045800008B53048006840F470002E4908602E4895
:10459000006840F001002C49086000BF2A4800680C
:1045A00000F002000028F9D000BF2748083000685A
:1045B00040F080002449083108600020009002E0AB
:1045C0000098401C009000985028F9D31E480830ED
:1045D000006840F090001C490831086000200090FD
:1045E00002E00098401C009000985028F9D300BFCA
:1045F00015480830006820F00300134908310860AE
:1046000011480068114908400F49086008460068D1
:1046100020F48020086000200B490831086000BFAA
:1046200009480830006800200028F9D108480649E8
:10463000091D0860002004490C31086001F008FAE7
:1046400008BD000088ED00E000380240FFFFF6FEE4
:104650001030002410B58CB030221E496846FBF79C
:1046600015FE002431E0694601EB041000F0D7F894
:10467000694601EB0410802100F0B4F8694601EBB3
:10468000041000F0DDF8694601EB041000F0C7F8F3
:10469000694601EB0410402100F0A4F8694601EBE3
:1046A000041000F0CDF8694601EB041000F0B7F8F3
:1046B000694601EB04108B2100F094F8694601EB88
:1046C000041000F0BDF8601CC4B2032CCBDB0CB0AE
:1046D00010BD0000E064000870B58CB004460E46C2
:1046E000302211496846FBF7D1FD694601EB041001
:1046F00000F095F8694601EB0410C02100F072F853
:10470000002508E036F815106A4602EB041000F0A8
:1047100069F8681CC5B2102DF4DB694601EB041082
:1047200000F08EF80CB070BD1065000810B54FF4A5
:10473000406000F0EDFF02231A460121284800F0F6
:1047400058FE02231A460021254800F081FE04236A
:1047500002220121224800F04CFE04230222002103
:104760001F4800F075FE0823022201211C4800F0BA
:1047700040FE082302220021194800F069FE1023A0
:1047800002220121164800F034FE102302220021EB
:10479000134800F05DFE202302220121104800F0A2
:1047A00028FE2023022200210D4800F051FE402364
:1047B000022201210A4800F01CFE402302220021AF
:1047C000074800F045FEFEF7B5FFFEF783FFFEF752
:1047D000C1FFFEF78FFFFEF7CDFFFEF79BFF10BD79
:1047E0000000024070B504460D46002612E0E06865
:1047F000804700BF00BF05F0010010B1206880476E
:1048000001E06068804700BF00BFA06880476D106E
:10481000701CC6B2082EEADBE068804770BD10B598
:104820000446A068804700BF00BF2068804700BFE3
:1048300000BF6068804700BF00BFE068804710BDD0
:1048400010B50446E068804700BF00BF606880473D
:1048500000BF00BFA068804700BF00BF206880473E
:1048600010BD000000B585B0142204496846FBF76E
:104870000DFD684600F004F805B000BD4065000875
:1048800070B50546002411E004EB4400094911F815
:104890001000012808D155F824008047002004EBBF
:1048A0004401044A02F81100601CC4B2052CEBDB81
:1048B00070BD0000000000200146002028E000EB51
:1048C000400201EB4202528802B300EB400201EBCE
:1048D00042025288521E12B200EB400301EB430326
:1048E0005A8000EB400201EB4202528872B900EBA1
:1048F000400201EB4202928800EB400301EB4303CC
:104900005A80012200EB400301F81320421CD0B270
:104910000528D4DB704710B5FEF764FDFDF75CFC9D
:10492000FBF778FD00F0BAF810BD70470448D0E9F5
:1049300000305A1C40F100000149C1E900207047D5
:10494000D0000020F0B503460C46FEF751FA0546AC
:104950000E4694FBF2F0C11740197141C3E9000102
:10496000F0BD4FF0FF325108C0E900217047F0B5AB
:1049700003460C46FEF73CFA05460E46D3E90071A5
:10498000EA1B76EB010006DB012C02D11846FFF78B
:10499000E8FF0120F0BD0020FCE7000010B5194938
:1049A000194801F011FC38B11649174801F0FFFB16
:1049B000154801F04FFBC4B21449134801F004FC40
:1049C000F0B11249104801F0F2FB0F4801F042FB30
:1049D000C4B20F480088B0F5FA7F0EDA0D480C49D2
:1049E000098844540A480088401C0949088001226B
:1049F00004210948FFF7A6FF02E0002004490880CF
:104A000010BD00000503030000440040050305003D
:104A100030000020CC0200203800002010B51949D9
:104A2000194801F0D1FB38B11649174801F0BFFB16
:104A3000154801F00FFBC4B21449134801F0C4FB40
:104A4000F0B11249104801F0B2FB0F4801F002FB2F
:104A5000C4B20F480088B0F5FA7F0EDA0D480C4951
:104A6000098844540A480088401C094908800122EA
:104A700004210948FFF766FF02E00020044908808E
:104A800010BD0000050303000048004005030500B9
:104A900020000020D80000202800002000B58BB0A6
:104AA000FFF784FCB54908606846FEF7ADF9FEF7EC
:104AB00093F908287ED2DFE800F00441628CB4DC70
:104AC000FEFD42F650510098884203D2AB4900984F
:104AD0000968086342F650510198884203D2A749F9
:104AE00001980968486342F650510298884203D2FF
:104AF000A249029809688863A04903980968C863B5
:104B00009E490498096808649C49059809684864A6
:104B10009A49069809688864984907980968C8649A
:104B2000964908980968086594490998096848658C
:104B300092490A980968C1F878021CE18F490398E4
:104B4000096848678D490498096888678B49059802
:104B50000968C86789490698096888658749079878
:104B60000968C865854908980968086683490998ED
:104B70000968486681490A9809688861FBE07F49AD
:104B800003980968C1F89C007C4904980968C1F839
:104B9000A0007A4905980968C1F8A40077490698E9
:104BA0000968C1F88000754907980968C1F8840050
:104BB000724900E0DEE008980968C1F888006F4992
:104BC00009980968C1F88C006C490A980968C8619D
:104BD000D1E06A4903980968C1F8C400674904989C
:104BE0000968C1F8C800654905980968C1F8CC0092
:104BF000624906980968C1F8A800604907980968E1
:104C0000C1F8AC005D4908980968C1F8B0005B497B
:104C100009980968C1F8B40058490A9809680862F7
:104C2000A9E0564903980968C1F8EC005349049873
:104C30000968C1F8F000514905980968C1F8F40005
:104C40004E4906980968C1F8D0004C490798096890
:104C5000C1F8D400494908980968C1F8D800474903
:104C600009980968C1F8DC0044490A980968486253
:104C700081E0424903980968C1F814013F4904984A
:104C80000968C1F818013D4905980968C1F81C0177
:104C90003A4906980968C1F8F80038490798096840
:104CA000C1F8FC00354908980968C1F8000133498A
:104CB000099801E030E007E00968C1F804012F49D4
:104CC0000A980968886256E02C4903980968C1F877
:104CD0003C012A4904980968C1F840012749059810
:104CE0000968C1F84401254906980968C1F82001FE
:104CF000224907980968C1F82401204908980968E1
:104D0000C1F828011D4909980968C1F82C011B49FF
:104D10000A980968C8622EE0184900980968C1F825
:104D20006802164901980968C1F86C021349029893
:104D30000968C1F8700211490398096848600F4971
:104D40000498096888600D4905980968C8600B498E
:104D50000698096808610949079809684861074980
:104D600008980968C1F84801044909980968C1F818
:104D70004C0100E000BF00BF0BB000BD6000002090
:104D800010B5044640F6034000F0C2FC41F21100A9
:104D900000F0BEFC202207212B4800F083FA4022BD
:104DA0000721294800F07EFA20230122022126480B
:104DB00000F01FFB202302220021234800F048FBC3
:104DC000402301220221204800F013FB802302220D
:104DD00001211D4800F00DFB8023022200211A480A
:104DE00000F036FB194801F03FF92146174801F061
:104DF000BDF80021154801F023FA0021134801F005
:104E00000FFA0021114801F0FBF900210F4801F0D1
:104E1000B7F900210D4801F0A9F904210B4801F070
:104E2000F7F90821094801F003FA084801F08AF966
:104E300001220321262000F06DFB40F205310348DA
:104E400001F0A8F910BD0000000C02400044004031
:104E50002DE9F04105460E4617461448854203D118
:104E60008021134800F04FFA00240CE000BF072116
:104E7000284601F06CF90028F9D0315D284601F090
:104E8000EEF8601CC4B2BC42F0DB00BF072128462C
:104E900001F05DF90028F9D00448854203D1802152
:104EA000034800F02EFABDE8F08100000044004005
:104EB000000C024010B54FF40061064800F0C0FA43
:104EC000C0F10100C4B222464FF40061014800F075
:104ED0001CFA10BD000C024010B54FF4807102485E
:104EE00000F07FFA10BD0000000C0240F0B5FDB0EC
:104EF00004460025002600274FF4FA716846FBF7A8
:104F0000F7F9606840796168097940EA0126A08C68
:104F10003044FF2853DA00BF26E0E91705EB517152
:104F2000C910C91D6268515C01F0010129B101205D
:104F3000A28C2A442169885404E00020A28C2A44CF
:104F400021698854E91705EB5171C910C91D6268C0
:104F5000515C4A102846E91705EB5171C910C91D6B
:104F600063685A54681C85B2B542D6DB6068007825
:104F70008DF80000606840788DF8010060688078E6
:104F80008DF802006068C0788DF8030060680079D1
:104F90008DF80400606840798DF8050006216846A8
:104FA000FBF70AFA0746F8B28DF80600380A8DF8C2
:104FB000070008226946A06AFFF74AFF11E060680F
:104FC00000788DF800006068407840F080008DF82F
:104FD000010002208DF8020003226946A06AFFF753
:104FE00037FF7DB0F0BDF0B5FDB0044600250026CA
:104FF00000274FF4FA716846FBF77AF96068407948
:105000006168097940EA0126A08C3044FF2849DA1A
:1050100000BF1CE0082101EB45016068405CA28CE8
:105020002A44A16941F82200A18C2944A06950F8C2
:105030002100072202EB45026168895C40EA0120F9
:10504000A28C2A44A16941F82200681C85B2B542AD
:10505000E0DB606800788DF80000606840788DF8CB
:105060000100606880788DF802006068C0788DF873
:105070000300606800798DF80400606840798DF85D
:10508000050006216846FBF797F90746F8B28DF848
:105090000600380A8DF8070008226946A06AFFF763
:1050A000D7FE11E0606800788DF8000060684078F5
:1050B00040F080008DF8010002208DF802000322EC
:1050C0006946A06AFFF7C4FE7DB0F0BD30B5FDB003
:1050D000044600254FF4FA716846FBF709F9606849
:1050E0004079A28CA16941F82200A18CA06950F8F6
:1050F00021006168097940EA0120A28CA16941F888
:105100002200606800788DF80000606840788DF8B3
:105110000100606880788DF802006068C0788DF8C2
:105120000300606800798DF80400606840798DF8AC
:10513000050006216846FBF73FF90546E8B28DF801
:105140000600280A8DF8070008226946A06AFFF7C2
:105150007FFE7DB030BD30B5FDB0044600254FF474
:10516000FA716846FBF7C4F8A08CFF2839DA60684A
:105170000079FF2803D060684079FF2804D101201E
:10518000A28C2169885403E00020A28C21698854F4
:10519000606800788DF80000606840788DF8010044
:1051A000606880788DF802006068C0788DF8030030
:1051B000606800798DF80400606840798DF805001A
:1051C00006216846FBF7F8F80546E8B28DF80600B8
:1051D000280A8DF8070008226946A06AFFF738FE02
:1051E00011E0606800788DF800006068407840F059
:1051F00080008DF8010002208DF80200032269462C
:10520000A06AFFF725FE7DB030BD000010B540F666
:10521000054000F07DFA802300220121204800F0A3
:10522000E8F88023002211461D4800F011F94FF4E0
:105230000073002201211A4800F0DBF84FF40073DC
:1052400000221146164800F003F94FF48073002243
:105250001146134800F0CDF84023002201211048E8
:1052600000F0C7F84023002211460D4800F0F0F886
:105270004FF4806300221146094800F0BAF84FF459
:10528000806300221146064800F0E2F840210448FD
:1052900000F039F88021024800F033F810BD00001A
:1052A00000140240F0B503461C6A5D6A00200DE060
:1052B0000126864016403EB187000F26BE40B4430B
:1052C000860001FA06F63443461CB0B20828EFD334
:1052D000082011E00126864016405EB1A0F10806C4
:1052E000B7000F26BE40B543A0F10806B60001FA8C
:1052F00006F63543461CB0B21028EBD31C625D6243
:10530000F0BD81627047816170470AB1816100E040
:105310008162704710B50446C4F3090000285DD1CE
:10532000A012A0F580108038092857D2DFE800F0DD
:10533000050E172029323B444D004FF4806000F0E9
:105340000BFA4FF4806000F0F5F948E040F20140BC
:1053500000F002FA40F2014000F0ECF93FE040F2C8
:10536000024000F0F9F940F2024000F0E3F936E0C3
:1053700040F2034000F0F0F940F2034000F0DAF9A7
:105380002DE040F2044000F0E7F940F2044000F064
:10539000D1F924E040F2054000F0DEF940F205408A
:1053A00000F0C8F91BE040F2064000F0D5F940F2E9
:1053B000064000F0BFF912E040F2074000F0CCF9DF
:1053C00040F2074000F0B6F909E04FF4816000F0C8
:1053D000C3F94FF4816000F0ADF900E000BF00BFF9
:1053E00010BD02461069084008B101207047002036
:1053F000FCE7F0B504460D4616462168E268002039
:1054000019E0012787401F409FB14FEA400C032756
:1054100007FA0CF7B943470005FA07F739434FEA93
:10542000400C032707FA0CF7BA43470006FA07F7C0
:105430003A43471CB8B21028E3D32160E260F0BDC4
:1054400002465069084008B1012070470020FCE77F
:10545000F0B50C461546012C03D146681E43466044
:1054600002E046689E434660826800210DE0012606
:105470008E401E403EB14F000326BE40B2434E0058
:1054800005FA06F632434E1CB1B21029EFD3826002
:10549000F0BD00000024FEF73DFBFDF775FFFFF7B0
:1054A0004FF84FF4E130FFF76BFCFFF7AFFEFFF76B
:1054B0003DF9FFF7CFF8FEF7A5FA40F226210020CC
:1054C000FCF75CFE40F226210120FCF757FEFCF7BA
:1054D00035FCFEF7C7F8FEF755F9FCF785FD01200E
:1054E000FCF779FD00BF05E0FEF770F90848FCF70E
:1054F00057FD641C032CF7DB0320FCF76CFDFEF763
:1055000065F90020FDF7F4FF01E0FFF7ABF9FCE7D8
:1055100040420F002DE9F04103460D461646002497
:105520000027A0462A48006800F4E060B0F5E06F6C
:1055300003D100BF4FF0040830E02548006800F4B4
:10554000E060B0F5C06F03D101274FF0030825E0FC
:105550001F48006800F4E060B0F5A06F02D1022798
:10556000B8461BE01A48006800F4E060B0F5806FB0
:1055700003D103274FF0010810E01548006800F43C
:10558000E060B0F5407F03D104274FF0000805E04C
:105590004FF4A06000F020F80227B846C7F10400DD
:1055A00005FA00F4C8F104010F20C840304004435C
:1055B00024010848C45403F01F01012088405911F8
:1055C000890001F1E021C1F80001BDE8F08100008F
:1055D0000CED00E000E400E002490143024A1160E2
:1055E000704700000000FA050CED00E02DE9F04FD7
:1055F0008CB0064600200A903EA090E8004CC0689F
:10560000CDE905BECDF810A007900FF2EC0ADAE95B
:10561000000ACDE9020A0FF2E00ADAE9000ACDE950
:10562000000A38480068C0F381000B900B9820B145
:10563000012804D0022828D103E0334927E0334968
:1056400025E03048001F006800F03F072D48001F8C
:105650000068C0F3881C2B48001F0068C0F301409D
:10566000401C4FEA40092748001F006800F48008EA
:10567000B8F5800F01D1254B00E0234BB3FBF7F0C9
:1056800000FB0CF0B0FBF9F101E01F4900BF00BFC7
:105690001C480068C0F3031404A8055D21FA05F254
:1056A00018480068C0F3822402A8055D22FA05F0BC
:1056B000099014480068C0F342341DF8045022FADF
:1056C00005F0089036B1012E06D0022E06D0032E2A
:1056D0000AD106E00A9108E00A9206E009980A90C9
:1056E00003E008980A9000E000BF00BF0A980CB0E1
:1056F000BDE8F08F0000000000000000010203047C
:1057000006070809083802400024F40040787D01AB
:10571000074A02EB9011D1F8001800F01F03012294
:105720009A401143024B03EB9012C2F800187047E5
:1057300000300240074A02EB9011D1F8001800F047
:105740001F0301229A409143024B03EB9012C2F8CF
:105750000018704700300240074A02EB9011D1F860
:10576000001800F01F0301229A401143024B03EB83
:105770009012C2F800187047003002406FF080713C
:10578000884205D1054909680140044A116004E0D6
:10579000024909680143014A116070478C38024090
:1057A00070B5044600BF4FF480612A48FFF719FE28
:1057B0000028F8D000250620FCF7FFFB80212548B3
:1057C000FFF79FFD0620FCF7F8FB40212148FFF77B
:1057D00098FD0620FCF7F1FB2007040E04F0F0040E
:1057E00000262AE04FF480711A48FFF7FAFD08B14D
:1057F00045F0010504F0800028B14FF40071154810
:10580000FFF781FD04E04FF400711248FFF779FDC6
:105810000620FCF7D2FB80210E48FFF774FD06201E
:10582000FCF7CBFB80210B48FFF76BFD0620FCF754
:10583000C4FB6006040E6D00761C0C2ED2D306202D
:10584000FCF7BBFB40210348FFF75DFD6D082846D0
:1058500070BD00000014024070B50024FEF7A6FDE4
:1058600005460020FCF70CFB04460020FCF71CFB5F
:1058700020B104EB84004000C5F8580170BD70B53C
:1058800000250026FEF792FD0446D4F864010128A5
:1058900012D1D4F8740202280EDDB4F8740281B279
:1058A0000020FCF76BFCB4F8740281B20120FCF715
:1058B00065FCD4F8746241E00120FCF7E1FA05468A
:1058C0000120FCF7F1FAF8B1C82D0CDC40F22621DA
:1058D0000020FCF753FC40F226210120FCF74EFC8F
:1058E00040F226262AE0C82D0FDDB5F5967F0CDCA8
:1058F0004FF4A0710020FCF741FC4FF4A07101208F
:10590000FCF73CFC4FF4A07618E0B5F5967F0CDD73
:10591000B5F5FA7F09DCBE210020FCF72FFCBE2183
:105920000120FCF72BFCBE2608E009210020FCF733
:1059300025FC09210120FCF721FC0926002E01DDB0
:10594000C4F8746270BD0000002000213D4A126856
:1059500042F480323B4B1A6000BF401C394A126847
:1059600002F4003119B94FF6FF729042F5D1354A71
:10597000126802F4003232B900BF324A126802F4EF
:105980000032002AF9D02F4A4032126842F0805289
:105990002C4B40331A602C4A126842F440422A4B86
:1059A0001A60284A08321268264B08331A601A46D1
:1059B000126842F400421A601A46126842F4A05279
:1059C0001A60224A1B1F1A601A1F126842F0807266
:1059D0001B1F1A6000BF1B4A126802F00072002AE7
:1059E000F9D0194A126842F48032174B1A6000BF8E
:1059F000154A526802F48032002AF9D0124A12681D
:105A000042F40032104B1A6000BF0F4A526802F491
:105A10000032002AF9D00B4A0832126822F0030241
:105A2000084B08331A601A46126842F002021A60E4
:105A300000BF044A0832126802F00802002AF8D0B7
:105A400070470000003802400070004019644009AF
:105A500010B5FFF779FF10BD016841F080010160CA
:105A60007047000010B531B101293FD002297DD027
:105A700003297CD1BFE0036A23F001030362836939
:105A800023F003038361036A148823430362036AD8
:105A900023F002030362036A9488234303626A4B80
:105AA000984202D0694B98421FD1036A23F0040345
:105AB0000362036A548823430362036A23F00803E2
:105AC0000362036AD48823430362436823F4807328
:105AD00043604368148923434360436823F400739D
